{
	"subscription.sol": {
		"SubscriptionService": {
			"abi": [
				{
					"inputs": [],
					"stateMutability": "nonpayable",
					"type": "constructor"
				},
				{
					"anonymous": false,
					"inputs": [
						{
							"indexed": true,
							"internalType": "address",
							"name": "subscriber",
							"type": "address"
						},
						{
							"indexed": false,
							"internalType": "uint256",
							"name": "timeRemaining",
							"type": "uint256"
						}
					],
					"name": "NearExpiration",
					"type": "event"
				},
				{
					"anonymous": false,
					"inputs": [
						{
							"indexed": true,
							"internalType": "address",
							"name": "subscriber",
							"type": "address"
						},
						{
							"indexed": false,
							"internalType": "uint256",
							"name": "expiryTimestamp",
							"type": "uint256"
						},
						{
							"indexed": false,
							"internalType": "enum SubscriptionService.Tier",
							"name": "tier",
							"type": "uint8"
						}
					],
					"name": "SubscriptionRenewed",
					"type": "event"
				},
				{
					"inputs": [],
					"name": "basicFee",
					"outputs": [
						{
							"internalType": "uint256",
							"name": "",
							"type": "uint256"
						}
					],
					"stateMutability": "view",
					"type": "function"
				},
				{
					"inputs": [],
					"name": "basicInterval",
					"outputs": [
						{
							"internalType": "uint256",
							"name": "",
							"type": "uint256"
						}
					],
					"stateMutability": "view",
					"type": "function"
				},
				{
					"inputs": [],
					"name": "checkNearExpiration",
					"outputs": [],
					"stateMutability": "nonpayable",
					"type": "function"
				},
				{
					"inputs": [],
					"name": "checkSubscription",
					"outputs": [
						{
							"internalType": "bool",
							"name": "",
							"type": "bool"
						}
					],
					"stateMutability": "view",
					"type": "function"
				},
				{
					"inputs": [],
					"name": "earlyRenewalDiscount",
					"outputs": [
						{
							"internalType": "uint256",
							"name": "",
							"type": "uint256"
						}
					],
					"stateMutability": "view",
					"type": "function"
				},
				{
					"inputs": [],
					"name": "owner",
					"outputs": [
						{
							"internalType": "address",
							"name": "",
							"type": "address"
						}
					],
					"stateMutability": "view",
					"type": "function"
				},
				{
					"inputs": [],
					"name": "premiumFee",
					"outputs": [
						{
							"internalType": "uint256",
							"name": "",
							"type": "uint256"
						}
					],
					"stateMutability": "view",
					"type": "function"
				},
				{
					"inputs": [],
					"name": "premiumInterval",
					"outputs": [
						{
							"internalType": "uint256",
							"name": "",
							"type": "uint256"
						}
					],
					"stateMutability": "view",
					"type": "function"
				},
				{
					"inputs": [],
					"name": "renewSubscription",
					"outputs": [],
					"stateMutability": "payable",
					"type": "function"
				},
				{
					"inputs": [
						{
							"internalType": "enum SubscriptionService.Tier",
							"name": "tier",
							"type": "uint8"
						}
					],
					"name": "subscribe",
					"outputs": [],
					"stateMutability": "payable",
					"type": "function"
				},
				{
					"inputs": [
						{
							"internalType": "address",
							"name": "",
							"type": "address"
						}
					],
					"name": "subscriberTier",
					"outputs": [
						{
							"internalType": "enum SubscriptionService.Tier",
							"name": "",
							"type": "uint8"
						}
					],
					"stateMutability": "view",
					"type": "function"
				},
				{
					"inputs": [
						{
							"internalType": "address",
							"name": "",
							"type": "address"
						}
					],
					"name": "subscriptionExpiry",
					"outputs": [
						{
							"internalType": "uint256",
							"name": "",
							"type": "uint256"
						}
					],
					"stateMutability": "view",
					"type": "function"
				},
				{
					"inputs": [],
					"name": "withdrawFunds",
					"outputs": [],
					"stateMutability": "nonpayable",
					"type": "function"
				}
			],
			"devdoc": {
				"kind": "dev",
				"methods": {},
				"version": 1
			},
			"evm": {
				"assembly": "    /* \"subscription.sol\":60:3293  contract SubscriptionService {... */\n  mstore(0x40, 0x80)\n    /* \"subscription.sol\":189:199  0.01 ether */\n  0x2386f26fc10000\n    /* \"subscription.sol\":163:199  uint256 public basicFee = 0.01 ether */\n  0x01\n  sstore\n    /* \"subscription.sol\":234:244  0.05 ether */\n  0xb1a2bc2ec50000\n    /* \"subscription.sol\":206:244  uint256 public premiumFee = 0.05 ether */\n  0x02\n  sstore\n    /* \"subscription.sol\":282:289  30 days */\n  0x278d00\n    /* \"subscription.sol\":251:289  uint256 public basicInterval = 30 days */\n  0x03\n  sstore\n    /* \"subscription.sol\":329:336  90 days */\n  0x76a700\n    /* \"subscription.sol\":296:336  uint256 public premiumInterval = 90 days */\n  0x04\n  sstore\n    /* \"subscription.sol\":381:383  10 */\n  0x0a\n    /* \"subscription.sol\":343:383  uint256 public earlyRenewalDiscount = 10 */\n  0x05\n  sstore\n    /* \"subscription.sol\":832:883  constructor() {... */\n  callvalue\n  dup1\n  iszero\n  tag_1\n  jumpi\n  0x00\n  dup1\n  revert\ntag_1:\n  pop\n    /* \"subscription.sol\":865:875  msg.sender */\n  caller\n    /* \"subscription.sol\":857:862  owner */\n  0x00\n  dup1\n    /* \"subscription.sol\":857:875  owner = msg.sender */\n  0x0100\n  exp\n  dup2\n  sload\n  dup2\n  0xffffffffffffffffffffffffffffffffffffffff\n  mul\n  not\n  and\n  swap1\n  dup4\n  0xffffffffffffffffffffffffffffffffffffffff\n  and\n  mul\n  or\n  swap1\n  sstore\n  pop\n    /* \"subscription.sol\":60:3293  contract SubscriptionService {... */\n  dataSize(sub_0)\n  dup1\n  dataOffset(sub_0)\n  0x00\n  codecopy\n  0x00\n  return\nstop\n\nsub_0: assembly {\n        /* \"subscription.sol\":60:3293  contract SubscriptionService {... */\n      mstore(0x40, 0x80)\n      jumpi(tag_1, lt(calldatasize, 0x04))\n      shr(0xe0, calldataload(0x00))\n      dup1\n      0x60a85ef5\n      gt\n      tag_15\n      jumpi\n      dup1\n      0x7e9a7f2f\n      gt\n      tag_16\n      jumpi\n      dup1\n      0x7e9a7f2f\n      eq\n      tag_11\n      jumpi\n      dup1\n      0x8da5cb5b\n      eq\n      tag_12\n      jumpi\n      dup1\n      0xb6aeecf1\n      eq\n      tag_13\n      jumpi\n      dup1\n      0xcdad47be\n      eq\n      tag_14\n      jumpi\n      jump(tag_1)\n    tag_16:\n      dup1\n      0x60a85ef5\n      eq\n      tag_8\n      jumpi\n      dup1\n      0x6e2e9c18\n      eq\n      tag_9\n      jumpi\n      dup1\n      0x6e307981\n      eq\n      tag_10\n      jumpi\n      jump(tag_1)\n    tag_15:\n      dup1\n      0x209c9523\n      eq\n      tag_2\n      jumpi\n      dup1\n      0x24600fc3\n      eq\n      tag_3\n      jumpi\n      dup1\n      0x311af42c\n      eq\n      tag_4\n      jumpi\n      dup1\n      0x4320a87f\n      eq\n      tag_5\n      jumpi\n      dup1\n      0x49c7e639\n      eq\n      tag_6\n      jumpi\n      dup1\n      0x572ed5ad\n      eq\n      tag_7\n      jumpi\n    tag_1:\n      0x00\n      dup1\n      revert\n        /* \"subscription.sol\":206:244  uint256 public premiumFee = 0.05 ether */\n    tag_2:\n      callvalue\n      dup1\n      iszero\n      tag_17\n      jumpi\n      0x00\n      dup1\n      revert\n    tag_17:\n      pop\n      tag_18\n      tag_19\n      jump\t// in\n    tag_18:\n      mload(0x40)\n      tag_20\n      swap2\n      swap1\n      tag_21\n      jump\t// in\n    tag_20:\n      mload(0x40)\n      dup1\n      swap2\n      sub\n      swap1\n      return\n        /* \"subscription.sol\":3014:3290  function withdrawFunds() external onlyOwner {... */\n    tag_3:\n      callvalue\n      dup1\n      iszero\n      tag_22\n      jumpi\n      0x00\n      dup1\n      revert\n    tag_22:\n      pop\n      tag_23\n      tag_24\n      jump\t// in\n    tag_23:\n      stop\n        /* \"subscription.sol\":2668:3006  function checkNearExpiration() external {... */\n    tag_4:\n      callvalue\n      dup1\n      iszero\n      tag_25\n      jumpi\n      0x00\n      dup1\n      revert\n    tag_25:\n      pop\n      tag_26\n      tag_27\n      jump\t// in\n    tag_26:\n      stop\n        /* \"subscription.sol\":472:518  mapping(address => Tier) public subscriberTier */\n    tag_5:\n      callvalue\n      dup1\n      iszero\n      tag_28\n      jumpi\n      0x00\n      dup1\n      revert\n    tag_28:\n      pop\n      tag_29\n      0x04\n      dup1\n      calldatasize\n      sub\n      dup2\n      add\n      swap1\n      tag_30\n      swap2\n      swap1\n      tag_31\n      jump\t// in\n    tag_30:\n      tag_32\n      jump\t// in\n    tag_29:\n      mload(0x40)\n      tag_33\n      swap2\n      swap1\n      tag_34\n      jump\t// in\n    tag_33:\n      mload(0x40)\n      dup1\n      swap2\n      sub\n      swap1\n      return\n        /* \"subscription.sol\":891:1551  function subscribe(Tier tier) external payable {... */\n    tag_6:\n      tag_35\n      0x04\n      dup1\n      calldatasize\n      sub\n      dup2\n      add\n      swap1\n      tag_36\n      swap2\n      swap1\n      tag_37\n      jump\t// in\n    tag_36:\n      tag_38\n      jump\t// in\n    tag_35:\n      stop\n        /* \"subscription.sol\":251:289  uint256 public basicInterval = 30 days */\n    tag_7:\n      callvalue\n      dup1\n      iszero\n      tag_39\n      jumpi\n      0x00\n      dup1\n      revert\n    tag_39:\n      pop\n      tag_40\n      tag_41\n      jump\t// in\n    tag_40:\n      mload(0x40)\n      tag_42\n      swap2\n      swap1\n      tag_21\n      jump\t// in\n    tag_42:\n      mload(0x40)\n      dup1\n      swap2\n      sub\n      swap1\n      return\n        /* \"subscription.sol\":412:465  mapping(address => uint256) public subscriptionExpiry */\n    tag_8:\n      callvalue\n      dup1\n      iszero\n      tag_43\n      jumpi\n      0x00\n      dup1\n      revert\n    tag_43:\n      pop\n      tag_44\n      0x04\n      dup1\n      calldatasize\n      sub\n      dup2\n      add\n      swap1\n      tag_45\n      swap2\n      swap1\n      tag_31\n      jump\t// in\n    tag_45:\n      tag_46\n      jump\t// in\n    tag_44:\n      mload(0x40)\n      tag_47\n      swap2\n      swap1\n      tag_21\n      jump\t// in\n    tag_47:\n      mload(0x40)\n      dup1\n      swap2\n      sub\n      swap1\n      return\n        /* \"subscription.sol\":2527:2660  function checkSubscription() external view returns (bool) {... */\n    tag_9:\n      callvalue\n      dup1\n      iszero\n      tag_48\n      jumpi\n      0x00\n      dup1\n      revert\n    tag_48:\n      pop\n      tag_49\n      tag_50\n      jump\t// in\n    tag_49:\n      mload(0x40)\n      tag_51\n      swap2\n      swap1\n      tag_52\n      jump\t// in\n    tag_51:\n      mload(0x40)\n      dup1\n      swap2\n      sub\n      swap1\n      return\n        /* \"subscription.sol\":1559:2519  function renewSubscription() external payable {... */\n    tag_10:\n      tag_53\n      tag_54\n      jump\t// in\n    tag_53:\n      stop\n        /* \"subscription.sol\":296:336  uint256 public premiumInterval = 90 days */\n    tag_11:\n      callvalue\n      dup1\n      iszero\n      tag_55\n      jumpi\n      0x00\n      dup1\n      revert\n    tag_55:\n      pop\n      tag_56\n      tag_57\n      jump\t// in\n    tag_56:\n      mload(0x40)\n      tag_58\n      swap2\n      swap1\n      tag_21\n      jump\t// in\n    tag_58:\n      mload(0x40)\n      dup1\n      swap2\n      sub\n      swap1\n      return\n        /* \"subscription.sol\":96:116  address public owner */\n    tag_12:\n      callvalue\n      dup1\n      iszero\n      tag_59\n      jumpi\n      0x00\n      dup1\n      revert\n    tag_59:\n      pop\n      tag_60\n      tag_61\n      jump\t// in\n    tag_60:\n      mload(0x40)\n      tag_62\n      swap2\n      swap1\n      tag_63\n      jump\t// in\n    tag_62:\n      mload(0x40)\n      dup1\n      swap2\n      sub\n      swap1\n      return\n        /* \"subscription.sol\":163:199  uint256 public basicFee = 0.01 ether */\n    tag_13:\n      callvalue\n      dup1\n      iszero\n      tag_64\n      jumpi\n      0x00\n      dup1\n      revert\n    tag_64:\n      pop\n      tag_65\n      tag_66\n      jump\t// in\n    tag_65:\n      mload(0x40)\n      tag_67\n      swap2\n      swap1\n      tag_21\n      jump\t// in\n    tag_67:\n      mload(0x40)\n      dup1\n      swap2\n      sub\n      swap1\n      return\n        /* \"subscription.sol\":343:383  uint256 public earlyRenewalDiscount = 10 */\n    tag_14:\n      callvalue\n      dup1\n      iszero\n      tag_68\n      jumpi\n      0x00\n      dup1\n      revert\n    tag_68:\n      pop\n      tag_69\n      tag_70\n      jump\t// in\n    tag_69:\n      mload(0x40)\n      tag_71\n      swap2\n      swap1\n      tag_21\n      jump\t// in\n    tag_71:\n      mload(0x40)\n      dup1\n      swap2\n      sub\n      swap1\n      return\n        /* \"subscription.sol\":206:244  uint256 public premiumFee = 0.05 ether */\n    tag_19:\n      sload(0x02)\n      dup2\n      jump\t// out\n        /* \"subscription.sol\":3014:3290  function withdrawFunds() external onlyOwner {... */\n    tag_24:\n        /* \"subscription.sol\":761:766  owner */\n      0x00\n      dup1\n      sload\n      swap1\n      0x0100\n      exp\n      swap1\n      div\n      0xffffffffffffffffffffffffffffffffffffffff\n      and\n        /* \"subscription.sol\":747:766  msg.sender == owner */\n      0xffffffffffffffffffffffffffffffffffffffff\n      and\n        /* \"subscription.sol\":747:757  msg.sender */\n      caller\n        /* \"subscription.sol\":747:766  msg.sender == owner */\n      0xffffffffffffffffffffffffffffffffffffffff\n      and\n      eq\n        /* \"subscription.sol\":739:804  require(msg.sender == owner, \"Only owner can call this function\") */\n      tag_73\n      jumpi\n      mload(0x40)\n      0x08c379a000000000000000000000000000000000000000000000000000000000\n      dup2\n      mstore\n      0x04\n      add\n      tag_74\n      swap1\n      tag_75\n      jump\t// in\n    tag_74:\n      mload(0x40)\n      dup1\n      swap2\n      sub\n      swap1\n      revert\n    tag_73:\n        /* \"subscription.sol\":3069:3084  uint256 balance */\n      0x00\n        /* \"subscription.sol\":3087:3108  address(this).balance */\n      selfbalance\n        /* \"subscription.sol\":3069:3108  uint256 balance = address(this).balance */\n      swap1\n      pop\n        /* \"subscription.sol\":3137:3138  0 */\n      0x00\n        /* \"subscription.sol\":3127:3134  balance */\n      dup2\n        /* \"subscription.sol\":3127:3138  balance > 0 */\n      gt\n        /* \"subscription.sol\":3119:3165  require(balance > 0, \"No balance to withdraw\") */\n      tag_77\n      jumpi\n      mload(0x40)\n      0x08c379a000000000000000000000000000000000000000000000000000000000\n      dup2\n      mstore\n      0x04\n      add\n      tag_78\n      swap1\n      tag_79\n      jump\t// in\n    tag_78:\n      mload(0x40)\n      dup1\n      swap2\n      sub\n      swap1\n      revert\n    tag_77:\n        /* \"subscription.sol\":3177:3189  bool success */\n      0x00\n        /* \"subscription.sol\":3203:3208  owner */\n      dup1\n      0x00\n      swap1\n      sload\n      swap1\n      0x0100\n      exp\n      swap1\n      div\n      0xffffffffffffffffffffffffffffffffffffffff\n      and\n        /* \"subscription.sol\":3195:3214  payable(owner).call */\n      0xffffffffffffffffffffffffffffffffffffffff\n      and\n        /* \"subscription.sol\":3222:3229  balance */\n      dup3\n        /* \"subscription.sol\":3195:3234  payable(owner).call{value: balance}(\"\") */\n      mload(0x40)\n      tag_80\n      swap1\n      tag_81\n      jump\t// in\n    tag_80:\n      0x00\n      mload(0x40)\n      dup1\n      dup4\n      sub\n      dup2\n      dup6\n      dup8\n      gas\n      call\n      swap3\n      pop\n      pop\n      pop\n      returndatasize\n      dup1\n      0x00\n      dup2\n      eq\n      tag_84\n      jumpi\n      mload(0x40)\n      swap2\n      pop\n      and(add(returndatasize, 0x3f), not(0x1f))\n      dup3\n      add\n      0x40\n      mstore\n      returndatasize\n      dup3\n      mstore\n      returndatasize\n      0x00\n      0x20\n      dup5\n      add\n      returndatacopy\n      jump(tag_83)\n    tag_84:\n      0x60\n      swap2\n      pop\n    tag_83:\n      pop\n        /* \"subscription.sol\":3176:3234  (bool success, ) = payable(owner).call{value: balance}(\"\") */\n      pop\n      swap1\n      pop\n        /* \"subscription.sol\":3253:3260  success */\n      dup1\n        /* \"subscription.sol\":3245:3282  require(success, \"Withdrawal failed\") */\n      tag_85\n      jumpi\n      mload(0x40)\n      0x08c379a000000000000000000000000000000000000000000000000000000000\n      dup2\n      mstore\n      0x04\n      add\n      tag_86\n      swap1\n      tag_87\n      jump\t// in\n    tag_86:\n      mload(0x40)\n      dup1\n      swap2\n      sub\n      swap1\n      revert\n    tag_85:\n        /* \"subscription.sol\":3058:3290  {... */\n      pop\n      pop\n        /* \"subscription.sol\":3014:3290  function withdrawFunds() external onlyOwner {... */\n      jump\t// out\n        /* \"subscription.sol\":2668:3006  function checkNearExpiration() external {... */\n    tag_27:\n        /* \"subscription.sol\":2719:2740  uint256 timeRemaining */\n      0x00\n        /* \"subscription.sol\":2776:2791  block.timestamp */\n      timestamp\n        /* \"subscription.sol\":2743:2761  subscriptionExpiry */\n      0x06\n        /* \"subscription.sol\":2743:2773  subscriptionExpiry[msg.sender] */\n      0x00\n        /* \"subscription.sol\":2762:2772  msg.sender */\n      caller\n        /* \"subscription.sol\":2743:2773  subscriptionExpiry[msg.sender] */\n      0xffffffffffffffffffffffffffffffffffffffff\n      and\n      0xffffffffffffffffffffffffffffffffffffffff\n      and\n      dup2\n      mstore\n      0x20\n      add\n      swap1\n      dup2\n      mstore\n      0x20\n      add\n      0x00\n      keccak256\n      sload\n        /* \"subscription.sol\":2743:2791  subscriptionExpiry[msg.sender] > block.timestamp */\n      gt\n        /* \"subscription.sol\":2743:2872  subscriptionExpiry[msg.sender] > block.timestamp... */\n      tag_89\n      jumpi\n        /* \"subscription.sol\":2871:2872  0 */\n      0x00\n        /* \"subscription.sol\":2743:2872  subscriptionExpiry[msg.sender] > block.timestamp... */\n      jump(tag_90)\n    tag_89:\n        /* \"subscription.sol\":2840:2855  block.timestamp */\n      timestamp\n        /* \"subscription.sol\":2807:2825  subscriptionExpiry */\n      0x06\n        /* \"subscription.sol\":2807:2837  subscriptionExpiry[msg.sender] */\n      0x00\n        /* \"subscription.sol\":2826:2836  msg.sender */\n      caller\n        /* \"subscription.sol\":2807:2837  subscriptionExpiry[msg.sender] */\n      0xffffffffffffffffffffffffffffffffffffffff\n      and\n      0xffffffffffffffffffffffffffffffffffffffff\n      and\n      dup2\n      mstore\n      0x20\n      add\n      swap1\n      dup2\n      mstore\n      0x20\n      add\n      0x00\n      keccak256\n      sload\n        /* \"subscription.sol\":2807:2855  subscriptionExpiry[msg.sender] - block.timestamp */\n      tag_91\n      swap2\n      swap1\n      tag_92\n      jump\t// in\n    tag_91:\n        /* \"subscription.sol\":2743:2872  subscriptionExpiry[msg.sender] > block.timestamp... */\n    tag_90:\n        /* \"subscription.sol\":2719:2872  uint256 timeRemaining = subscriptionExpiry[msg.sender] > block.timestamp... */\n      swap1\n      pop\n        /* \"subscription.sol\":2918:2924  3 days */\n      0x03f480\n        /* \"subscription.sol\":2901:2914  timeRemaining */\n      dup2\n        /* \"subscription.sol\":2901:2924  timeRemaining <= 3 days */\n      gt\n        /* \"subscription.sol\":2897:2999  if (timeRemaining <= 3 days) {... */\n      tag_93\n      jumpi\n        /* \"subscription.sol\":2961:2971  msg.sender */\n      caller\n        /* \"subscription.sol\":2946:2987  NearExpiration(msg.sender, timeRemaining) */\n      0xffffffffffffffffffffffffffffffffffffffff\n      and\n      0x2b8a90e8196fed5a9a7bc85fc29928e0d14fff6f07b2d5c6c26b28d4011a6d92\n        /* \"subscription.sol\":2973:2986  timeRemaining */\n      dup3\n        /* \"subscription.sol\":2946:2987  NearExpiration(msg.sender, timeRemaining) */\n      mload(0x40)\n      tag_94\n      swap2\n      swap1\n      tag_21\n      jump\t// in\n    tag_94:\n      mload(0x40)\n      dup1\n      swap2\n      sub\n      swap1\n      log2\n        /* \"subscription.sol\":2897:2999  if (timeRemaining <= 3 days) {... */\n    tag_93:\n        /* \"subscription.sol\":2708:3006  {... */\n      pop\n        /* \"subscription.sol\":2668:3006  function checkNearExpiration() external {... */\n      jump\t// out\n        /* \"subscription.sol\":472:518  mapping(address => Tier) public subscriberTier */\n    tag_32:\n      mstore(0x20, 0x07)\n      dup1\n      0x00\n      mstore\n      keccak256(0x00, 0x40)\n      0x00\n      swap2\n      pop\n      sload\n      swap1\n      0x0100\n      exp\n      swap1\n      div\n      0xff\n      and\n      dup2\n      jump\t// out\n        /* \"subscription.sol\":891:1551  function subscribe(Tier tier) external payable {... */\n    tag_38:\n        /* \"subscription.sol\":949:960  uint256 fee */\n      0x00\n        /* \"subscription.sol\":972:982  Tier.Basic */\n      dup1\n        /* \"subscription.sol\":964:982  tier == Tier.Basic */\n      0x01\n      dup2\n      gt\n      iszero\n      tag_96\n      jumpi\n      tag_97\n      tag_98\n      jump\t// in\n    tag_97:\n    tag_96:\n        /* \"subscription.sol\":964:968  tier */\n      dup3\n        /* \"subscription.sol\":964:982  tier == Tier.Basic */\n      0x01\n      dup2\n      gt\n      iszero\n      tag_99\n      jumpi\n      tag_100\n      tag_98\n      jump\t// in\n    tag_100:\n    tag_99:\n      eq\n        /* \"subscription.sol\":963:1007  (tier == Tier.Basic) ? basicFee : premiumFee */\n      tag_101\n      jumpi\n        /* \"subscription.sol\":997:1007  premiumFee */\n      sload(0x02)\n        /* \"subscription.sol\":963:1007  (tier == Tier.Basic) ? basicFee : premiumFee */\n      jump(tag_102)\n    tag_101:\n        /* \"subscription.sol\":986:994  basicFee */\n      sload(0x01)\n        /* \"subscription.sol\":963:1007  (tier == Tier.Basic) ? basicFee : premiumFee */\n    tag_102:\n        /* \"subscription.sol\":949:1007  uint256 fee = (tier == Tier.Basic) ? basicFee : premiumFee */\n      swap1\n      pop\n        /* \"subscription.sol\":1018:1034  uint256 interval */\n      0x00\n        /* \"subscription.sol\":1046:1056  Tier.Basic */\n      dup1\n        /* \"subscription.sol\":1038:1056  tier == Tier.Basic */\n      0x01\n      dup2\n      gt\n      iszero\n      tag_103\n      jumpi\n      tag_104\n      tag_98\n      jump\t// in\n    tag_104:\n    tag_103:\n        /* \"subscription.sol\":1038:1042  tier */\n      dup4\n        /* \"subscription.sol\":1038:1056  tier == Tier.Basic */\n      0x01\n      dup2\n      gt\n      iszero\n      tag_105\n      jumpi\n      tag_106\n      tag_98\n      jump\t// in\n    tag_106:\n    tag_105:\n      eq\n        /* \"subscription.sol\":1037:1091  (tier == Tier.Basic) ? basicInterval : premiumInterval */\n      tag_107\n      jumpi\n        /* \"subscription.sol\":1076:1091  premiumInterval */\n      sload(0x04)\n        /* \"subscription.sol\":1037:1091  (tier == Tier.Basic) ? basicInterval : premiumInterval */\n      jump(tag_108)\n    tag_107:\n        /* \"subscription.sol\":1060:1073  basicInterval */\n      sload(0x03)\n        /* \"subscription.sol\":1037:1091  (tier == Tier.Basic) ? basicInterval : premiumInterval */\n    tag_108:\n        /* \"subscription.sol\":1018:1091  uint256 interval = (tier == Tier.Basic) ? basicInterval : premiumInterval */\n      swap1\n      pop\n        /* \"subscription.sol\":1133:1136  fee */\n      dup2\n        /* \"subscription.sol\":1120:1129  msg.value */\n      callvalue\n        /* \"subscription.sol\":1120:1136  msg.value == fee */\n      eq\n        /* \"subscription.sol\":1112:1172  require(msg.value == fee, \"Exact subscription fee required\") */\n      tag_109\n      jumpi\n      mload(0x40)\n      0x08c379a000000000000000000000000000000000000000000000000000000000\n      dup2\n      mstore\n      0x04\n      add\n      tag_110\n      swap1\n      tag_111\n      jump\t// in\n    tag_110:\n      mload(0x40)\n      dup1\n      swap2\n      sub\n      swap1\n      revert\n    tag_109:\n        /* \"subscription.sol\":1193:1216  uint256 expiryTimestamp */\n      0x00\n        /* \"subscription.sol\":1252:1267  block.timestamp */\n      timestamp\n        /* \"subscription.sol\":1219:1237  subscriptionExpiry */\n      0x06\n        /* \"subscription.sol\":1219:1249  subscriptionExpiry[msg.sender] */\n      0x00\n        /* \"subscription.sol\":1238:1248  msg.sender */\n      caller\n        /* \"subscription.sol\":1219:1249  subscriptionExpiry[msg.sender] */\n      0xffffffffffffffffffffffffffffffffffffffff\n      and\n      0xffffffffffffffffffffffffffffffffffffffff\n      and\n      dup2\n      mstore\n      0x20\n      add\n      swap1\n      dup2\n      mstore\n      0x20\n      add\n      0x00\n      keccak256\n      sload\n        /* \"subscription.sol\":1219:1267  subscriptionExpiry[msg.sender] > block.timestamp */\n      gt\n        /* \"subscription.sol\":1219:1366  subscriptionExpiry[msg.sender] > block.timestamp... */\n      tag_112\n      jumpi\n        /* \"subscription.sol\":1358:1366  interval */\n      dup2\n        /* \"subscription.sol\":1340:1355  block.timestamp */\n      timestamp\n        /* \"subscription.sol\":1340:1366  block.timestamp + interval */\n      tag_113\n      swap2\n      swap1\n      tag_114\n      jump\t// in\n    tag_113:\n        /* \"subscription.sol\":1219:1366  subscriptionExpiry[msg.sender] > block.timestamp... */\n      jump(tag_115)\n    tag_112:\n        /* \"subscription.sol\":1316:1324  interval */\n      dup2\n        /* \"subscription.sol\":1283:1301  subscriptionExpiry */\n      0x06\n        /* \"subscription.sol\":1283:1313  subscriptionExpiry[msg.sender] */\n      0x00\n        /* \"subscription.sol\":1302:1312  msg.sender */\n      caller\n        /* \"subscription.sol\":1283:1313  subscriptionExpiry[msg.sender] */\n      0xffffffffffffffffffffffffffffffffffffffff\n      and\n      0xffffffffffffffffffffffffffffffffffffffff\n      and\n      dup2\n      mstore\n      0x20\n      add\n      swap1\n      dup2\n      mstore\n      0x20\n      add\n      0x00\n      keccak256\n      sload\n        /* \"subscription.sol\":1283:1324  subscriptionExpiry[msg.sender] + interval */\n      tag_116\n      swap2\n      swap1\n      tag_114\n      jump\t// in\n    tag_116:\n        /* \"subscription.sol\":1219:1366  subscriptionExpiry[msg.sender] > block.timestamp... */\n    tag_115:\n        /* \"subscription.sol\":1193:1366  uint256 expiryTimestamp = subscriptionExpiry[msg.sender] > block.timestamp... */\n      swap1\n      pop\n        /* \"subscription.sol\":1412:1427  expiryTimestamp */\n      dup1\n        /* \"subscription.sol\":1379:1397  subscriptionExpiry */\n      0x06\n        /* \"subscription.sol\":1379:1409  subscriptionExpiry[msg.sender] */\n      0x00\n        /* \"subscription.sol\":1398:1408  msg.sender */\n      caller\n        /* \"subscription.sol\":1379:1409  subscriptionExpiry[msg.sender] */\n      0xffffffffffffffffffffffffffffffffffffffff\n      and\n      0xffffffffffffffffffffffffffffffffffffffff\n      and\n      dup2\n      mstore\n      0x20\n      add\n      swap1\n      dup2\n      mstore\n      0x20\n      add\n      0x00\n      keccak256\n        /* \"subscription.sol\":1379:1427  subscriptionExpiry[msg.sender] = expiryTimestamp */\n      dup2\n      swap1\n      sstore\n      pop\n        /* \"subscription.sol\":1467:1471  tier */\n      dup4\n        /* \"subscription.sol\":1438:1452  subscriberTier */\n      0x07\n        /* \"subscription.sol\":1438:1464  subscriberTier[msg.sender] */\n      0x00\n        /* \"subscription.sol\":1453:1463  msg.sender */\n      caller\n        /* \"subscription.sol\":1438:1464  subscriberTier[msg.sender] */\n      0xffffffffffffffffffffffffffffffffffffffff\n      and\n      0xffffffffffffffffffffffffffffffffffffffff\n      and\n      dup2\n      mstore\n      0x20\n      add\n      swap1\n      dup2\n      mstore\n      0x20\n      add\n      0x00\n      keccak256\n      0x00\n        /* \"subscription.sol\":1438:1471  subscriberTier[msg.sender] = tier */\n      0x0100\n      exp\n      dup2\n      sload\n      dup2\n      0xff\n      mul\n      not\n      and\n      swap1\n      dup4\n      0x01\n      dup2\n      gt\n      iszero\n      tag_117\n      jumpi\n      tag_118\n      tag_98\n      jump\t// in\n    tag_118:\n    tag_117:\n      mul\n      or\n      swap1\n      sstore\n      pop\n        /* \"subscription.sol\":1509:1519  msg.sender */\n      caller\n        /* \"subscription.sol\":1489:1543  SubscriptionRenewed(msg.sender, expiryTimestamp, tier) */\n      0xffffffffffffffffffffffffffffffffffffffff\n      and\n      0x06059ce9e97ca3eb8aa8f26fb51cd5bec5fae8e8198add1a7a16b03efc459f74\n        /* \"subscription.sol\":1521:1536  expiryTimestamp */\n      dup3\n        /* \"subscription.sol\":1538:1542  tier */\n      dup7\n        /* \"subscription.sol\":1489:1543  SubscriptionRenewed(msg.sender, expiryTimestamp, tier) */\n      mload(0x40)\n      tag_119\n      swap3\n      swap2\n      swap1\n      tag_120\n      jump\t// in\n    tag_119:\n      mload(0x40)\n      dup1\n      swap2\n      sub\n      swap1\n      log2\n        /* \"subscription.sol\":938:1551  {... */\n      pop\n      pop\n      pop\n        /* \"subscription.sol\":891:1551  function subscribe(Tier tier) external payable {... */\n      pop\n      jump\t// out\n        /* \"subscription.sol\":251:289  uint256 public basicInterval = 30 days */\n    tag_41:\n      sload(0x03)\n      dup2\n      jump\t// out\n        /* \"subscription.sol\":412:465  mapping(address => uint256) public subscriptionExpiry */\n    tag_46:\n      mstore(0x20, 0x06)\n      dup1\n      0x00\n      mstore\n      keccak256(0x00, 0x40)\n      0x00\n      swap2\n      pop\n      swap1\n      pop\n      sload\n      dup2\n      jump\t// out\n        /* \"subscription.sol\":2527:2660  function checkSubscription() external view returns (bool) {... */\n    tag_50:\n        /* \"subscription.sol\":2579:2583  bool */\n      0x00\n        /* \"subscription.sol\":2622:2640  subscriptionExpiry */\n      0x06\n        /* \"subscription.sol\":2622:2652  subscriptionExpiry[msg.sender] */\n      0x00\n        /* \"subscription.sol\":2641:2651  msg.sender */\n      caller\n        /* \"subscription.sol\":2622:2652  subscriptionExpiry[msg.sender] */\n      0xffffffffffffffffffffffffffffffffffffffff\n      and\n      0xffffffffffffffffffffffffffffffffffffffff\n      and\n      dup2\n      mstore\n      0x20\n      add\n      swap1\n      dup2\n      mstore\n      0x20\n      add\n      0x00\n      keccak256\n      sload\n        /* \"subscription.sol\":2603:2618  block.timestamp */\n      timestamp\n        /* \"subscription.sol\":2603:2652  block.timestamp <= subscriptionExpiry[msg.sender] */\n      gt\n      iszero\n        /* \"subscription.sol\":2596:2652  return block.timestamp <= subscriptionExpiry[msg.sender] */\n      swap1\n      pop\n        /* \"subscription.sol\":2527:2660  function checkSubscription() external view returns (bool) {... */\n      swap1\n      jump\t// out\n        /* \"subscription.sol\":1559:2519  function renewSubscription() external payable {... */\n    tag_54:\n        /* \"subscription.sol\":1657:1658  0 */\n      0x00\n        /* \"subscription.sol\":1624:1642  subscriptionExpiry */\n      0x06\n        /* \"subscription.sol\":1624:1654  subscriptionExpiry[msg.sender] */\n      0x00\n        /* \"subscription.sol\":1643:1653  msg.sender */\n      caller\n        /* \"subscription.sol\":1624:1654  subscriptionExpiry[msg.sender] */\n      0xffffffffffffffffffffffffffffffffffffffff\n      and\n      0xffffffffffffffffffffffffffffffffffffffff\n      and\n      dup2\n      mstore\n      0x20\n      add\n      swap1\n      dup2\n      mstore\n      0x20\n      add\n      0x00\n      keccak256\n      sload\n        /* \"subscription.sol\":1624:1658  subscriptionExpiry[msg.sender] > 0 */\n      gt\n        /* \"subscription.sol\":1616:1691  require(subscriptionExpiry[msg.sender] > 0, \"No active subscription found\") */\n      tag_123\n      jumpi\n      mload(0x40)\n      0x08c379a000000000000000000000000000000000000000000000000000000000\n      dup2\n      mstore\n      0x04\n      add\n      tag_124\n      swap1\n      tag_125\n      jump\t// in\n    tag_124:\n      mload(0x40)\n      dup1\n      swap2\n      sub\n      swap1\n      revert\n    tag_123:\n        /* \"subscription.sol\":1712:1733  uint256 timeRemaining */\n      0x00\n        /* \"subscription.sol\":1769:1784  block.timestamp */\n      timestamp\n        /* \"subscription.sol\":1736:1754  subscriptionExpiry */\n      0x06\n        /* \"subscription.sol\":1736:1766  subscriptionExpiry[msg.sender] */\n      0x00\n        /* \"subscription.sol\":1755:1765  msg.sender */\n      caller\n        /* \"subscription.sol\":1736:1766  subscriptionExpiry[msg.sender] */\n      0xffffffffffffffffffffffffffffffffffffffff\n      and\n      0xffffffffffffffffffffffffffffffffffffffff\n      and\n      dup2\n      mstore\n      0x20\n      add\n      swap1\n      dup2\n      mstore\n      0x20\n      add\n      0x00\n      keccak256\n      sload\n        /* \"subscription.sol\":1736:1784  subscriptionExpiry[msg.sender] > block.timestamp */\n      gt\n        /* \"subscription.sol\":1736:1865  subscriptionExpiry[msg.sender] > block.timestamp... */\n      tag_126\n      jumpi\n        /* \"subscription.sol\":1864:1865  0 */\n      0x00\n        /* \"subscription.sol\":1736:1865  subscriptionExpiry[msg.sender] > block.timestamp... */\n      jump(tag_127)\n    tag_126:\n        /* \"subscription.sol\":1833:1848  block.timestamp */\n      timestamp\n        /* \"subscription.sol\":1800:1818  subscriptionExpiry */\n      0x06\n        /* \"subscription.sol\":1800:1830  subscriptionExpiry[msg.sender] */\n      0x00\n        /* \"subscription.sol\":1819:1829  msg.sender */\n      caller\n        /* \"subscription.sol\":1800:1830  subscriptionExpiry[msg.sender] */\n      0xffffffffffffffffffffffffffffffffffffffff\n      and\n      0xffffffffffffffffffffffffffffffffffffffff\n      and\n      dup2\n      mstore\n      0x20\n      add\n      swap1\n      dup2\n      mstore\n      0x20\n      add\n      0x00\n      keccak256\n      sload\n        /* \"subscription.sol\":1800:1848  subscriptionExpiry[msg.sender] - block.timestamp */\n      tag_128\n      swap2\n      swap1\n      tag_92\n      jump\t// in\n    tag_128:\n        /* \"subscription.sol\":1736:1865  subscriptionExpiry[msg.sender] > block.timestamp... */\n    tag_127:\n        /* \"subscription.sol\":1712:1865  uint256 timeRemaining = subscriptionExpiry[msg.sender] > block.timestamp... */\n      swap1\n      pop\n        /* \"subscription.sol\":1878:1889  uint256 fee */\n      0x00\n        /* \"subscription.sol\":1923:1933  Tier.Basic */\n      dup1\n        /* \"subscription.sol\":1893:1933  subscriberTier[msg.sender] == Tier.Basic */\n      0x01\n      dup2\n      gt\n      iszero\n      tag_129\n      jumpi\n      tag_130\n      tag_98\n      jump\t// in\n    tag_130:\n    tag_129:\n        /* \"subscription.sol\":1893:1907  subscriberTier */\n      0x07\n        /* \"subscription.sol\":1893:1919  subscriberTier[msg.sender] */\n      0x00\n        /* \"subscription.sol\":1908:1918  msg.sender */\n      caller\n        /* \"subscription.sol\":1893:1919  subscriberTier[msg.sender] */\n      0xffffffffffffffffffffffffffffffffffffffff\n      and\n      0xffffffffffffffffffffffffffffffffffffffff\n      and\n      dup2\n      mstore\n      0x20\n      add\n      swap1\n      dup2\n      mstore\n      0x20\n      add\n      0x00\n      keccak256\n      0x00\n      swap1\n      sload\n      swap1\n      0x0100\n      exp\n      swap1\n      div\n      0xff\n      and\n        /* \"subscription.sol\":1893:1933  subscriberTier[msg.sender] == Tier.Basic */\n      0x01\n      dup2\n      gt\n      iszero\n      tag_131\n      jumpi\n      tag_132\n      tag_98\n      jump\t// in\n    tag_132:\n    tag_131:\n      eq\n        /* \"subscription.sol\":1892:1958  (subscriberTier[msg.sender] == Tier.Basic) ? basicFee : premiumFee */\n      tag_133\n      jumpi\n        /* \"subscription.sol\":1948:1958  premiumFee */\n      sload(0x02)\n        /* \"subscription.sol\":1892:1958  (subscriberTier[msg.sender] == Tier.Basic) ? basicFee : premiumFee */\n      jump(tag_134)\n    tag_133:\n        /* \"subscription.sol\":1937:1945  basicFee */\n      sload(0x01)\n        /* \"subscription.sol\":1892:1958  (subscriberTier[msg.sender] == Tier.Basic) ? basicFee : premiumFee */\n    tag_134:\n        /* \"subscription.sol\":1878:1958  uint256 fee = (subscriberTier[msg.sender] == Tier.Basic) ? basicFee : premiumFee */\n      swap1\n      pop\n        /* \"subscription.sol\":1969:1985  uint256 interval */\n      0x00\n        /* \"subscription.sol\":2019:2029  Tier.Basic */\n      dup1\n        /* \"subscription.sol\":1989:2029  subscriberTier[msg.sender] == Tier.Basic */\n      0x01\n      dup2\n      gt\n      iszero\n      tag_135\n      jumpi\n      tag_136\n      tag_98\n      jump\t// in\n    tag_136:\n    tag_135:\n        /* \"subscription.sol\":1989:2003  subscriberTier */\n      0x07\n        /* \"subscription.sol\":1989:2015  subscriberTier[msg.sender] */\n      0x00\n        /* \"subscription.sol\":2004:2014  msg.sender */\n      caller\n        /* \"subscription.sol\":1989:2015  subscriberTier[msg.sender] */\n      0xffffffffffffffffffffffffffffffffffffffff\n      and\n      0xffffffffffffffffffffffffffffffffffffffff\n      and\n      dup2\n      mstore\n      0x20\n      add\n      swap1\n      dup2\n      mstore\n      0x20\n      add\n      0x00\n      keccak256\n      0x00\n      swap1\n      sload\n      swap1\n      0x0100\n      exp\n      swap1\n      div\n      0xff\n      and\n        /* \"subscription.sol\":1989:2029  subscriberTier[msg.sender] == Tier.Basic */\n      0x01\n      dup2\n      gt\n      iszero\n      tag_137\n      jumpi\n      tag_138\n      tag_98\n      jump\t// in\n    tag_138:\n    tag_137:\n      eq\n        /* \"subscription.sol\":1988:2064  (subscriberTier[msg.sender] == Tier.Basic) ? basicInterval : premiumInterval */\n      tag_139\n      jumpi\n        /* \"subscription.sol\":2049:2064  premiumInterval */\n      sload(0x04)\n        /* \"subscription.sol\":1988:2064  (subscriberTier[msg.sender] == Tier.Basic) ? basicInterval : premiumInterval */\n      jump(tag_140)\n    tag_139:\n        /* \"subscription.sol\":2033:2046  basicInterval */\n      sload(0x03)\n        /* \"subscription.sol\":1988:2064  (subscriberTier[msg.sender] == Tier.Basic) ? basicInterval : premiumInterval */\n    tag_140:\n        /* \"subscription.sol\":1969:2064  uint256 interval = (subscriberTier[msg.sender] == Tier.Basic) ? basicInterval : premiumInterval */\n      swap1\n      pop\n        /* \"subscription.sol\":2097:2098  0 */\n      0x00\n        /* \"subscription.sol\":2081:2094  timeRemaining */\n      dup4\n        /* \"subscription.sol\":2081:2098  timeRemaining > 0 */\n      gt\n        /* \"subscription.sol\":2077:2210  if (timeRemaining > 0) {... */\n      iszero\n      tag_141\n      jumpi\n        /* \"subscription.sol\":2115:2131  uint256 discount */\n      0x00\n        /* \"subscription.sol\":2165:2168  100 */\n      0x64\n        /* \"subscription.sol\":2141:2161  earlyRenewalDiscount */\n      sload(0x05)\n        /* \"subscription.sol\":2135:2138  fee */\n      dup5\n        /* \"subscription.sol\":2135:2161  fee * earlyRenewalDiscount */\n      tag_142\n      swap2\n      swap1\n      tag_143\n      jump\t// in\n    tag_142:\n        /* \"subscription.sol\":2134:2168  (fee * earlyRenewalDiscount) / 100 */\n      tag_144\n      swap2\n      swap1\n      tag_145\n      jump\t// in\n    tag_144:\n        /* \"subscription.sol\":2115:2168  uint256 discount = (fee * earlyRenewalDiscount) / 100 */\n      swap1\n      pop\n        /* \"subscription.sol\":2190:2198  discount */\n      dup1\n        /* \"subscription.sol\":2183:2198  fee -= discount */\n      dup4\n      tag_146\n      swap2\n      swap1\n      tag_92\n      jump\t// in\n    tag_146:\n      swap3\n      pop\n        /* \"subscription.sol\":2100:2210  {... */\n      pop\n        /* \"subscription.sol\":2077:2210  if (timeRemaining > 0) {... */\n    tag_141:\n        /* \"subscription.sol\":2251:2254  fee */\n      dup2\n        /* \"subscription.sol\":2238:2247  msg.value */\n      callvalue\n        /* \"subscription.sol\":2238:2254  msg.value == fee */\n      eq\n        /* \"subscription.sol\":2230:2285  require(msg.value == fee, \"Exact renewal fee required\") */\n      tag_147\n      jumpi\n      mload(0x40)\n      0x08c379a000000000000000000000000000000000000000000000000000000000\n      dup2\n      mstore\n      0x04\n      add\n      tag_148\n      swap1\n      tag_149\n      jump\t// in\n    tag_148:\n      mload(0x40)\n      dup1\n      swap2\n      sub\n      swap1\n      revert\n    tag_147:\n        /* \"subscription.sol\":2306:2329  uint256 expiryTimestamp */\n      0x00\n        /* \"subscription.sol\":2350:2358  interval */\n      dup2\n        /* \"subscription.sol\":2332:2347  block.timestamp */\n      timestamp\n        /* \"subscription.sol\":2332:2358  block.timestamp + interval */\n      tag_150\n      swap2\n      swap1\n      tag_114\n      jump\t// in\n    tag_150:\n        /* \"subscription.sol\":2306:2358  uint256 expiryTimestamp = block.timestamp + interval */\n      swap1\n      pop\n        /* \"subscription.sol\":2402:2417  expiryTimestamp */\n      dup1\n        /* \"subscription.sol\":2369:2387  subscriptionExpiry */\n      0x06\n        /* \"subscription.sol\":2369:2399  subscriptionExpiry[msg.sender] */\n      0x00\n        /* \"subscription.sol\":2388:2398  msg.sender */\n      caller\n        /* \"subscription.sol\":2369:2399  subscriptionExpiry[msg.sender] */\n      0xffffffffffffffffffffffffffffffffffffffff\n      and\n      0xffffffffffffffffffffffffffffffffffffffff\n      and\n      dup2\n      mstore\n      0x20\n      add\n      swap1\n      dup2\n      mstore\n      0x20\n      add\n      0x00\n      keccak256\n        /* \"subscription.sol\":2369:2417  subscriptionExpiry[msg.sender] = expiryTimestamp */\n      dup2\n      swap1\n      sstore\n      pop\n        /* \"subscription.sol\":2455:2465  msg.sender */\n      caller\n        /* \"subscription.sol\":2435:2511  SubscriptionRenewed(msg.sender, expiryTimestamp, subscriberTier[msg.sender]) */\n      0xffffffffffffffffffffffffffffffffffffffff\n      and\n      0x06059ce9e97ca3eb8aa8f26fb51cd5bec5fae8e8198add1a7a16b03efc459f74\n        /* \"subscription.sol\":2467:2482  expiryTimestamp */\n      dup3\n        /* \"subscription.sol\":2484:2498  subscriberTier */\n      0x07\n        /* \"subscription.sol\":2484:2510  subscriberTier[msg.sender] */\n      0x00\n        /* \"subscription.sol\":2499:2509  msg.sender */\n      caller\n        /* \"subscription.sol\":2484:2510  subscriberTier[msg.sender] */\n      0xffffffffffffffffffffffffffffffffffffffff\n      and\n      0xffffffffffffffffffffffffffffffffffffffff\n      and\n      dup2\n      mstore\n      0x20\n      add\n      swap1\n      dup2\n      mstore\n      0x20\n      add\n      0x00\n      keccak256\n      0x00\n      swap1\n      sload\n      swap1\n      0x0100\n      exp\n      swap1\n      div\n      0xff\n      and\n        /* \"subscription.sol\":2435:2511  SubscriptionRenewed(msg.sender, expiryTimestamp, subscriberTier[msg.sender]) */\n      mload(0x40)\n      tag_151\n      swap3\n      swap2\n      swap1\n      tag_120\n      jump\t// in\n    tag_151:\n      mload(0x40)\n      dup1\n      swap2\n      sub\n      swap1\n      log2\n        /* \"subscription.sol\":1605:2519  {... */\n      pop\n      pop\n      pop\n      pop\n        /* \"subscription.sol\":1559:2519  function renewSubscription() external payable {... */\n      jump\t// out\n        /* \"subscription.sol\":296:336  uint256 public premiumInterval = 90 days */\n    tag_57:\n      sload(0x04)\n      dup2\n      jump\t// out\n        /* \"subscription.sol\":96:116  address public owner */\n    tag_61:\n      0x00\n      dup1\n      sload\n      swap1\n      0x0100\n      exp\n      swap1\n      div\n      0xffffffffffffffffffffffffffffffffffffffff\n      and\n      dup2\n      jump\t// out\n        /* \"subscription.sol\":163:199  uint256 public basicFee = 0.01 ether */\n    tag_66:\n      sload(0x01)\n      dup2\n      jump\t// out\n        /* \"subscription.sol\":343:383  uint256 public earlyRenewalDiscount = 10 */\n    tag_70:\n      sload(0x05)\n      dup2\n      jump\t// out\n        /* \"#utility.yul\":7:84   */\n    tag_152:\n        /* \"#utility.yul\":44:51   */\n      0x00\n        /* \"#utility.yul\":73:78   */\n      dup2\n        /* \"#utility.yul\":62:78   */\n      swap1\n      pop\n        /* \"#utility.yul\":7:84   */\n      swap2\n      swap1\n      pop\n      jump\t// out\n        /* \"#utility.yul\":90:208   */\n    tag_153:\n        /* \"#utility.yul\":177:201   */\n      tag_191\n        /* \"#utility.yul\":195:200   */\n      dup2\n        /* \"#utility.yul\":177:201   */\n      tag_152\n      jump\t// in\n    tag_191:\n        /* \"#utility.yul\":172:175   */\n      dup3\n        /* \"#utility.yul\":165:202   */\n      mstore\n        /* \"#utility.yul\":90:208   */\n      pop\n      pop\n      jump\t// out\n        /* \"#utility.yul\":214:436   */\n    tag_21:\n        /* \"#utility.yul\":307:311   */\n      0x00\n        /* \"#utility.yul\":345:347   */\n      0x20\n        /* \"#utility.yul\":334:343   */\n      dup3\n        /* \"#utility.yul\":330:348   */\n      add\n        /* \"#utility.yul\":322:348   */\n      swap1\n      pop\n        /* \"#utility.yul\":358:429   */\n      tag_193\n        /* \"#utility.yul\":426:427   */\n      0x00\n        /* \"#utility.yul\":415:424   */\n      dup4\n        /* \"#utility.yul\":411:428   */\n      add\n        /* \"#utility.yul\":402:408   */\n      dup5\n        /* \"#utility.yul\":358:429   */\n      tag_153\n      jump\t// in\n    tag_193:\n        /* \"#utility.yul\":214:436   */\n      swap3\n      swap2\n      pop\n      pop\n      jump\t// out\n        /* \"#utility.yul\":523:640   */\n    tag_155:\n        /* \"#utility.yul\":632:633   */\n      0x00\n        /* \"#utility.yul\":629:630   */\n      dup1\n        /* \"#utility.yul\":622:634   */\n      revert\n        /* \"#utility.yul\":769:895   */\n    tag_157:\n        /* \"#utility.yul\":806:813   */\n      0x00\n        /* \"#utility.yul\":846:888   */\n      0xffffffffffffffffffffffffffffffffffffffff\n        /* \"#utility.yul\":839:844   */\n      dup3\n        /* \"#utility.yul\":835:889   */\n      and\n        /* \"#utility.yul\":824:889   */\n      swap1\n      pop\n        /* \"#utility.yul\":769:895   */\n      swap2\n      swap1\n      pop\n      jump\t// out\n        /* \"#utility.yul\":901:997   */\n    tag_158:\n        /* \"#utility.yul\":938:945   */\n      0x00\n        /* \"#utility.yul\":967:991   */\n      tag_199\n        /* \"#utility.yul\":985:990   */\n      dup3\n        /* \"#utility.yul\":967:991   */\n      tag_157\n      jump\t// in\n    tag_199:\n        /* \"#utility.yul\":956:991   */\n      swap1\n      pop\n        /* \"#utility.yul\":901:997   */\n      swap2\n      swap1\n      pop\n      jump\t// out\n        /* \"#utility.yul\":1003:1125   */\n    tag_159:\n        /* \"#utility.yul\":1076:1100   */\n      tag_201\n        /* \"#utility.yul\":1094:1099   */\n      dup2\n        /* \"#utility.yul\":1076:1100   */\n      tag_158\n      jump\t// in\n    tag_201:\n        /* \"#utility.yul\":1069:1074   */\n      dup2\n        /* \"#utility.yul\":1066:1101   */\n      eq\n        /* \"#utility.yul\":1056:1119   */\n      tag_202\n      jumpi\n        /* \"#utility.yul\":1115:1116   */\n      0x00\n        /* \"#utility.yul\":1112:1113   */\n      dup1\n        /* \"#utility.yul\":1105:1117   */\n      revert\n        /* \"#utility.yul\":1056:1119   */\n    tag_202:\n        /* \"#utility.yul\":1003:1125   */\n      pop\n      jump\t// out\n        /* \"#utility.yul\":1131:1270   */\n    tag_160:\n        /* \"#utility.yul\":1177:1182   */\n      0x00\n        /* \"#utility.yul\":1215:1221   */\n      dup2\n        /* \"#utility.yul\":1202:1222   */\n      calldataload\n        /* \"#utility.yul\":1193:1222   */\n      swap1\n      pop\n        /* \"#utility.yul\":1231:1264   */\n      tag_204\n        /* \"#utility.yul\":1258:1263   */\n      dup2\n        /* \"#utility.yul\":1231:1264   */\n      tag_159\n      jump\t// in\n    tag_204:\n        /* \"#utility.yul\":1131:1270   */\n      swap3\n      swap2\n      pop\n      pop\n      jump\t// out\n        /* \"#utility.yul\":1276:1605   */\n    tag_31:\n        /* \"#utility.yul\":1335:1341   */\n      0x00\n        /* \"#utility.yul\":1384:1386   */\n      0x20\n        /* \"#utility.yul\":1372:1381   */\n      dup3\n        /* \"#utility.yul\":1363:1370   */\n      dup5\n        /* \"#utility.yul\":1359:1382   */\n      sub\n        /* \"#utility.yul\":1355:1387   */\n      slt\n        /* \"#utility.yul\":1352:1471   */\n      iszero\n      tag_206\n      jumpi\n        /* \"#utility.yul\":1390:1469   */\n      tag_207\n      tag_155\n      jump\t// in\n    tag_207:\n        /* \"#utility.yul\":1352:1471   */\n    tag_206:\n        /* \"#utility.yul\":1510:1511   */\n      0x00\n        /* \"#utility.yul\":1535:1588   */\n      tag_208\n        /* \"#utility.yul\":1580:1587   */\n      dup5\n        /* \"#utility.yul\":1571:1577   */\n      dup3\n        /* \"#utility.yul\":1560:1569   */\n      dup6\n        /* \"#utility.yul\":1556:1578   */\n      add\n        /* \"#utility.yul\":1535:1588   */\n      tag_160\n      jump\t// in\n    tag_208:\n        /* \"#utility.yul\":1525:1588   */\n      swap2\n      pop\n        /* \"#utility.yul\":1481:1598   */\n      pop\n        /* \"#utility.yul\":1276:1605   */\n      swap3\n      swap2\n      pop\n      pop\n      jump\t// out\n        /* \"#utility.yul\":1611:1791   */\n    tag_98:\n        /* \"#utility.yul\":1659:1736   */\n      0x4e487b7100000000000000000000000000000000000000000000000000000000\n        /* \"#utility.yul\":1656:1657   */\n      0x00\n        /* \"#utility.yul\":1649:1737   */\n      mstore\n        /* \"#utility.yul\":1756:1760   */\n      0x21\n        /* \"#utility.yul\":1753:1754   */\n      0x04\n        /* \"#utility.yul\":1746:1761   */\n      mstore\n        /* \"#utility.yul\":1780:1784   */\n      0x24\n        /* \"#utility.yul\":1777:1778   */\n      0x00\n        /* \"#utility.yul\":1770:1785   */\n      revert\n        /* \"#utility.yul\":1797:1908   */\n    tag_161:\n        /* \"#utility.yul\":1876:1877   */\n      0x02\n        /* \"#utility.yul\":1869:1874   */\n      dup2\n        /* \"#utility.yul\":1866:1878   */\n      lt\n        /* \"#utility.yul\":1856:1902   */\n      tag_211\n      jumpi\n        /* \"#utility.yul\":1882:1900   */\n      tag_212\n      tag_98\n      jump\t// in\n    tag_212:\n        /* \"#utility.yul\":1856:1902   */\n    tag_211:\n        /* \"#utility.yul\":1797:1908   */\n      pop\n      jump\t// out\n        /* \"#utility.yul\":1914:2037   */\n    tag_162:\n        /* \"#utility.yul\":1957:1964   */\n      0x00\n        /* \"#utility.yul\":1986:1991   */\n      dup2\n        /* \"#utility.yul\":1975:1991   */\n      swap1\n      pop\n        /* \"#utility.yul\":1992:2031   */\n      tag_214\n        /* \"#utility.yul\":2025:2030   */\n      dup3\n        /* \"#utility.yul\":1992:2031   */\n      tag_161\n      jump\t// in\n    tag_214:\n        /* \"#utility.yul\":1914:2037   */\n      swap2\n      swap1\n      pop\n      jump\t// out\n        /* \"#utility.yul\":2043:2166   */\n    tag_163:\n        /* \"#utility.yul\":2097:2106   */\n      0x00\n        /* \"#utility.yul\":2130:2160   */\n      tag_216\n        /* \"#utility.yul\":2154:2159   */\n      dup3\n        /* \"#utility.yul\":2130:2160   */\n      tag_162\n      jump\t// in\n    tag_216:\n        /* \"#utility.yul\":2117:2160   */\n      swap1\n      pop\n        /* \"#utility.yul\":2043:2166   */\n      swap2\n      swap1\n      pop\n      jump\t// out\n        /* \"#utility.yul\":2172:2311   */\n    tag_164:\n        /* \"#utility.yul\":2263:2304   */\n      tag_218\n        /* \"#utility.yul\":2298:2303   */\n      dup2\n        /* \"#utility.yul\":2263:2304   */\n      tag_163\n      jump\t// in\n    tag_218:\n        /* \"#utility.yul\":2258:2261   */\n      dup3\n        /* \"#utility.yul\":2251:2305   */\n      mstore\n        /* \"#utility.yul\":2172:2311   */\n      pop\n      pop\n      jump\t// out\n        /* \"#utility.yul\":2317:2547   */\n    tag_34:\n        /* \"#utility.yul\":2414:2418   */\n      0x00\n        /* \"#utility.yul\":2452:2454   */\n      0x20\n        /* \"#utility.yul\":2441:2450   */\n      dup3\n        /* \"#utility.yul\":2437:2455   */\n      add\n        /* \"#utility.yul\":2429:2455   */\n      swap1\n      pop\n        /* \"#utility.yul\":2465:2540   */\n      tag_220\n        /* \"#utility.yul\":2537:2538   */\n      0x00\n        /* \"#utility.yul\":2526:2535   */\n      dup4\n        /* \"#utility.yul\":2522:2539   */\n      add\n        /* \"#utility.yul\":2513:2519   */\n      dup5\n        /* \"#utility.yul\":2465:2540   */\n      tag_164\n      jump\t// in\n    tag_220:\n        /* \"#utility.yul\":2317:2547   */\n      swap3\n      swap2\n      pop\n      pop\n      jump\t// out\n        /* \"#utility.yul\":2553:2658   */\n    tag_165:\n        /* \"#utility.yul\":2632:2633   */\n      0x02\n        /* \"#utility.yul\":2625:2630   */\n      dup2\n        /* \"#utility.yul\":2622:2634   */\n      lt\n        /* \"#utility.yul\":2612:2652   */\n      tag_222\n      jumpi\n        /* \"#utility.yul\":2648:2649   */\n      0x00\n        /* \"#utility.yul\":2645:2646   */\n      dup1\n        /* \"#utility.yul\":2638:2650   */\n      revert\n        /* \"#utility.yul\":2612:2652   */\n    tag_222:\n        /* \"#utility.yul\":2553:2658   */\n      pop\n      jump\t// out\n        /* \"#utility.yul\":2664:2815   */\n    tag_166:\n        /* \"#utility.yul\":2716:2721   */\n      0x00\n        /* \"#utility.yul\":2754:2760   */\n      dup2\n        /* \"#utility.yul\":2741:2761   */\n      calldataload\n        /* \"#utility.yul\":2732:2761   */\n      swap1\n      pop\n        /* \"#utility.yul\":2770:2809   */\n      tag_224\n        /* \"#utility.yul\":2803:2808   */\n      dup2\n        /* \"#utility.yul\":2770:2809   */\n      tag_165\n      jump\t// in\n    tag_224:\n        /* \"#utility.yul\":2664:2815   */\n      swap3\n      swap2\n      pop\n      pop\n      jump\t// out\n        /* \"#utility.yul\":2821:3162   */\n    tag_37:\n        /* \"#utility.yul\":2886:2892   */\n      0x00\n        /* \"#utility.yul\":2935:2937   */\n      0x20\n        /* \"#utility.yul\":2923:2932   */\n      dup3\n        /* \"#utility.yul\":2914:2921   */\n      dup5\n        /* \"#utility.yul\":2910:2933   */\n      sub\n        /* \"#utility.yul\":2906:2938   */\n      slt\n        /* \"#utility.yul\":2903:3022   */\n      iszero\n      tag_226\n      jumpi\n        /* \"#utility.yul\":2941:3020   */\n      tag_227\n      tag_155\n      jump\t// in\n    tag_227:\n        /* \"#utility.yul\":2903:3022   */\n    tag_226:\n        /* \"#utility.yul\":3061:3062   */\n      0x00\n        /* \"#utility.yul\":3086:3145   */\n      tag_228\n        /* \"#utility.yul\":3137:3144   */\n      dup5\n        /* \"#utility.yul\":3128:3134   */\n      dup3\n        /* \"#utility.yul\":3117:3126   */\n      dup6\n        /* \"#utility.yul\":3113:3135   */\n      add\n        /* \"#utility.yul\":3086:3145   */\n      tag_166\n      jump\t// in\n    tag_228:\n        /* \"#utility.yul\":3076:3145   */\n      swap2\n      pop\n        /* \"#utility.yul\":3032:3155   */\n      pop\n        /* \"#utility.yul\":2821:3162   */\n      swap3\n      swap2\n      pop\n      pop\n      jump\t// out\n        /* \"#utility.yul\":3168:3258   */\n    tag_167:\n        /* \"#utility.yul\":3202:3209   */\n      0x00\n        /* \"#utility.yul\":3245:3250   */\n      dup2\n        /* \"#utility.yul\":3238:3251   */\n      iszero\n        /* \"#utility.yul\":3231:3252   */\n      iszero\n        /* \"#utility.yul\":3220:3252   */\n      swap1\n      pop\n        /* \"#utility.yul\":3168:3258   */\n      swap2\n      swap1\n      pop\n      jump\t// out\n        /* \"#utility.yul\":3264:3373   */\n    tag_168:\n        /* \"#utility.yul\":3345:3366   */\n      tag_231\n        /* \"#utility.yul\":3360:3365   */\n      dup2\n        /* \"#utility.yul\":3345:3366   */\n      tag_167\n      jump\t// in\n    tag_231:\n        /* \"#utility.yul\":3340:3343   */\n      dup3\n        /* \"#utility.yul\":3333:3367   */\n      mstore\n        /* \"#utility.yul\":3264:3373   */\n      pop\n      pop\n      jump\t// out\n        /* \"#utility.yul\":3379:3589   */\n    tag_52:\n        /* \"#utility.yul\":3466:3470   */\n      0x00\n        /* \"#utility.yul\":3504:3506   */\n      0x20\n        /* \"#utility.yul\":3493:3502   */\n      dup3\n        /* \"#utility.yul\":3489:3507   */\n      add\n        /* \"#utility.yul\":3481:3507   */\n      swap1\n      pop\n        /* \"#utility.yul\":3517:3582   */\n      tag_233\n        /* \"#utility.yul\":3579:3580   */\n      0x00\n        /* \"#utility.yul\":3568:3577   */\n      dup4\n        /* \"#utility.yul\":3564:3581   */\n      add\n        /* \"#utility.yul\":3555:3561   */\n      dup5\n        /* \"#utility.yul\":3517:3582   */\n      tag_168\n      jump\t// in\n    tag_233:\n        /* \"#utility.yul\":3379:3589   */\n      swap3\n      swap2\n      pop\n      pop\n      jump\t// out\n        /* \"#utility.yul\":3595:3713   */\n    tag_169:\n        /* \"#utility.yul\":3682:3706   */\n      tag_235\n        /* \"#utility.yul\":3700:3705   */\n      dup2\n        /* \"#utility.yul\":3682:3706   */\n      tag_158\n      jump\t// in\n    tag_235:\n        /* \"#utility.yul\":3677:3680   */\n      dup3\n        /* \"#utility.yul\":3670:3707   */\n      mstore\n        /* \"#utility.yul\":3595:3713   */\n      pop\n      pop\n      jump\t// out\n        /* \"#utility.yul\":3719:3941   */\n    tag_63:\n        /* \"#utility.yul\":3812:3816   */\n      0x00\n        /* \"#utility.yul\":3850:3852   */\n      0x20\n        /* \"#utility.yul\":3839:3848   */\n      dup3\n        /* \"#utility.yul\":3835:3853   */\n      add\n        /* \"#utility.yul\":3827:3853   */\n      swap1\n      pop\n        /* \"#utility.yul\":3863:3934   */\n      tag_237\n        /* \"#utility.yul\":3931:3932   */\n      0x00\n        /* \"#utility.yul\":3920:3929   */\n      dup4\n        /* \"#utility.yul\":3916:3933   */\n      add\n        /* \"#utility.yul\":3907:3913   */\n      dup5\n        /* \"#utility.yul\":3863:3934   */\n      tag_169\n      jump\t// in\n    tag_237:\n        /* \"#utility.yul\":3719:3941   */\n      swap3\n      swap2\n      pop\n      pop\n      jump\t// out\n        /* \"#utility.yul\":3947:4116   */\n    tag_170:\n        /* \"#utility.yul\":4031:4042   */\n      0x00\n        /* \"#utility.yul\":4065:4071   */\n      dup3\n        /* \"#utility.yul\":4060:4063   */\n      dup3\n        /* \"#utility.yul\":4053:4072   */\n      mstore\n        /* \"#utility.yul\":4105:4109   */\n      0x20\n        /* \"#utility.yul\":4100:4103   */\n      dup3\n        /* \"#utility.yul\":4096:4110   */\n      add\n        /* \"#utility.yul\":4081:4110   */\n      swap1\n      pop\n        /* \"#utility.yul\":3947:4116   */\n      swap3\n      swap2\n      pop\n      pop\n      jump\t// out\n        /* \"#utility.yul\":4122:4342   */\n    tag_171:\n        /* \"#utility.yul\":4262:4296   */\n      0x4f6e6c79206f776e65722063616e2063616c6c20746869732066756e6374696f\n        /* \"#utility.yul\":4258:4259   */\n      0x00\n        /* \"#utility.yul\":4250:4256   */\n      dup3\n        /* \"#utility.yul\":4246:4260   */\n      add\n        /* \"#utility.yul\":4239:4297   */\n      mstore\n        /* \"#utility.yul\":4331:4334   */\n      0x6e00000000000000000000000000000000000000000000000000000000000000\n        /* \"#utility.yul\":4326:4328   */\n      0x20\n        /* \"#utility.yul\":4318:4324   */\n      dup3\n        /* \"#utility.yul\":4314:4329   */\n      add\n        /* \"#utility.yul\":4307:4335   */\n      mstore\n        /* \"#utility.yul\":4122:4342   */\n      pop\n      jump\t// out\n        /* \"#utility.yul\":4348:4714   */\n    tag_172:\n        /* \"#utility.yul\":4490:4493   */\n      0x00\n        /* \"#utility.yul\":4511:4578   */\n      tag_241\n        /* \"#utility.yul\":4575:4577   */\n      0x21\n        /* \"#utility.yul\":4570:4573   */\n      dup4\n        /* \"#utility.yul\":4511:4578   */\n      tag_170\n      jump\t// in\n    tag_241:\n        /* \"#utility.yul\":4504:4578   */\n      swap2\n      pop\n        /* \"#utility.yul\":4587:4680   */\n      tag_242\n        /* \"#utility.yul\":4676:4679   */\n      dup3\n        /* \"#utility.yul\":4587:4680   */\n      tag_171\n      jump\t// in\n    tag_242:\n        /* \"#utility.yul\":4705:4707   */\n      0x40\n        /* \"#utility.yul\":4700:4703   */\n      dup3\n        /* \"#utility.yul\":4696:4708   */\n      add\n        /* \"#utility.yul\":4689:4708   */\n      swap1\n      pop\n        /* \"#utility.yul\":4348:4714   */\n      swap2\n      swap1\n      pop\n      jump\t// out\n        /* \"#utility.yul\":4720:5139   */\n    tag_75:\n        /* \"#utility.yul\":4886:4890   */\n      0x00\n        /* \"#utility.yul\":4924:4926   */\n      0x20\n        /* \"#utility.yul\":4913:4922   */\n      dup3\n        /* \"#utility.yul\":4909:4927   */\n      add\n        /* \"#utility.yul\":4901:4927   */\n      swap1\n      pop\n        /* \"#utility.yul\":4973:4982   */\n      dup2\n        /* \"#utility.yul\":4967:4971   */\n      dup2\n        /* \"#utility.yul\":4963:4983   */\n      sub\n        /* \"#utility.yul\":4959:4960   */\n      0x00\n        /* \"#utility.yul\":4948:4957   */\n      dup4\n        /* \"#utility.yul\":4944:4961   */\n      add\n        /* \"#utility.yul\":4937:4984   */\n      mstore\n        /* \"#utility.yul\":5001:5132   */\n      tag_244\n        /* \"#utility.yul\":5127:5131   */\n      dup2\n        /* \"#utility.yul\":5001:5132   */\n      tag_172\n      jump\t// in\n    tag_244:\n        /* \"#utility.yul\":4993:5132   */\n      swap1\n      pop\n        /* \"#utility.yul\":4720:5139   */\n      swap2\n      swap1\n      pop\n      jump\t// out\n        /* \"#utility.yul\":5145:5317   */\n    tag_173:\n        /* \"#utility.yul\":5285:5309   */\n      0x4e6f2062616c616e636520746f20776974686472617700000000000000000000\n        /* \"#utility.yul\":5281:5282   */\n      0x00\n        /* \"#utility.yul\":5273:5279   */\n      dup3\n        /* \"#utility.yul\":5269:5283   */\n      add\n        /* \"#utility.yul\":5262:5310   */\n      mstore\n        /* \"#utility.yul\":5145:5317   */\n      pop\n      jump\t// out\n        /* \"#utility.yul\":5323:5689   */\n    tag_174:\n        /* \"#utility.yul\":5465:5468   */\n      0x00\n        /* \"#utility.yul\":5486:5553   */\n      tag_247\n        /* \"#utility.yul\":5550:5552   */\n      0x16\n        /* \"#utility.yul\":5545:5548   */\n      dup4\n        /* \"#utility.yul\":5486:5553   */\n      tag_170\n      jump\t// in\n    tag_247:\n        /* \"#utility.yul\":5479:5553   */\n      swap2\n      pop\n        /* \"#utility.yul\":5562:5655   */\n      tag_248\n        /* \"#utility.yul\":5651:5654   */\n      dup3\n        /* \"#utility.yul\":5562:5655   */\n      tag_173\n      jump\t// in\n    tag_248:\n        /* \"#utility.yul\":5680:5682   */\n      0x20\n        /* \"#utility.yul\":5675:5678   */\n      dup3\n        /* \"#utility.yul\":5671:5683   */\n      add\n        /* \"#utility.yul\":5664:5683   */\n      swap1\n      pop\n        /* \"#utility.yul\":5323:5689   */\n      swap2\n      swap1\n      pop\n      jump\t// out\n        /* \"#utility.yul\":5695:6114   */\n    tag_79:\n        /* \"#utility.yul\":5861:5865   */\n      0x00\n        /* \"#utility.yul\":5899:5901   */\n      0x20\n        /* \"#utility.yul\":5888:5897   */\n      dup3\n        /* \"#utility.yul\":5884:5902   */\n      add\n        /* \"#utility.yul\":5876:5902   */\n      swap1\n      pop\n        /* \"#utility.yul\":5948:5957   */\n      dup2\n        /* \"#utility.yul\":5942:5946   */\n      dup2\n        /* \"#utility.yul\":5938:5958   */\n      sub\n        /* \"#utility.yul\":5934:5935   */\n      0x00\n        /* \"#utility.yul\":5923:5932   */\n      dup4\n        /* \"#utility.yul\":5919:5936   */\n      add\n        /* \"#utility.yul\":5912:5959   */\n      mstore\n        /* \"#utility.yul\":5976:6107   */\n      tag_250\n        /* \"#utility.yul\":6102:6106   */\n      dup2\n        /* \"#utility.yul\":5976:6107   */\n      tag_174\n      jump\t// in\n    tag_250:\n        /* \"#utility.yul\":5968:6107   */\n      swap1\n      pop\n        /* \"#utility.yul\":5695:6114   */\n      swap2\n      swap1\n      pop\n      jump\t// out\n        /* \"#utility.yul\":6120:6267   */\n    tag_175:\n        /* \"#utility.yul\":6221:6232   */\n      0x00\n        /* \"#utility.yul\":6258:6261   */\n      dup2\n        /* \"#utility.yul\":6243:6261   */\n      swap1\n      pop\n        /* \"#utility.yul\":6120:6267   */\n      swap3\n      swap2\n      pop\n      pop\n      jump\t// out\n        /* \"#utility.yul\":6273:6387   */\n    tag_176:\n      pop\n      jump\t// out\n        /* \"#utility.yul\":6393:6791   */\n    tag_177:\n        /* \"#utility.yul\":6552:6555   */\n      0x00\n        /* \"#utility.yul\":6573:6656   */\n      tag_254\n        /* \"#utility.yul\":6654:6655   */\n      0x00\n        /* \"#utility.yul\":6649:6652   */\n      dup4\n        /* \"#utility.yul\":6573:6656   */\n      tag_175\n      jump\t// in\n    tag_254:\n        /* \"#utility.yul\":6566:6656   */\n      swap2\n      pop\n        /* \"#utility.yul\":6665:6758   */\n      tag_255\n        /* \"#utility.yul\":6754:6757   */\n      dup3\n        /* \"#utility.yul\":6665:6758   */\n      tag_176\n      jump\t// in\n    tag_255:\n        /* \"#utility.yul\":6783:6784   */\n      0x00\n        /* \"#utility.yul\":6778:6781   */\n      dup3\n        /* \"#utility.yul\":6774:6785   */\n      add\n        /* \"#utility.yul\":6767:6785   */\n      swap1\n      pop\n        /* \"#utility.yul\":6393:6791   */\n      swap2\n      swap1\n      pop\n      jump\t// out\n        /* \"#utility.yul\":6797:7176   */\n    tag_81:\n        /* \"#utility.yul\":6981:6984   */\n      0x00\n        /* \"#utility.yul\":7003:7150   */\n      tag_257\n        /* \"#utility.yul\":7146:7149   */\n      dup3\n        /* \"#utility.yul\":7003:7150   */\n      tag_177\n      jump\t// in\n    tag_257:\n        /* \"#utility.yul\":6996:7150   */\n      swap2\n      pop\n        /* \"#utility.yul\":7167:7170   */\n      dup2\n        /* \"#utility.yul\":7160:7170   */\n      swap1\n      pop\n        /* \"#utility.yul\":6797:7176   */\n      swap2\n      swap1\n      pop\n      jump\t// out\n        /* \"#utility.yul\":7182:7349   */\n    tag_178:\n        /* \"#utility.yul\":7322:7341   */\n      0x5769746864726177616c206661696c6564000000000000000000000000000000\n        /* \"#utility.yul\":7318:7319   */\n      0x00\n        /* \"#utility.yul\":7310:7316   */\n      dup3\n        /* \"#utility.yul\":7306:7320   */\n      add\n        /* \"#utility.yul\":7299:7342   */\n      mstore\n        /* \"#utility.yul\":7182:7349   */\n      pop\n      jump\t// out\n        /* \"#utility.yul\":7355:7721   */\n    tag_179:\n        /* \"#utility.yul\":7497:7500   */\n      0x00\n        /* \"#utility.yul\":7518:7585   */\n      tag_260\n        /* \"#utility.yul\":7582:7584   */\n      0x11\n        /* \"#utility.yul\":7577:7580   */\n      dup4\n        /* \"#utility.yul\":7518:7585   */\n      tag_170\n      jump\t// in\n    tag_260:\n        /* \"#utility.yul\":7511:7585   */\n      swap2\n      pop\n        /* \"#utility.yul\":7594:7687   */\n      tag_261\n        /* \"#utility.yul\":7683:7686   */\n      dup3\n        /* \"#utility.yul\":7594:7687   */\n      tag_178\n      jump\t// in\n    tag_261:\n        /* \"#utility.yul\":7712:7714   */\n      0x20\n        /* \"#utility.yul\":7707:7710   */\n      dup3\n        /* \"#utility.yul\":7703:7715   */\n      add\n        /* \"#utility.yul\":7696:7715   */\n      swap1\n      pop\n        /* \"#utility.yul\":7355:7721   */\n      swap2\n      swap1\n      pop\n      jump\t// out\n        /* \"#utility.yul\":7727:8146   */\n    tag_87:\n        /* \"#utility.yul\":7893:7897   */\n      0x00\n        /* \"#utility.yul\":7931:7933   */\n      0x20\n        /* \"#utility.yul\":7920:7929   */\n      dup3\n        /* \"#utility.yul\":7916:7934   */\n      add\n        /* \"#utility.yul\":7908:7934   */\n      swap1\n      pop\n        /* \"#utility.yul\":7980:7989   */\n      dup2\n        /* \"#utility.yul\":7974:7978   */\n      dup2\n        /* \"#utility.yul\":7970:7990   */\n      sub\n        /* \"#utility.yul\":7966:7967   */\n      0x00\n        /* \"#utility.yul\":7955:7964   */\n      dup4\n        /* \"#utility.yul\":7951:7968   */\n      add\n        /* \"#utility.yul\":7944:7991   */\n      mstore\n        /* \"#utility.yul\":8008:8139   */\n      tag_263\n        /* \"#utility.yul\":8134:8138   */\n      dup2\n        /* \"#utility.yul\":8008:8139   */\n      tag_179\n      jump\t// in\n    tag_263:\n        /* \"#utility.yul\":8000:8139   */\n      swap1\n      pop\n        /* \"#utility.yul\":7727:8146   */\n      swap2\n      swap1\n      pop\n      jump\t// out\n        /* \"#utility.yul\":8152:8332   */\n    tag_180:\n        /* \"#utility.yul\":8200:8277   */\n      0x4e487b7100000000000000000000000000000000000000000000000000000000\n        /* \"#utility.yul\":8197:8198   */\n      0x00\n        /* \"#utility.yul\":8190:8278   */\n      mstore\n        /* \"#utility.yul\":8297:8301   */\n      0x11\n        /* \"#utility.yul\":8294:8295   */\n      0x04\n        /* \"#utility.yul\":8287:8302   */\n      mstore\n        /* \"#utility.yul\":8321:8325   */\n      0x24\n        /* \"#utility.yul\":8318:8319   */\n      0x00\n        /* \"#utility.yul\":8311:8326   */\n      revert\n        /* \"#utility.yul\":8338:8532   */\n    tag_92:\n        /* \"#utility.yul\":8378:8382   */\n      0x00\n        /* \"#utility.yul\":8398:8418   */\n      tag_266\n        /* \"#utility.yul\":8416:8417   */\n      dup3\n        /* \"#utility.yul\":8398:8418   */\n      tag_152\n      jump\t// in\n    tag_266:\n        /* \"#utility.yul\":8393:8418   */\n      swap2\n      pop\n        /* \"#utility.yul\":8432:8452   */\n      tag_267\n        /* \"#utility.yul\":8450:8451   */\n      dup4\n        /* \"#utility.yul\":8432:8452   */\n      tag_152\n      jump\t// in\n    tag_267:\n        /* \"#utility.yul\":8427:8452   */\n      swap3\n      pop\n        /* \"#utility.yul\":8476:8477   */\n      dup3\n        /* \"#utility.yul\":8473:8474   */\n      dup3\n        /* \"#utility.yul\":8469:8478   */\n      sub\n        /* \"#utility.yul\":8461:8478   */\n      swap1\n      pop\n        /* \"#utility.yul\":8500:8501   */\n      dup2\n        /* \"#utility.yul\":8494:8498   */\n      dup2\n        /* \"#utility.yul\":8491:8502   */\n      gt\n        /* \"#utility.yul\":8488:8525   */\n      iszero\n      tag_268\n      jumpi\n        /* \"#utility.yul\":8505:8523   */\n      tag_269\n      tag_180\n      jump\t// in\n    tag_269:\n        /* \"#utility.yul\":8488:8525   */\n    tag_268:\n        /* \"#utility.yul\":8338:8532   */\n      swap3\n      swap2\n      pop\n      pop\n      jump\t// out\n        /* \"#utility.yul\":8538:8719   */\n    tag_181:\n        /* \"#utility.yul\":8678:8711   */\n      0x457861637420737562736372697074696f6e2066656520726571756972656400\n        /* \"#utility.yul\":8674:8675   */\n      0x00\n        /* \"#utility.yul\":8666:8672   */\n      dup3\n        /* \"#utility.yul\":8662:8676   */\n      add\n        /* \"#utility.yul\":8655:8712   */\n      mstore\n        /* \"#utility.yul\":8538:8719   */\n      pop\n      jump\t// out\n        /* \"#utility.yul\":8725:9091   */\n    tag_182:\n        /* \"#utility.yul\":8867:8870   */\n      0x00\n        /* \"#utility.yul\":8888:8955   */\n      tag_272\n        /* \"#utility.yul\":8952:8954   */\n      0x1f\n        /* \"#utility.yul\":8947:8950   */\n      dup4\n        /* \"#utility.yul\":8888:8955   */\n      tag_170\n      jump\t// in\n    tag_272:\n        /* \"#utility.yul\":8881:8955   */\n      swap2\n      pop\n        /* \"#utility.yul\":8964:9057   */\n      tag_273\n        /* \"#utility.yul\":9053:9056   */\n      dup3\n        /* \"#utility.yul\":8964:9057   */\n      tag_181\n      jump\t// in\n    tag_273:\n        /* \"#utility.yul\":9082:9084   */\n      0x20\n        /* \"#utility.yul\":9077:9080   */\n      dup3\n        /* \"#utility.yul\":9073:9085   */\n      add\n        /* \"#utility.yul\":9066:9085   */\n      swap1\n      pop\n        /* \"#utility.yul\":8725:9091   */\n      swap2\n      swap1\n      pop\n      jump\t// out\n        /* \"#utility.yul\":9097:9516   */\n    tag_111:\n        /* \"#utility.yul\":9263:9267   */\n      0x00\n        /* \"#utility.yul\":9301:9303   */\n      0x20\n        /* \"#utility.yul\":9290:9299   */\n      dup3\n        /* \"#utility.yul\":9286:9304   */\n      add\n        /* \"#utility.yul\":9278:9304   */\n      swap1\n      pop\n        /* \"#utility.yul\":9350:9359   */\n      dup2\n        /* \"#utility.yul\":9344:9348   */\n      dup2\n        /* \"#utility.yul\":9340:9360   */\n      sub\n        /* \"#utility.yul\":9336:9337   */\n      0x00\n        /* \"#utility.yul\":9325:9334   */\n      dup4\n        /* \"#utility.yul\":9321:9338   */\n      add\n        /* \"#utility.yul\":9314:9361   */\n      mstore\n        /* \"#utility.yul\":9378:9509   */\n      tag_275\n        /* \"#utility.yul\":9504:9508   */\n      dup2\n        /* \"#utility.yul\":9378:9509   */\n      tag_182\n      jump\t// in\n    tag_275:\n        /* \"#utility.yul\":9370:9509   */\n      swap1\n      pop\n        /* \"#utility.yul\":9097:9516   */\n      swap2\n      swap1\n      pop\n      jump\t// out\n        /* \"#utility.yul\":9522:9713   */\n    tag_114:\n        /* \"#utility.yul\":9562:9565   */\n      0x00\n        /* \"#utility.yul\":9581:9601   */\n      tag_277\n        /* \"#utility.yul\":9599:9600   */\n      dup3\n        /* \"#utility.yul\":9581:9601   */\n      tag_152\n      jump\t// in\n    tag_277:\n        /* \"#utility.yul\":9576:9601   */\n      swap2\n      pop\n        /* \"#utility.yul\":9615:9635   */\n      tag_278\n        /* \"#utility.yul\":9633:9634   */\n      dup4\n        /* \"#utility.yul\":9615:9635   */\n      tag_152\n      jump\t// in\n    tag_278:\n        /* \"#utility.yul\":9610:9635   */\n      swap3\n      pop\n        /* \"#utility.yul\":9658:9659   */\n      dup3\n        /* \"#utility.yul\":9655:9656   */\n      dup3\n        /* \"#utility.yul\":9651:9660   */\n      add\n        /* \"#utility.yul\":9644:9660   */\n      swap1\n      pop\n        /* \"#utility.yul\":9679:9682   */\n      dup1\n        /* \"#utility.yul\":9676:9677   */\n      dup3\n        /* \"#utility.yul\":9673:9683   */\n      gt\n        /* \"#utility.yul\":9670:9706   */\n      iszero\n      tag_279\n      jumpi\n        /* \"#utility.yul\":9686:9704   */\n      tag_280\n      tag_180\n      jump\t// in\n    tag_280:\n        /* \"#utility.yul\":9670:9706   */\n    tag_279:\n        /* \"#utility.yul\":9522:9713   */\n      swap3\n      swap2\n      pop\n      pop\n      jump\t// out\n        /* \"#utility.yul\":9719:10059   */\n    tag_120:\n        /* \"#utility.yul\":9844:9848   */\n      0x00\n        /* \"#utility.yul\":9882:9884   */\n      0x40\n        /* \"#utility.yul\":9871:9880   */\n      dup3\n        /* \"#utility.yul\":9867:9885   */\n      add\n        /* \"#utility.yul\":9859:9885   */\n      swap1\n      pop\n        /* \"#utility.yul\":9895:9966   */\n      tag_282\n        /* \"#utility.yul\":9963:9964   */\n      0x00\n        /* \"#utility.yul\":9952:9961   */\n      dup4\n        /* \"#utility.yul\":9948:9965   */\n      add\n        /* \"#utility.yul\":9939:9945   */\n      dup6\n        /* \"#utility.yul\":9895:9966   */\n      tag_153\n      jump\t// in\n    tag_282:\n        /* \"#utility.yul\":9976:10052   */\n      tag_283\n        /* \"#utility.yul\":10048:10050   */\n      0x20\n        /* \"#utility.yul\":10037:10046   */\n      dup4\n        /* \"#utility.yul\":10033:10051   */\n      add\n        /* \"#utility.yul\":10024:10030   */\n      dup5\n        /* \"#utility.yul\":9976:10052   */\n      tag_164\n      jump\t// in\n    tag_283:\n        /* \"#utility.yul\":9719:10059   */\n      swap4\n      swap3\n      pop\n      pop\n      pop\n      jump\t// out\n        /* \"#utility.yul\":10065:10243   */\n    tag_183:\n        /* \"#utility.yul\":10205:10235   */\n      0x4e6f2061637469766520737562736372697074696f6e20666f756e6400000000\n        /* \"#utility.yul\":10201:10202   */\n      0x00\n        /* \"#utility.yul\":10193:10199   */\n      dup3\n        /* \"#utility.yul\":10189:10203   */\n      add\n        /* \"#utility.yul\":10182:10236   */\n      mstore\n        /* \"#utility.yul\":10065:10243   */\n      pop\n      jump\t// out\n        /* \"#utility.yul\":10249:10615   */\n    tag_184:\n        /* \"#utility.yul\":10391:10394   */\n      0x00\n        /* \"#utility.yul\":10412:10479   */\n      tag_286\n        /* \"#utility.yul\":10476:10478   */\n      0x1c\n        /* \"#utility.yul\":10471:10474   */\n      dup4\n        /* \"#utility.yul\":10412:10479   */\n      tag_170\n      jump\t// in\n    tag_286:\n        /* \"#utility.yul\":10405:10479   */\n      swap2\n      pop\n        /* \"#utility.yul\":10488:10581   */\n      tag_287\n        /* \"#utility.yul\":10577:10580   */\n      dup3\n        /* \"#utility.yul\":10488:10581   */\n      tag_183\n      jump\t// in\n    tag_287:\n        /* \"#utility.yul\":10606:10608   */\n      0x20\n        /* \"#utility.yul\":10601:10604   */\n      dup3\n        /* \"#utility.yul\":10597:10609   */\n      add\n        /* \"#utility.yul\":10590:10609   */\n      swap1\n      pop\n        /* \"#utility.yul\":10249:10615   */\n      swap2\n      swap1\n      pop\n      jump\t// out\n        /* \"#utility.yul\":10621:11040   */\n    tag_125:\n        /* \"#utility.yul\":10787:10791   */\n      0x00\n        /* \"#utility.yul\":10825:10827   */\n      0x20\n        /* \"#utility.yul\":10814:10823   */\n      dup3\n        /* \"#utility.yul\":10810:10828   */\n      add\n        /* \"#utility.yul\":10802:10828   */\n      swap1\n      pop\n        /* \"#utility.yul\":10874:10883   */\n      dup2\n        /* \"#utility.yul\":10868:10872   */\n      dup2\n        /* \"#utility.yul\":10864:10884   */\n      sub\n        /* \"#utility.yul\":10860:10861   */\n      0x00\n        /* \"#utility.yul\":10849:10858   */\n      dup4\n        /* \"#utility.yul\":10845:10862   */\n      add\n        /* \"#utility.yul\":10838:10885   */\n      mstore\n        /* \"#utility.yul\":10902:11033   */\n      tag_289\n        /* \"#utility.yul\":11028:11032   */\n      dup2\n        /* \"#utility.yul\":10902:11033   */\n      tag_184\n      jump\t// in\n    tag_289:\n        /* \"#utility.yul\":10894:11033   */\n      swap1\n      pop\n        /* \"#utility.yul\":10621:11040   */\n      swap2\n      swap1\n      pop\n      jump\t// out\n        /* \"#utility.yul\":11046:11456   */\n    tag_143:\n        /* \"#utility.yul\":11086:11093   */\n      0x00\n        /* \"#utility.yul\":11109:11129   */\n      tag_291\n        /* \"#utility.yul\":11127:11128   */\n      dup3\n        /* \"#utility.yul\":11109:11129   */\n      tag_152\n      jump\t// in\n    tag_291:\n        /* \"#utility.yul\":11104:11129   */\n      swap2\n      pop\n        /* \"#utility.yul\":11143:11163   */\n      tag_292\n        /* \"#utility.yul\":11161:11162   */\n      dup4\n        /* \"#utility.yul\":11143:11163   */\n      tag_152\n      jump\t// in\n    tag_292:\n        /* \"#utility.yul\":11138:11163   */\n      swap3\n      pop\n        /* \"#utility.yul\":11198:11199   */\n      dup3\n        /* \"#utility.yul\":11195:11196   */\n      dup3\n        /* \"#utility.yul\":11191:11200   */\n      mul\n        /* \"#utility.yul\":11220:11250   */\n      tag_293\n        /* \"#utility.yul\":11238:11249   */\n      dup2\n        /* \"#utility.yul\":11220:11250   */\n      tag_152\n      jump\t// in\n    tag_293:\n        /* \"#utility.yul\":11209:11250   */\n      swap2\n      pop\n        /* \"#utility.yul\":11399:11400   */\n      dup3\n        /* \"#utility.yul\":11390:11397   */\n      dup3\n        /* \"#utility.yul\":11386:11401   */\n      div\n        /* \"#utility.yul\":11383:11384   */\n      dup5\n        /* \"#utility.yul\":11380:11402   */\n      eq\n        /* \"#utility.yul\":11360:11361   */\n      dup4\n        /* \"#utility.yul\":11353:11362   */\n      iszero\n        /* \"#utility.yul\":11333:11416   */\n      or\n        /* \"#utility.yul\":11310:11449   */\n      tag_294\n      jumpi\n        /* \"#utility.yul\":11429:11447   */\n      tag_295\n      tag_180\n      jump\t// in\n    tag_295:\n        /* \"#utility.yul\":11310:11449   */\n    tag_294:\n        /* \"#utility.yul\":11094:11456   */\n      pop\n        /* \"#utility.yul\":11046:11456   */\n      swap3\n      swap2\n      pop\n      pop\n      jump\t// out\n        /* \"#utility.yul\":11462:11642   */\n    tag_185:\n        /* \"#utility.yul\":11510:11587   */\n      0x4e487b7100000000000000000000000000000000000000000000000000000000\n        /* \"#utility.yul\":11507:11508   */\n      0x00\n        /* \"#utility.yul\":11500:11588   */\n      mstore\n        /* \"#utility.yul\":11607:11611   */\n      0x12\n        /* \"#utility.yul\":11604:11605   */\n      0x04\n        /* \"#utility.yul\":11597:11612   */\n      mstore\n        /* \"#utility.yul\":11631:11635   */\n      0x24\n        /* \"#utility.yul\":11628:11629   */\n      0x00\n        /* \"#utility.yul\":11621:11636   */\n      revert\n        /* \"#utility.yul\":11648:11833   */\n    tag_145:\n        /* \"#utility.yul\":11688:11689   */\n      0x00\n        /* \"#utility.yul\":11705:11725   */\n      tag_298\n        /* \"#utility.yul\":11723:11724   */\n      dup3\n        /* \"#utility.yul\":11705:11725   */\n      tag_152\n      jump\t// in\n    tag_298:\n        /* \"#utility.yul\":11700:11725   */\n      swap2\n      pop\n        /* \"#utility.yul\":11739:11759   */\n      tag_299\n        /* \"#utility.yul\":11757:11758   */\n      dup4\n        /* \"#utility.yul\":11739:11759   */\n      tag_152\n      jump\t// in\n    tag_299:\n        /* \"#utility.yul\":11734:11759   */\n      swap3\n      pop\n        /* \"#utility.yul\":11778:11779   */\n      dup3\n        /* \"#utility.yul\":11768:11803   */\n      tag_300\n      jumpi\n        /* \"#utility.yul\":11783:11801   */\n      tag_301\n      tag_185\n      jump\t// in\n    tag_301:\n        /* \"#utility.yul\":11768:11803   */\n    tag_300:\n        /* \"#utility.yul\":11825:11826   */\n      dup3\n        /* \"#utility.yul\":11822:11823   */\n      dup3\n        /* \"#utility.yul\":11818:11827   */\n      div\n        /* \"#utility.yul\":11813:11827   */\n      swap1\n      pop\n        /* \"#utility.yul\":11648:11833   */\n      swap3\n      swap2\n      pop\n      pop\n      jump\t// out\n        /* \"#utility.yul\":11839:12015   */\n    tag_186:\n        /* \"#utility.yul\":11979:12007   */\n      0x45786163742072656e6577616c20666565207265717569726564000000000000\n        /* \"#utility.yul\":11975:11976   */\n      0x00\n        /* \"#utility.yul\":11967:11973   */\n      dup3\n        /* \"#utility.yul\":11963:11977   */\n      add\n        /* \"#utility.yul\":11956:12008   */\n      mstore\n        /* \"#utility.yul\":11839:12015   */\n      pop\n      jump\t// out\n        /* \"#utility.yul\":12021:12387   */\n    tag_187:\n        /* \"#utility.yul\":12163:12166   */\n      0x00\n        /* \"#utility.yul\":12184:12251   */\n      tag_304\n        /* \"#utility.yul\":12248:12250   */\n      0x1a\n        /* \"#utility.yul\":12243:12246   */\n      dup4\n        /* \"#utility.yul\":12184:12251   */\n      tag_170\n      jump\t// in\n    tag_304:\n        /* \"#utility.yul\":12177:12251   */\n      swap2\n      pop\n        /* \"#utility.yul\":12260:12353   */\n      tag_305\n        /* \"#utility.yul\":12349:12352   */\n      dup3\n        /* \"#utility.yul\":12260:12353   */\n      tag_186\n      jump\t// in\n    tag_305:\n        /* \"#utility.yul\":12378:12380   */\n      0x20\n        /* \"#utility.yul\":12373:12376   */\n      dup3\n        /* \"#utility.yul\":12369:12381   */\n      add\n        /* \"#utility.yul\":12362:12381   */\n      swap1\n      pop\n        /* \"#utility.yul\":12021:12387   */\n      swap2\n      swap1\n      pop\n      jump\t// out\n        /* \"#utility.yul\":12393:12812   */\n    tag_149:\n        /* \"#utility.yul\":12559:12563   */\n      0x00\n        /* \"#utility.yul\":12597:12599   */\n      0x20\n        /* \"#utility.yul\":12586:12595   */\n      dup3\n        /* \"#utility.yul\":12582:12600   */\n      add\n        /* \"#utility.yul\":12574:12600   */\n      swap1\n      pop\n        /* \"#utility.yul\":12646:12655   */\n      dup2\n        /* \"#utility.yul\":12640:12644   */\n      dup2\n        /* \"#utility.yul\":12636:12656   */\n      sub\n        /* \"#utility.yul\":12632:12633   */\n      0x00\n        /* \"#utility.yul\":12621:12630   */\n      dup4\n        /* \"#utility.yul\":12617:12634   */\n      add\n        /* \"#utility.yul\":12610:12657   */\n      mstore\n        /* \"#utility.yul\":12674:12805   */\n      tag_307\n        /* \"#utility.yul\":12800:12804   */\n      dup2\n        /* \"#utility.yul\":12674:12805   */\n      tag_187\n      jump\t// in\n    tag_307:\n        /* \"#utility.yul\":12666:12805   */\n      swap1\n      pop\n        /* \"#utility.yul\":12393:12812   */\n      swap2\n      swap1\n      pop\n      jump\t// out\n\n    auxdata: 0xa26469706673582212207abf5807eccb9bd62491c8f3b8e2c4a054c70ca0990f896416ffcb53fc1064a564736f6c634300081a0033\n}\n",
				"bytecode": {
					"linkReferences": {},
					"object": "6080604052662386f26fc1000060015566b1a2bc2ec5000060025562278d006003556276a700600455600a600555348015603857600080fd5b50336000806101000a81548173ffffffffffffffffffffffffffffffffffffffff021916908373ffffffffffffffffffffffffffffffffffffffff1602179055506112c7806100886000396000f3fe6080604052600436106100c25760003560e01c806360a85ef51161007f5780637e9a7f2f116100595780637e9a7f2f146102165780638da5cb5b14610241578063b6aeecf11461026c578063cdad47be14610297576100c2565b806360a85ef5146101a45780636e2e9c18146101e15780636e3079811461020c576100c2565b8063209c9523146100c757806324600fc3146100f2578063311af42c146101095780634320a87f1461012057806349c7e6391461015d578063572ed5ad14610179575b600080fd5b3480156100d357600080fd5b506100dc6102c2565b6040516100e99190610c3b565b60405180910390f35b3480156100fe57600080fd5b506101076102c8565b005b34801561011557600080fd5b5061011e61046f565b005b34801561012c57600080fd5b5061014760048036038101906101429190610cb9565b610568565b6040516101549190610d5d565b60405180910390f35b61017760048036038101906101729190610d9d565b610588565b005b34801561018557600080fd5b5061018e6107e8565b60405161019b9190610c3b565b60405180910390f35b3480156101b057600080fd5b506101cb60048036038101906101c69190610cb9565b6107ee565b6040516101d89190610c3b565b60405180910390f35b3480156101ed57600080fd5b506101f6610806565b6040516102039190610de5565b60405180910390f35b610214610850565b005b34801561022257600080fd5b5061022b610bec565b6040516102389190610c3b565b60405180910390f35b34801561024d57600080fd5b50610256610bf2565b6040516102639190610e0f565b60405180910390f35b34801561027857600080fd5b50610281610c16565b60405161028e9190610c3b565b60405180910390f35b3480156102a357600080fd5b506102ac610c1c565b6040516102b99190610c3b565b60405180910390f35b60025481565b60008054906101000a900473ffffffffffffffffffffffffffffffffffffffff1673ffffffffffffffffffffffffffffffffffffffff163373ffffffffffffffffffffffffffffffffffffffff1614610356576040517f08c379a000000000000000000000000000000000000000000000000000000000815260040161034d90610ead565b60405180910390fd5b60004790506000811161039e576040517f08c379a000000000000000000000000000000000000000000000000000000000815260040161039590610f19565b60405180910390fd5b60008060009054906101000a900473ffffffffffffffffffffffffffffffffffffffff1673ffffffffffffffffffffffffffffffffffffffff16826040516103e590610f6a565b60006040518083038185875af1925050503d8060008114610422576040519150601f19603f3d011682016040523d82523d6000602084013e610427565b606091505b505090508061046b576040517f08c379a000000000000000000000000000000000000000000000000000000000815260040161046290610fcb565b60405180910390fd5b5050565b600042600660003373ffffffffffffffffffffffffffffffffffffffff1673ffffffffffffffffffffffffffffffffffffffff16815260200190815260200160002054116104be57600061050a565b42600660003373ffffffffffffffffffffffffffffffffffffffff1673ffffffffffffffffffffffffffffffffffffffff16815260200190815260200160002054610509919061101a565b5b90506203f4808111610565573373ffffffffffffffffffffffffffffffffffffffff167f2b8a90e8196fed5a9a7bc85fc29928e0d14fff6f07b2d5c6c26b28d4011a6d928260405161055c9190610c3b565b60405180910390a25b50565b60076020528060005260406000206000915054906101000a900460ff1681565b600080600181111561059d5761059c610ce6565b5b8260018111156105b0576105af610ce6565b5b146105bd576002546105c1565b6001545b905060008060018111156105d8576105d7610ce6565b5b8360018111156105eb576105ea610ce6565b5b146105f8576004546105fc565b6003545b9050813414610640576040517f08c379a00000000000000000000000000000000000000000000000000000000081526004016106379061109a565b60405180910390fd5b600042600660003373ffffffffffffffffffffffffffffffffffffffff1673ffffffffffffffffffffffffffffffffffffffff168152602001908152602001600020541161069957814261069491906110ba565b6106e5565b81600660003373ffffffffffffffffffffffffffffffffffffffff1673ffffffffffffffffffffffffffffffffffffffff168152602001908152602001600020546106e491906110ba565b5b905080600660003373ffffffffffffffffffffffffffffffffffffffff1673ffffffffffffffffffffffffffffffffffffffff1681526020019081526020016000208190555083600760003373ffffffffffffffffffffffffffffffffffffffff1673ffffffffffffffffffffffffffffffffffffffff16815260200190815260200160002060006101000a81548160ff0219169083600181111561078d5761078c610ce6565b5b02179055503373ffffffffffffffffffffffffffffffffffffffff167f06059ce9e97ca3eb8aa8f26fb51cd5bec5fae8e8198add1a7a16b03efc459f7482866040516107da9291906110ee565b60405180910390a250505050565b60035481565b60066020528060005260406000206000915090505481565b6000600660003373ffffffffffffffffffffffffffffffffffffffff1673ffffffffffffffffffffffffffffffffffffffff16815260200190815260200160002054421115905090565b6000600660003373ffffffffffffffffffffffffffffffffffffffff1673ffffffffffffffffffffffffffffffffffffffff16815260200190815260200160002054116108d2576040517f08c379a00000000000000000000000000000000000000000000000000000000081526004016108c990611163565b60405180910390fd5b600042600660003373ffffffffffffffffffffffffffffffffffffffff1673ffffffffffffffffffffffffffffffffffffffff168152602001908152602001600020541161092157600061096d565b42600660003373ffffffffffffffffffffffffffffffffffffffff1673ffffffffffffffffffffffffffffffffffffffff1681526020019081526020016000205461096c919061101a565b5b9050600080600181111561098457610983610ce6565b5b600760003373ffffffffffffffffffffffffffffffffffffffff1673ffffffffffffffffffffffffffffffffffffffff16815260200190815260200160002060009054906101000a900460ff1660018111156109e3576109e2610ce6565b5b146109f0576002546109f4565b6001545b90506000806001811115610a0b57610a0a610ce6565b5b600760003373ffffffffffffffffffffffffffffffffffffffff1673ffffffffffffffffffffffffffffffffffffffff16815260200190815260200160002060009054906101000a900460ff166001811115610a6a57610a69610ce6565b5b14610a7757600454610a7b565b6003545b90506000831115610ab4576000606460055484610a989190611183565b610aa291906111f4565b90508083610ab0919061101a565b9250505b813414610af6576040517f08c379a0000000000000000000000000000000000000000000000000000000008152600401610aed90611271565b60405180910390fd5b60008142610b0491906110ba565b905080600660003373ffffffffffffffffffffffffffffffffffffffff1673ffffffffffffffffffffffffffffffffffffffff168152602001908152602001600020819055503373ffffffffffffffffffffffffffffffffffffffff167f06059ce9e97ca3eb8aa8f26fb51cd5bec5fae8e8198add1a7a16b03efc459f7482600760003373ffffffffffffffffffffffffffffffffffffffff1673ffffffffffffffffffffffffffffffffffffffff16815260200190815260200160002060009054906101000a900460ff16604051610bde9291906110ee565b60405180910390a250505050565b60045481565b60008054906101000a900473ffffffffffffffffffffffffffffffffffffffff1681565b60015481565b60055481565b6000819050919050565b610c3581610c22565b82525050565b6000602082019050610c506000830184610c2c565b92915050565b600080fd5b600073ffffffffffffffffffffffffffffffffffffffff82169050919050565b6000610c8682610c5b565b9050919050565b610c9681610c7b565b8114610ca157600080fd5b50565b600081359050610cb381610c8d565b92915050565b600060208284031215610ccf57610cce610c56565b5b6000610cdd84828501610ca4565b91505092915050565b7f4e487b7100000000000000000000000000000000000000000000000000000000600052602160045260246000fd5b60028110610d2657610d25610ce6565b5b50565b6000819050610d3782610d15565b919050565b6000610d4782610d29565b9050919050565b610d5781610d3c565b82525050565b6000602082019050610d726000830184610d4e565b92915050565b60028110610d8557600080fd5b50565b600081359050610d9781610d78565b92915050565b600060208284031215610db357610db2610c56565b5b6000610dc184828501610d88565b91505092915050565b60008115159050919050565b610ddf81610dca565b82525050565b6000602082019050610dfa6000830184610dd6565b92915050565b610e0981610c7b565b82525050565b6000602082019050610e246000830184610e00565b92915050565b600082825260208201905092915050565b7f4f6e6c79206f776e65722063616e2063616c6c20746869732066756e6374696f60008201527f6e00000000000000000000000000000000000000000000000000000000000000602082015250565b6000610e97602183610e2a565b9150610ea282610e3b565b604082019050919050565b60006020820190508181036000830152610ec681610e8a565b9050919050565b7f4e6f2062616c616e636520746f20776974686472617700000000000000000000600082015250565b6000610f03601683610e2a565b9150610f0e82610ecd565b602082019050919050565b60006020820190508181036000830152610f3281610ef6565b9050919050565b600081905092915050565b50565b6000610f54600083610f39565b9150610f5f82610f44565b600082019050919050565b6000610f7582610f47565b9150819050919050565b7f5769746864726177616c206661696c6564000000000000000000000000000000600082015250565b6000610fb5601183610e2a565b9150610fc082610f7f565b602082019050919050565b60006020820190508181036000830152610fe481610fa8565b9050919050565b7f4e487b7100000000000000000000000000000000000000000000000000000000600052601160045260246000fd5b600061102582610c22565b915061103083610c22565b925082820390508181111561104857611047610feb565b5b92915050565b7f457861637420737562736372697074696f6e2066656520726571756972656400600082015250565b6000611084601f83610e2a565b915061108f8261104e565b602082019050919050565b600060208201905081810360008301526110b381611077565b9050919050565b60006110c582610c22565b91506110d083610c22565b92508282019050808211156110e8576110e7610feb565b5b92915050565b60006040820190506111036000830185610c2c565b6111106020830184610d4e565b9392505050565b7f4e6f2061637469766520737562736372697074696f6e20666f756e6400000000600082015250565b600061114d601c83610e2a565b915061115882611117565b602082019050919050565b6000602082019050818103600083015261117c81611140565b9050919050565b600061118e82610c22565b915061119983610c22565b92508282026111a781610c22565b915082820484148315176111be576111bd610feb565b5b5092915050565b7f4e487b7100000000000000000000000000000000000000000000000000000000600052601260045260246000fd5b60006111ff82610c22565b915061120a83610c22565b92508261121a576112196111c5565b5b828204905092915050565b7f45786163742072656e6577616c20666565207265717569726564000000000000600082015250565b600061125b601a83610e2a565b915061126682611225565b602082019050919050565b6000602082019050818103600083015261128a8161124e565b905091905056fea26469706673582212207abf5807eccb9bd62491c8f3b8e2c4a054c70ca0990f896416ffcb53fc1064a564736f6c634300081a0033",
					"opcodes": "PUSH1 0x80 PUSH1 0x40 MSTORE PUSH7 0x2386F26FC10000 PUSH1 0x1 SSTORE PUSH7 0xB1A2BC2EC50000 PUSH1 0x2 SSTORE PUSH3 0x278D00 PUSH1 0x3 SSTORE PUSH3 0x76A700 PUSH1 0x4 SSTORE PUSH1 0xA PUSH1 0x5 SSTORE CALLVALUE DUP1 ISZERO PUSH1 0x38 JUMPI PUSH1 0x0 DUP1 REVERT JUMPDEST POP CALLER PUSH1 0x0 DUP1 PUSH2 0x100 EXP DUP2 SLOAD DUP2 PUSH20 0xFFFFFFFFFFFFFFFFFFFFFFFFFFFFFFFFFFFFFFFF MUL NOT AND SWAP1 DUP4 PUSH20 0xFFFFFFFFFFFFFFFFFFFFFFFFFFFFFFFFFFFFFFFF AND MUL OR SWAP1 SSTORE POP PUSH2 0x12C7 DUP1 PUSH2 0x88 PUSH1 0x0 CODECOPY PUSH1 0x0 RETURN INVALID PUSH1 0x80 PUSH1 0x40 MSTORE PUSH1 0x4 CALLDATASIZE LT PUSH2 0xC2 JUMPI PUSH1 0x0 CALLDATALOAD PUSH1 0xE0 SHR DUP1 PUSH4 0x60A85EF5 GT PUSH2 0x7F JUMPI DUP1 PUSH4 0x7E9A7F2F GT PUSH2 0x59 JUMPI DUP1 PUSH4 0x7E9A7F2F EQ PUSH2 0x216 JUMPI DUP1 PUSH4 0x8DA5CB5B EQ PUSH2 0x241 JUMPI DUP1 PUSH4 0xB6AEECF1 EQ PUSH2 0x26C JUMPI DUP1 PUSH4 0xCDAD47BE EQ PUSH2 0x297 JUMPI PUSH2 0xC2 JUMP JUMPDEST DUP1 PUSH4 0x60A85EF5 EQ PUSH2 0x1A4 JUMPI DUP1 PUSH4 0x6E2E9C18 EQ PUSH2 0x1E1 JUMPI DUP1 PUSH4 0x6E307981 EQ PUSH2 0x20C JUMPI PUSH2 0xC2 JUMP JUMPDEST DUP1 PUSH4 0x209C9523 EQ PUSH2 0xC7 JUMPI DUP1 PUSH4 0x24600FC3 EQ PUSH2 0xF2 JUMPI DUP1 PUSH4 0x311AF42C EQ PUSH2 0x109 JUMPI DUP1 PUSH4 0x4320A87F EQ PUSH2 0x120 JUMPI DUP1 PUSH4 0x49C7E639 EQ PUSH2 0x15D JUMPI DUP1 PUSH4 0x572ED5AD EQ PUSH2 0x179 JUMPI JUMPDEST PUSH1 0x0 DUP1 REVERT JUMPDEST CALLVALUE DUP1 ISZERO PUSH2 0xD3 JUMPI PUSH1 0x0 DUP1 REVERT JUMPDEST POP PUSH2 0xDC PUSH2 0x2C2 JUMP JUMPDEST PUSH1 0x40 MLOAD PUSH2 0xE9 SWAP2 SWAP1 PUSH2 0xC3B JUMP JUMPDEST PUSH1 0x40 MLOAD DUP1 SWAP2 SUB SWAP1 RETURN JUMPDEST CALLVALUE DUP1 ISZERO PUSH2 0xFE JUMPI PUSH1 0x0 DUP1 REVERT JUMPDEST POP PUSH2 0x107 PUSH2 0x2C8 JUMP JUMPDEST STOP JUMPDEST CALLVALUE DUP1 ISZERO PUSH2 0x115 JUMPI PUSH1 0x0 DUP1 REVERT JUMPDEST POP PUSH2 0x11E PUSH2 0x46F JUMP JUMPDEST STOP JUMPDEST CALLVALUE DUP1 ISZERO PUSH2 0x12C JUMPI PUSH1 0x0 DUP1 REVERT JUMPDEST POP PUSH2 0x147 PUSH1 0x4 DUP1 CALLDATASIZE SUB DUP2 ADD SWAP1 PUSH2 0x142 SWAP2 SWAP1 PUSH2 0xCB9 JUMP JUMPDEST PUSH2 0x568 JUMP JUMPDEST PUSH1 0x40 MLOAD PUSH2 0x154 SWAP2 SWAP1 PUSH2 0xD5D JUMP JUMPDEST PUSH1 0x40 MLOAD DUP1 SWAP2 SUB SWAP1 RETURN JUMPDEST PUSH2 0x177 PUSH1 0x4 DUP1 CALLDATASIZE SUB DUP2 ADD SWAP1 PUSH2 0x172 SWAP2 SWAP1 PUSH2 0xD9D JUMP JUMPDEST PUSH2 0x588 JUMP JUMPDEST STOP JUMPDEST CALLVALUE DUP1 ISZERO PUSH2 0x185 JUMPI PUSH1 0x0 DUP1 REVERT JUMPDEST POP PUSH2 0x18E PUSH2 0x7E8 JUMP JUMPDEST PUSH1 0x40 MLOAD PUSH2 0x19B SWAP2 SWAP1 PUSH2 0xC3B JUMP JUMPDEST PUSH1 0x40 MLOAD DUP1 SWAP2 SUB SWAP1 RETURN JUMPDEST CALLVALUE DUP1 ISZERO PUSH2 0x1B0 JUMPI PUSH1 0x0 DUP1 REVERT JUMPDEST POP PUSH2 0x1CB PUSH1 0x4 DUP1 CALLDATASIZE SUB DUP2 ADD SWAP1 PUSH2 0x1C6 SWAP2 SWAP1 PUSH2 0xCB9 JUMP JUMPDEST PUSH2 0x7EE JUMP JUMPDEST PUSH1 0x40 MLOAD PUSH2 0x1D8 SWAP2 SWAP1 PUSH2 0xC3B JUMP JUMPDEST PUSH1 0x40 MLOAD DUP1 SWAP2 SUB SWAP1 RETURN JUMPDEST CALLVALUE DUP1 ISZERO PUSH2 0x1ED JUMPI PUSH1 0x0 DUP1 REVERT JUMPDEST POP PUSH2 0x1F6 PUSH2 0x806 JUMP JUMPDEST PUSH1 0x40 MLOAD PUSH2 0x203 SWAP2 SWAP1 PUSH2 0xDE5 JUMP JUMPDEST PUSH1 0x40 MLOAD DUP1 SWAP2 SUB SWAP1 RETURN JUMPDEST PUSH2 0x214 PUSH2 0x850 JUMP JUMPDEST STOP JUMPDEST CALLVALUE DUP1 ISZERO PUSH2 0x222 JUMPI PUSH1 0x0 DUP1 REVERT JUMPDEST POP PUSH2 0x22B PUSH2 0xBEC JUMP JUMPDEST PUSH1 0x40 MLOAD PUSH2 0x238 SWAP2 SWAP1 PUSH2 0xC3B JUMP JUMPDEST PUSH1 0x40 MLOAD DUP1 SWAP2 SUB SWAP1 RETURN JUMPDEST CALLVALUE DUP1 ISZERO PUSH2 0x24D JUMPI PUSH1 0x0 DUP1 REVERT JUMPDEST POP PUSH2 0x256 PUSH2 0xBF2 JUMP JUMPDEST PUSH1 0x40 MLOAD PUSH2 0x263 SWAP2 SWAP1 PUSH2 0xE0F JUMP JUMPDEST PUSH1 0x40 MLOAD DUP1 SWAP2 SUB SWAP1 RETURN JUMPDEST CALLVALUE DUP1 ISZERO PUSH2 0x278 JUMPI PUSH1 0x0 DUP1 REVERT JUMPDEST POP PUSH2 0x281 PUSH2 0xC16 JUMP JUMPDEST PUSH1 0x40 MLOAD PUSH2 0x28E SWAP2 SWAP1 PUSH2 0xC3B JUMP JUMPDEST PUSH1 0x40 MLOAD DUP1 SWAP2 SUB SWAP1 RETURN JUMPDEST CALLVALUE DUP1 ISZERO PUSH2 0x2A3 JUMPI PUSH1 0x0 DUP1 REVERT JUMPDEST POP PUSH2 0x2AC PUSH2 0xC1C JUMP JUMPDEST PUSH1 0x40 MLOAD PUSH2 0x2B9 SWAP2 SWAP1 PUSH2 0xC3B JUMP JUMPDEST PUSH1 0x40 MLOAD DUP1 SWAP2 SUB SWAP1 RETURN JUMPDEST PUSH1 0x2 SLOAD DUP2 JUMP JUMPDEST PUSH1 0x0 DUP1 SLOAD SWAP1 PUSH2 0x100 EXP SWAP1 DIV PUSH20 0xFFFFFFFFFFFFFFFFFFFFFFFFFFFFFFFFFFFFFFFF AND PUSH20 0xFFFFFFFFFFFFFFFFFFFFFFFFFFFFFFFFFFFFFFFF AND CALLER PUSH20 0xFFFFFFFFFFFFFFFFFFFFFFFFFFFFFFFFFFFFFFFF AND EQ PUSH2 0x356 JUMPI PUSH1 0x40 MLOAD PUSH32 0x8C379A000000000000000000000000000000000000000000000000000000000 DUP2 MSTORE PUSH1 0x4 ADD PUSH2 0x34D SWAP1 PUSH2 0xEAD JUMP JUMPDEST PUSH1 0x40 MLOAD DUP1 SWAP2 SUB SWAP1 REVERT JUMPDEST PUSH1 0x0 SELFBALANCE SWAP1 POP PUSH1 0x0 DUP2 GT PUSH2 0x39E JUMPI PUSH1 0x40 MLOAD PUSH32 0x8C379A000000000000000000000000000000000000000000000000000000000 DUP2 MSTORE PUSH1 0x4 ADD PUSH2 0x395 SWAP1 PUSH2 0xF19 JUMP JUMPDEST PUSH1 0x40 MLOAD DUP1 SWAP2 SUB SWAP1 REVERT JUMPDEST PUSH1 0x0 DUP1 PUSH1 0x0 SWAP1 SLOAD SWAP1 PUSH2 0x100 EXP SWAP1 DIV PUSH20 0xFFFFFFFFFFFFFFFFFFFFFFFFFFFFFFFFFFFFFFFF AND PUSH20 0xFFFFFFFFFFFFFFFFFFFFFFFFFFFFFFFFFFFFFFFF AND DUP3 PUSH1 0x40 MLOAD PUSH2 0x3E5 SWAP1 PUSH2 0xF6A JUMP JUMPDEST PUSH1 0x0 PUSH1 0x40 MLOAD DUP1 DUP4 SUB DUP2 DUP6 DUP8 GAS CALL SWAP3 POP POP POP RETURNDATASIZE DUP1 PUSH1 0x0 DUP2 EQ PUSH2 0x422 JUMPI PUSH1 0x40 MLOAD SWAP2 POP PUSH1 0x1F NOT PUSH1 0x3F RETURNDATASIZE ADD AND DUP3 ADD PUSH1 0x40 MSTORE RETURNDATASIZE DUP3 MSTORE RETURNDATASIZE PUSH1 0x0 PUSH1 0x20 DUP5 ADD RETURNDATACOPY PUSH2 0x427 JUMP JUMPDEST PUSH1 0x60 SWAP2 POP JUMPDEST POP POP SWAP1 POP DUP1 PUSH2 0x46B JUMPI PUSH1 0x40 MLOAD PUSH32 0x8C379A000000000000000000000000000000000000000000000000000000000 DUP2 MSTORE PUSH1 0x4 ADD PUSH2 0x462 SWAP1 PUSH2 0xFCB JUMP JUMPDEST PUSH1 0x40 MLOAD DUP1 SWAP2 SUB SWAP1 REVERT JUMPDEST POP POP JUMP JUMPDEST PUSH1 0x0 TIMESTAMP PUSH1 0x6 PUSH1 0x0 CALLER PUSH20 0xFFFFFFFFFFFFFFFFFFFFFFFFFFFFFFFFFFFFFFFF AND PUSH20 0xFFFFFFFFFFFFFFFFFFFFFFFFFFFFFFFFFFFFFFFF AND DUP2 MSTORE PUSH1 0x20 ADD SWAP1 DUP2 MSTORE PUSH1 0x20 ADD PUSH1 0x0 KECCAK256 SLOAD GT PUSH2 0x4BE JUMPI PUSH1 0x0 PUSH2 0x50A JUMP JUMPDEST TIMESTAMP PUSH1 0x6 PUSH1 0x0 CALLER PUSH20 0xFFFFFFFFFFFFFFFFFFFFFFFFFFFFFFFFFFFFFFFF AND PUSH20 0xFFFFFFFFFFFFFFFFFFFFFFFFFFFFFFFFFFFFFFFF AND DUP2 MSTORE PUSH1 0x20 ADD SWAP1 DUP2 MSTORE PUSH1 0x20 ADD PUSH1 0x0 KECCAK256 SLOAD PUSH2 0x509 SWAP2 SWAP1 PUSH2 0x101A JUMP JUMPDEST JUMPDEST SWAP1 POP PUSH3 0x3F480 DUP2 GT PUSH2 0x565 JUMPI CALLER PUSH20 0xFFFFFFFFFFFFFFFFFFFFFFFFFFFFFFFFFFFFFFFF AND PUSH32 0x2B8A90E8196FED5A9A7BC85FC29928E0D14FFF6F07B2D5C6C26B28D4011A6D92 DUP3 PUSH1 0x40 MLOAD PUSH2 0x55C SWAP2 SWAP1 PUSH2 0xC3B JUMP JUMPDEST PUSH1 0x40 MLOAD DUP1 SWAP2 SUB SWAP1 LOG2 JUMPDEST POP JUMP JUMPDEST PUSH1 0x7 PUSH1 0x20 MSTORE DUP1 PUSH1 0x0 MSTORE PUSH1 0x40 PUSH1 0x0 KECCAK256 PUSH1 0x0 SWAP2 POP SLOAD SWAP1 PUSH2 0x100 EXP SWAP1 DIV PUSH1 0xFF AND DUP2 JUMP JUMPDEST PUSH1 0x0 DUP1 PUSH1 0x1 DUP2 GT ISZERO PUSH2 0x59D JUMPI PUSH2 0x59C PUSH2 0xCE6 JUMP JUMPDEST JUMPDEST DUP3 PUSH1 0x1 DUP2 GT ISZERO PUSH2 0x5B0 JUMPI PUSH2 0x5AF PUSH2 0xCE6 JUMP JUMPDEST JUMPDEST EQ PUSH2 0x5BD JUMPI PUSH1 0x2 SLOAD PUSH2 0x5C1 JUMP JUMPDEST PUSH1 0x1 SLOAD JUMPDEST SWAP1 POP PUSH1 0x0 DUP1 PUSH1 0x1 DUP2 GT ISZERO PUSH2 0x5D8 JUMPI PUSH2 0x5D7 PUSH2 0xCE6 JUMP JUMPDEST JUMPDEST DUP4 PUSH1 0x1 DUP2 GT ISZERO PUSH2 0x5EB JUMPI PUSH2 0x5EA PUSH2 0xCE6 JUMP JUMPDEST JUMPDEST EQ PUSH2 0x5F8 JUMPI PUSH1 0x4 SLOAD PUSH2 0x5FC JUMP JUMPDEST PUSH1 0x3 SLOAD JUMPDEST SWAP1 POP DUP2 CALLVALUE EQ PUSH2 0x640 JUMPI PUSH1 0x40 MLOAD PUSH32 0x8C379A000000000000000000000000000000000000000000000000000000000 DUP2 MSTORE PUSH1 0x4 ADD PUSH2 0x637 SWAP1 PUSH2 0x109A JUMP JUMPDEST PUSH1 0x40 MLOAD DUP1 SWAP2 SUB SWAP1 REVERT JUMPDEST PUSH1 0x0 TIMESTAMP PUSH1 0x6 PUSH1 0x0 CALLER PUSH20 0xFFFFFFFFFFFFFFFFFFFFFFFFFFFFFFFFFFFFFFFF AND PUSH20 0xFFFFFFFFFFFFFFFFFFFFFFFFFFFFFFFFFFFFFFFF AND DUP2 MSTORE PUSH1 0x20 ADD SWAP1 DUP2 MSTORE PUSH1 0x20 ADD PUSH1 0x0 KECCAK256 SLOAD GT PUSH2 0x699 JUMPI DUP2 TIMESTAMP PUSH2 0x694 SWAP2 SWAP1 PUSH2 0x10BA JUMP JUMPDEST PUSH2 0x6E5 JUMP JUMPDEST DUP2 PUSH1 0x6 PUSH1 0x0 CALLER PUSH20 0xFFFFFFFFFFFFFFFFFFFFFFFFFFFFFFFFFFFFFFFF AND PUSH20 0xFFFFFFFFFFFFFFFFFFFFFFFFFFFFFFFFFFFFFFFF AND DUP2 MSTORE PUSH1 0x20 ADD SWAP1 DUP2 MSTORE PUSH1 0x20 ADD PUSH1 0x0 KECCAK256 SLOAD PUSH2 0x6E4 SWAP2 SWAP1 PUSH2 0x10BA JUMP JUMPDEST JUMPDEST SWAP1 POP DUP1 PUSH1 0x6 PUSH1 0x0 CALLER PUSH20 0xFFFFFFFFFFFFFFFFFFFFFFFFFFFFFFFFFFFFFFFF AND PUSH20 0xFFFFFFFFFFFFFFFFFFFFFFFFFFFFFFFFFFFFFFFF AND DUP2 MSTORE PUSH1 0x20 ADD SWAP1 DUP2 MSTORE PUSH1 0x20 ADD PUSH1 0x0 KECCAK256 DUP2 SWAP1 SSTORE POP DUP4 PUSH1 0x7 PUSH1 0x0 CALLER PUSH20 0xFFFFFFFFFFFFFFFFFFFFFFFFFFFFFFFFFFFFFFFF AND PUSH20 0xFFFFFFFFFFFFFFFFFFFFFFFFFFFFFFFFFFFFFFFF AND DUP2 MSTORE PUSH1 0x20 ADD SWAP1 DUP2 MSTORE PUSH1 0x20 ADD PUSH1 0x0 KECCAK256 PUSH1 0x0 PUSH2 0x100 EXP DUP2 SLOAD DUP2 PUSH1 0xFF MUL NOT AND SWAP1 DUP4 PUSH1 0x1 DUP2 GT ISZERO PUSH2 0x78D JUMPI PUSH2 0x78C PUSH2 0xCE6 JUMP JUMPDEST JUMPDEST MUL OR SWAP1 SSTORE POP CALLER PUSH20 0xFFFFFFFFFFFFFFFFFFFFFFFFFFFFFFFFFFFFFFFF AND PUSH32 0x6059CE9E97CA3EB8AA8F26FB51CD5BEC5FAE8E8198ADD1A7A16B03EFC459F74 DUP3 DUP7 PUSH1 0x40 MLOAD PUSH2 0x7DA SWAP3 SWAP2 SWAP1 PUSH2 0x10EE JUMP JUMPDEST PUSH1 0x40 MLOAD DUP1 SWAP2 SUB SWAP1 LOG2 POP POP POP POP JUMP JUMPDEST PUSH1 0x3 SLOAD DUP2 JUMP JUMPDEST PUSH1 0x6 PUSH1 0x20 MSTORE DUP1 PUSH1 0x0 MSTORE PUSH1 0x40 PUSH1 0x0 KECCAK256 PUSH1 0x0 SWAP2 POP SWAP1 POP SLOAD DUP2 JUMP JUMPDEST PUSH1 0x0 PUSH1 0x6 PUSH1 0x0 CALLER PUSH20 0xFFFFFFFFFFFFFFFFFFFFFFFFFFFFFFFFFFFFFFFF AND PUSH20 0xFFFFFFFFFFFFFFFFFFFFFFFFFFFFFFFFFFFFFFFF AND DUP2 MSTORE PUSH1 0x20 ADD SWAP1 DUP2 MSTORE PUSH1 0x20 ADD PUSH1 0x0 KECCAK256 SLOAD TIMESTAMP GT ISZERO SWAP1 POP SWAP1 JUMP JUMPDEST PUSH1 0x0 PUSH1 0x6 PUSH1 0x0 CALLER PUSH20 0xFFFFFFFFFFFFFFFFFFFFFFFFFFFFFFFFFFFFFFFF AND PUSH20 0xFFFFFFFFFFFFFFFFFFFFFFFFFFFFFFFFFFFFFFFF AND DUP2 MSTORE PUSH1 0x20 ADD SWAP1 DUP2 MSTORE PUSH1 0x20 ADD PUSH1 0x0 KECCAK256 SLOAD GT PUSH2 0x8D2 JUMPI PUSH1 0x40 MLOAD PUSH32 0x8C379A000000000000000000000000000000000000000000000000000000000 DUP2 MSTORE PUSH1 0x4 ADD PUSH2 0x8C9 SWAP1 PUSH2 0x1163 JUMP JUMPDEST PUSH1 0x40 MLOAD DUP1 SWAP2 SUB SWAP1 REVERT JUMPDEST PUSH1 0x0 TIMESTAMP PUSH1 0x6 PUSH1 0x0 CALLER PUSH20 0xFFFFFFFFFFFFFFFFFFFFFFFFFFFFFFFFFFFFFFFF AND PUSH20 0xFFFFFFFFFFFFFFFFFFFFFFFFFFFFFFFFFFFFFFFF AND DUP2 MSTORE PUSH1 0x20 ADD SWAP1 DUP2 MSTORE PUSH1 0x20 ADD PUSH1 0x0 KECCAK256 SLOAD GT PUSH2 0x921 JUMPI PUSH1 0x0 PUSH2 0x96D JUMP JUMPDEST TIMESTAMP PUSH1 0x6 PUSH1 0x0 CALLER PUSH20 0xFFFFFFFFFFFFFFFFFFFFFFFFFFFFFFFFFFFFFFFF AND PUSH20 0xFFFFFFFFFFFFFFFFFFFFFFFFFFFFFFFFFFFFFFFF AND DUP2 MSTORE PUSH1 0x20 ADD SWAP1 DUP2 MSTORE PUSH1 0x20 ADD PUSH1 0x0 KECCAK256 SLOAD PUSH2 0x96C SWAP2 SWAP1 PUSH2 0x101A JUMP JUMPDEST JUMPDEST SWAP1 POP PUSH1 0x0 DUP1 PUSH1 0x1 DUP2 GT ISZERO PUSH2 0x984 JUMPI PUSH2 0x983 PUSH2 0xCE6 JUMP JUMPDEST JUMPDEST PUSH1 0x7 PUSH1 0x0 CALLER PUSH20 0xFFFFFFFFFFFFFFFFFFFFFFFFFFFFFFFFFFFFFFFF AND PUSH20 0xFFFFFFFFFFFFFFFFFFFFFFFFFFFFFFFFFFFFFFFF AND DUP2 MSTORE PUSH1 0x20 ADD SWAP1 DUP2 MSTORE PUSH1 0x20 ADD PUSH1 0x0 KECCAK256 PUSH1 0x0 SWAP1 SLOAD SWAP1 PUSH2 0x100 EXP SWAP1 DIV PUSH1 0xFF AND PUSH1 0x1 DUP2 GT ISZERO PUSH2 0x9E3 JUMPI PUSH2 0x9E2 PUSH2 0xCE6 JUMP JUMPDEST JUMPDEST EQ PUSH2 0x9F0 JUMPI PUSH1 0x2 SLOAD PUSH2 0x9F4 JUMP JUMPDEST PUSH1 0x1 SLOAD JUMPDEST SWAP1 POP PUSH1 0x0 DUP1 PUSH1 0x1 DUP2 GT ISZERO PUSH2 0xA0B JUMPI PUSH2 0xA0A PUSH2 0xCE6 JUMP JUMPDEST JUMPDEST PUSH1 0x7 PUSH1 0x0 CALLER PUSH20 0xFFFFFFFFFFFFFFFFFFFFFFFFFFFFFFFFFFFFFFFF AND PUSH20 0xFFFFFFFFFFFFFFFFFFFFFFFFFFFFFFFFFFFFFFFF AND DUP2 MSTORE PUSH1 0x20 ADD SWAP1 DUP2 MSTORE PUSH1 0x20 ADD PUSH1 0x0 KECCAK256 PUSH1 0x0 SWAP1 SLOAD SWAP1 PUSH2 0x100 EXP SWAP1 DIV PUSH1 0xFF AND PUSH1 0x1 DUP2 GT ISZERO PUSH2 0xA6A JUMPI PUSH2 0xA69 PUSH2 0xCE6 JUMP JUMPDEST JUMPDEST EQ PUSH2 0xA77 JUMPI PUSH1 0x4 SLOAD PUSH2 0xA7B JUMP JUMPDEST PUSH1 0x3 SLOAD JUMPDEST SWAP1 POP PUSH1 0x0 DUP4 GT ISZERO PUSH2 0xAB4 JUMPI PUSH1 0x0 PUSH1 0x64 PUSH1 0x5 SLOAD DUP5 PUSH2 0xA98 SWAP2 SWAP1 PUSH2 0x1183 JUMP JUMPDEST PUSH2 0xAA2 SWAP2 SWAP1 PUSH2 0x11F4 JUMP JUMPDEST SWAP1 POP DUP1 DUP4 PUSH2 0xAB0 SWAP2 SWAP1 PUSH2 0x101A JUMP JUMPDEST SWAP3 POP POP JUMPDEST DUP2 CALLVALUE EQ PUSH2 0xAF6 JUMPI PUSH1 0x40 MLOAD PUSH32 0x8C379A000000000000000000000000000000000000000000000000000000000 DUP2 MSTORE PUSH1 0x4 ADD PUSH2 0xAED SWAP1 PUSH2 0x1271 JUMP JUMPDEST PUSH1 0x40 MLOAD DUP1 SWAP2 SUB SWAP1 REVERT JUMPDEST PUSH1 0x0 DUP2 TIMESTAMP PUSH2 0xB04 SWAP2 SWAP1 PUSH2 0x10BA JUMP JUMPDEST SWAP1 POP DUP1 PUSH1 0x6 PUSH1 0x0 CALLER PUSH20 0xFFFFFFFFFFFFFFFFFFFFFFFFFFFFFFFFFFFFFFFF AND PUSH20 0xFFFFFFFFFFFFFFFFFFFFFFFFFFFFFFFFFFFFFFFF AND DUP2 MSTORE PUSH1 0x20 ADD SWAP1 DUP2 MSTORE PUSH1 0x20 ADD PUSH1 0x0 KECCAK256 DUP2 SWAP1 SSTORE POP CALLER PUSH20 0xFFFFFFFFFFFFFFFFFFFFFFFFFFFFFFFFFFFFFFFF AND PUSH32 0x6059CE9E97CA3EB8AA8F26FB51CD5BEC5FAE8E8198ADD1A7A16B03EFC459F74 DUP3 PUSH1 0x7 PUSH1 0x0 CALLER PUSH20 0xFFFFFFFFFFFFFFFFFFFFFFFFFFFFFFFFFFFFFFFF AND PUSH20 0xFFFFFFFFFFFFFFFFFFFFFFFFFFFFFFFFFFFFFFFF AND DUP2 MSTORE PUSH1 0x20 ADD SWAP1 DUP2 MSTORE PUSH1 0x20 ADD PUSH1 0x0 KECCAK256 PUSH1 0x0 SWAP1 SLOAD SWAP1 PUSH2 0x100 EXP SWAP1 DIV PUSH1 0xFF AND PUSH1 0x40 MLOAD PUSH2 0xBDE SWAP3 SWAP2 SWAP1 PUSH2 0x10EE JUMP JUMPDEST PUSH1 0x40 MLOAD DUP1 SWAP2 SUB SWAP1 LOG2 POP POP POP POP JUMP JUMPDEST PUSH1 0x4 SLOAD DUP2 JUMP JUMPDEST PUSH1 0x0 DUP1 SLOAD SWAP1 PUSH2 0x100 EXP SWAP1 DIV PUSH20 0xFFFFFFFFFFFFFFFFFFFFFFFFFFFFFFFFFFFFFFFF AND DUP2 JUMP JUMPDEST PUSH1 0x1 SLOAD DUP2 JUMP JUMPDEST PUSH1 0x5 SLOAD DUP2 JUMP JUMPDEST PUSH1 0x0 DUP2 SWAP1 POP SWAP2 SWAP1 POP JUMP JUMPDEST PUSH2 0xC35 DUP2 PUSH2 0xC22 JUMP JUMPDEST DUP3 MSTORE POP POP JUMP JUMPDEST PUSH1 0x0 PUSH1 0x20 DUP3 ADD SWAP1 POP PUSH2 0xC50 PUSH1 0x0 DUP4 ADD DUP5 PUSH2 0xC2C JUMP JUMPDEST SWAP3 SWAP2 POP POP JUMP JUMPDEST PUSH1 0x0 DUP1 REVERT JUMPDEST PUSH1 0x0 PUSH20 0xFFFFFFFFFFFFFFFFFFFFFFFFFFFFFFFFFFFFFFFF DUP3 AND SWAP1 POP SWAP2 SWAP1 POP JUMP JUMPDEST PUSH1 0x0 PUSH2 0xC86 DUP3 PUSH2 0xC5B JUMP JUMPDEST SWAP1 POP SWAP2 SWAP1 POP JUMP JUMPDEST PUSH2 0xC96 DUP2 PUSH2 0xC7B JUMP JUMPDEST DUP2 EQ PUSH2 0xCA1 JUMPI PUSH1 0x0 DUP1 REVERT JUMPDEST POP JUMP JUMPDEST PUSH1 0x0 DUP2 CALLDATALOAD SWAP1 POP PUSH2 0xCB3 DUP2 PUSH2 0xC8D JUMP JUMPDEST SWAP3 SWAP2 POP POP JUMP JUMPDEST PUSH1 0x0 PUSH1 0x20 DUP3 DUP5 SUB SLT ISZERO PUSH2 0xCCF JUMPI PUSH2 0xCCE PUSH2 0xC56 JUMP JUMPDEST JUMPDEST PUSH1 0x0 PUSH2 0xCDD DUP5 DUP3 DUP6 ADD PUSH2 0xCA4 JUMP JUMPDEST SWAP2 POP POP SWAP3 SWAP2 POP POP JUMP JUMPDEST PUSH32 0x4E487B7100000000000000000000000000000000000000000000000000000000 PUSH1 0x0 MSTORE PUSH1 0x21 PUSH1 0x4 MSTORE PUSH1 0x24 PUSH1 0x0 REVERT JUMPDEST PUSH1 0x2 DUP2 LT PUSH2 0xD26 JUMPI PUSH2 0xD25 PUSH2 0xCE6 JUMP JUMPDEST JUMPDEST POP JUMP JUMPDEST PUSH1 0x0 DUP2 SWAP1 POP PUSH2 0xD37 DUP3 PUSH2 0xD15 JUMP JUMPDEST SWAP2 SWAP1 POP JUMP JUMPDEST PUSH1 0x0 PUSH2 0xD47 DUP3 PUSH2 0xD29 JUMP JUMPDEST SWAP1 POP SWAP2 SWAP1 POP JUMP JUMPDEST PUSH2 0xD57 DUP2 PUSH2 0xD3C JUMP JUMPDEST DUP3 MSTORE POP POP JUMP JUMPDEST PUSH1 0x0 PUSH1 0x20 DUP3 ADD SWAP1 POP PUSH2 0xD72 PUSH1 0x0 DUP4 ADD DUP5 PUSH2 0xD4E JUMP JUMPDEST SWAP3 SWAP2 POP POP JUMP JUMPDEST PUSH1 0x2 DUP2 LT PUSH2 0xD85 JUMPI PUSH1 0x0 DUP1 REVERT JUMPDEST POP JUMP JUMPDEST PUSH1 0x0 DUP2 CALLDATALOAD SWAP1 POP PUSH2 0xD97 DUP2 PUSH2 0xD78 JUMP JUMPDEST SWAP3 SWAP2 POP POP JUMP JUMPDEST PUSH1 0x0 PUSH1 0x20 DUP3 DUP5 SUB SLT ISZERO PUSH2 0xDB3 JUMPI PUSH2 0xDB2 PUSH2 0xC56 JUMP JUMPDEST JUMPDEST PUSH1 0x0 PUSH2 0xDC1 DUP5 DUP3 DUP6 ADD PUSH2 0xD88 JUMP JUMPDEST SWAP2 POP POP SWAP3 SWAP2 POP POP JUMP JUMPDEST PUSH1 0x0 DUP2 ISZERO ISZERO SWAP1 POP SWAP2 SWAP1 POP JUMP JUMPDEST PUSH2 0xDDF DUP2 PUSH2 0xDCA JUMP JUMPDEST DUP3 MSTORE POP POP JUMP JUMPDEST PUSH1 0x0 PUSH1 0x20 DUP3 ADD SWAP1 POP PUSH2 0xDFA PUSH1 0x0 DUP4 ADD DUP5 PUSH2 0xDD6 JUMP JUMPDEST SWAP3 SWAP2 POP POP JUMP JUMPDEST PUSH2 0xE09 DUP2 PUSH2 0xC7B JUMP JUMPDEST DUP3 MSTORE POP POP JUMP JUMPDEST PUSH1 0x0 PUSH1 0x20 DUP3 ADD SWAP1 POP PUSH2 0xE24 PUSH1 0x0 DUP4 ADD DUP5 PUSH2 0xE00 JUMP JUMPDEST SWAP3 SWAP2 POP POP JUMP JUMPDEST PUSH1 0x0 DUP3 DUP3 MSTORE PUSH1 0x20 DUP3 ADD SWAP1 POP SWAP3 SWAP2 POP POP JUMP JUMPDEST PUSH32 0x4F6E6C79206F776E65722063616E2063616C6C20746869732066756E6374696F PUSH1 0x0 DUP3 ADD MSTORE PUSH32 0x6E00000000000000000000000000000000000000000000000000000000000000 PUSH1 0x20 DUP3 ADD MSTORE POP JUMP JUMPDEST PUSH1 0x0 PUSH2 0xE97 PUSH1 0x21 DUP4 PUSH2 0xE2A JUMP JUMPDEST SWAP2 POP PUSH2 0xEA2 DUP3 PUSH2 0xE3B JUMP JUMPDEST PUSH1 0x40 DUP3 ADD SWAP1 POP SWAP2 SWAP1 POP JUMP JUMPDEST PUSH1 0x0 PUSH1 0x20 DUP3 ADD SWAP1 POP DUP2 DUP2 SUB PUSH1 0x0 DUP4 ADD MSTORE PUSH2 0xEC6 DUP2 PUSH2 0xE8A JUMP JUMPDEST SWAP1 POP SWAP2 SWAP1 POP JUMP JUMPDEST PUSH32 0x4E6F2062616C616E636520746F20776974686472617700000000000000000000 PUSH1 0x0 DUP3 ADD MSTORE POP JUMP JUMPDEST PUSH1 0x0 PUSH2 0xF03 PUSH1 0x16 DUP4 PUSH2 0xE2A JUMP JUMPDEST SWAP2 POP PUSH2 0xF0E DUP3 PUSH2 0xECD JUMP JUMPDEST PUSH1 0x20 DUP3 ADD SWAP1 POP SWAP2 SWAP1 POP JUMP JUMPDEST PUSH1 0x0 PUSH1 0x20 DUP3 ADD SWAP1 POP DUP2 DUP2 SUB PUSH1 0x0 DUP4 ADD MSTORE PUSH2 0xF32 DUP2 PUSH2 0xEF6 JUMP JUMPDEST SWAP1 POP SWAP2 SWAP1 POP JUMP JUMPDEST PUSH1 0x0 DUP2 SWAP1 POP SWAP3 SWAP2 POP POP JUMP JUMPDEST POP JUMP JUMPDEST PUSH1 0x0 PUSH2 0xF54 PUSH1 0x0 DUP4 PUSH2 0xF39 JUMP JUMPDEST SWAP2 POP PUSH2 0xF5F DUP3 PUSH2 0xF44 JUMP JUMPDEST PUSH1 0x0 DUP3 ADD SWAP1 POP SWAP2 SWAP1 POP JUMP JUMPDEST PUSH1 0x0 PUSH2 0xF75 DUP3 PUSH2 0xF47 JUMP JUMPDEST SWAP2 POP DUP2 SWAP1 POP SWAP2 SWAP1 POP JUMP JUMPDEST PUSH32 0x5769746864726177616C206661696C6564000000000000000000000000000000 PUSH1 0x0 DUP3 ADD MSTORE POP JUMP JUMPDEST PUSH1 0x0 PUSH2 0xFB5 PUSH1 0x11 DUP4 PUSH2 0xE2A JUMP JUMPDEST SWAP2 POP PUSH2 0xFC0 DUP3 PUSH2 0xF7F JUMP JUMPDEST PUSH1 0x20 DUP3 ADD SWAP1 POP SWAP2 SWAP1 POP JUMP JUMPDEST PUSH1 0x0 PUSH1 0x20 DUP3 ADD SWAP1 POP DUP2 DUP2 SUB PUSH1 0x0 DUP4 ADD MSTORE PUSH2 0xFE4 DUP2 PUSH2 0xFA8 JUMP JUMPDEST SWAP1 POP SWAP2 SWAP1 POP JUMP JUMPDEST PUSH32 0x4E487B7100000000000000000000000000000000000000000000000000000000 PUSH1 0x0 MSTORE PUSH1 0x11 PUSH1 0x4 MSTORE PUSH1 0x24 PUSH1 0x0 REVERT JUMPDEST PUSH1 0x0 PUSH2 0x1025 DUP3 PUSH2 0xC22 JUMP JUMPDEST SWAP2 POP PUSH2 0x1030 DUP4 PUSH2 0xC22 JUMP JUMPDEST SWAP3 POP DUP3 DUP3 SUB SWAP1 POP DUP2 DUP2 GT ISZERO PUSH2 0x1048 JUMPI PUSH2 0x1047 PUSH2 0xFEB JUMP JUMPDEST JUMPDEST SWAP3 SWAP2 POP POP JUMP JUMPDEST PUSH32 0x457861637420737562736372697074696F6E2066656520726571756972656400 PUSH1 0x0 DUP3 ADD MSTORE POP JUMP JUMPDEST PUSH1 0x0 PUSH2 0x1084 PUSH1 0x1F DUP4 PUSH2 0xE2A JUMP JUMPDEST SWAP2 POP PUSH2 0x108F DUP3 PUSH2 0x104E JUMP JUMPDEST PUSH1 0x20 DUP3 ADD SWAP1 POP SWAP2 SWAP1 POP JUMP JUMPDEST PUSH1 0x0 PUSH1 0x20 DUP3 ADD SWAP1 POP DUP2 DUP2 SUB PUSH1 0x0 DUP4 ADD MSTORE PUSH2 0x10B3 DUP2 PUSH2 0x1077 JUMP JUMPDEST SWAP1 POP SWAP2 SWAP1 POP JUMP JUMPDEST PUSH1 0x0 PUSH2 0x10C5 DUP3 PUSH2 0xC22 JUMP JUMPDEST SWAP2 POP PUSH2 0x10D0 DUP4 PUSH2 0xC22 JUMP JUMPDEST SWAP3 POP DUP3 DUP3 ADD SWAP1 POP DUP1 DUP3 GT ISZERO PUSH2 0x10E8 JUMPI PUSH2 0x10E7 PUSH2 0xFEB JUMP JUMPDEST JUMPDEST SWAP3 SWAP2 POP POP JUMP JUMPDEST PUSH1 0x0 PUSH1 0x40 DUP3 ADD SWAP1 POP PUSH2 0x1103 PUSH1 0x0 DUP4 ADD DUP6 PUSH2 0xC2C JUMP JUMPDEST PUSH2 0x1110 PUSH1 0x20 DUP4 ADD DUP5 PUSH2 0xD4E JUMP JUMPDEST SWAP4 SWAP3 POP POP POP JUMP JUMPDEST PUSH32 0x4E6F2061637469766520737562736372697074696F6E20666F756E6400000000 PUSH1 0x0 DUP3 ADD MSTORE POP JUMP JUMPDEST PUSH1 0x0 PUSH2 0x114D PUSH1 0x1C DUP4 PUSH2 0xE2A JUMP JUMPDEST SWAP2 POP PUSH2 0x1158 DUP3 PUSH2 0x1117 JUMP JUMPDEST PUSH1 0x20 DUP3 ADD SWAP1 POP SWAP2 SWAP1 POP JUMP JUMPDEST PUSH1 0x0 PUSH1 0x20 DUP3 ADD SWAP1 POP DUP2 DUP2 SUB PUSH1 0x0 DUP4 ADD MSTORE PUSH2 0x117C DUP2 PUSH2 0x1140 JUMP JUMPDEST SWAP1 POP SWAP2 SWAP1 POP JUMP JUMPDEST PUSH1 0x0 PUSH2 0x118E DUP3 PUSH2 0xC22 JUMP JUMPDEST SWAP2 POP PUSH2 0x1199 DUP4 PUSH2 0xC22 JUMP JUMPDEST SWAP3 POP DUP3 DUP3 MUL PUSH2 0x11A7 DUP2 PUSH2 0xC22 JUMP JUMPDEST SWAP2 POP DUP3 DUP3 DIV DUP5 EQ DUP4 ISZERO OR PUSH2 0x11BE JUMPI PUSH2 0x11BD PUSH2 0xFEB JUMP JUMPDEST JUMPDEST POP SWAP3 SWAP2 POP POP JUMP JUMPDEST PUSH32 0x4E487B7100000000000000000000000000000000000000000000000000000000 PUSH1 0x0 MSTORE PUSH1 0x12 PUSH1 0x4 MSTORE PUSH1 0x24 PUSH1 0x0 REVERT JUMPDEST PUSH1 0x0 PUSH2 0x11FF DUP3 PUSH2 0xC22 JUMP JUMPDEST SWAP2 POP PUSH2 0x120A DUP4 PUSH2 0xC22 JUMP JUMPDEST SWAP3 POP DUP3 PUSH2 0x121A JUMPI PUSH2 0x1219 PUSH2 0x11C5 JUMP JUMPDEST JUMPDEST DUP3 DUP3 DIV SWAP1 POP SWAP3 SWAP2 POP POP JUMP JUMPDEST PUSH32 0x45786163742072656E6577616C20666565207265717569726564000000000000 PUSH1 0x0 DUP3 ADD MSTORE POP JUMP JUMPDEST PUSH1 0x0 PUSH2 0x125B PUSH1 0x1A DUP4 PUSH2 0xE2A JUMP JUMPDEST SWAP2 POP PUSH2 0x1266 DUP3 PUSH2 0x1225 JUMP JUMPDEST PUSH1 0x20 DUP3 ADD SWAP1 POP SWAP2 SWAP1 POP JUMP JUMPDEST PUSH1 0x0 PUSH1 0x20 DUP3 ADD SWAP1 POP DUP2 DUP2 SUB PUSH1 0x0 DUP4 ADD MSTORE PUSH2 0x128A DUP2 PUSH2 0x124E JUMP JUMPDEST SWAP1 POP SWAP2 SWAP1 POP JUMP INVALID LOG2 PUSH5 0x6970667358 0x22 SLT KECCAK256 PUSH27 0xBF5807ECCB9BD62491C8F3B8E2C4A054C70CA0990F896416FFCB53 0xFC LT PUSH5 0xA564736F6C PUSH4 0x4300081A STOP CALLER "
				},
				"gasEstimates": {
					"creation": {
						"codeDepositCost": "961400",
						"executionCost": "135797",
						"totalCost": "1097197"
					},
					"external": {
						"basicFee()": "2495",
						"basicInterval()": "2540",
						"checkNearExpiration()": "infinite",
						"checkSubscription()": "2585",
						"earlyRenewalDiscount()": "2517",
						"owner()": "2555",
						"premiumFee()": "2430",
						"premiumInterval()": "2451",
						"renewSubscription()": "infinite",
						"subscribe(uint8)": "infinite",
						"subscriberTier(address)": "3001",
						"subscriptionExpiry(address)": "2837",
						"withdrawFunds()": "infinite"
					}
				},
				"methodIdentifiers": {
					"basicFee()": "b6aeecf1",
					"basicInterval()": "572ed5ad",
					"checkNearExpiration()": "311af42c",
					"checkSubscription()": "6e2e9c18",
					"earlyRenewalDiscount()": "cdad47be",
					"owner()": "8da5cb5b",
					"premiumFee()": "209c9523",
					"premiumInterval()": "7e9a7f2f",
					"renewSubscription()": "6e307981",
					"subscribe(uint8)": "49c7e639",
					"subscriberTier(address)": "4320a87f",
					"subscriptionExpiry(address)": "60a85ef5",
					"withdrawFunds()": "24600fc3"
				}
			},
			"storageLayout": {
				"storage": [
					{
						"astId": 3,
						"contract": "subscription.sol:SubscriptionService",
						"label": "owner",
						"offset": 0,
						"slot": "0",
						"type": "t_address"
					},
					{
						"astId": 9,
						"contract": "subscription.sol:SubscriptionService",
						"label": "basicFee",
						"offset": 0,
						"slot": "1",
						"type": "t_uint256"
					},
					{
						"astId": 12,
						"contract": "subscription.sol:SubscriptionService",
						"label": "premiumFee",
						"offset": 0,
						"slot": "2",
						"type": "t_uint256"
					},
					{
						"astId": 15,
						"contract": "subscription.sol:SubscriptionService",
						"label": "basicInterval",
						"offset": 0,
						"slot": "3",
						"type": "t_uint256"
					},
					{
						"astId": 18,
						"contract": "subscription.sol:SubscriptionService",
						"label": "premiumInterval",
						"offset": 0,
						"slot": "4",
						"type": "t_uint256"
					},
					{
						"astId": 21,
						"contract": "subscription.sol:SubscriptionService",
						"label": "earlyRenewalDiscount",
						"offset": 0,
						"slot": "5",
						"type": "t_uint256"
					},
					{
						"astId": 25,
						"contract": "subscription.sol:SubscriptionService",
						"label": "subscriptionExpiry",
						"offset": 0,
						"slot": "6",
						"type": "t_mapping(t_address,t_uint256)"
					},
					{
						"astId": 30,
						"contract": "subscription.sol:SubscriptionService",
						"label": "subscriberTier",
						"offset": 0,
						"slot": "7",
						"type": "t_mapping(t_address,t_enum(Tier)6)"
					}
				],
				"types": {
					"t_address": {
						"encoding": "inplace",
						"label": "address",
						"numberOfBytes": "20"
					},
					"t_enum(Tier)6": {
						"encoding": "inplace",
						"label": "enum SubscriptionService.Tier",
						"numberOfBytes": "1"
					},
					"t_mapping(t_address,t_enum(Tier)6)": {
						"encoding": "mapping",
						"key": "t_address",
						"label": "mapping(address => enum SubscriptionService.Tier)",
						"numberOfBytes": "32",
						"value": "t_enum(Tier)6"
					},
					"t_mapping(t_address,t_uint256)": {
						"encoding": "mapping",
						"key": "t_address",
						"label": "mapping(address => uint256)",
						"numberOfBytes": "32",
						"value": "t_uint256"
					},
					"t_uint256": {
						"encoding": "inplace",
						"label": "uint256",
						"numberOfBytes": "32"
					}
				}
			},
			"userdoc": {
				"kind": "user",
				"methods": {},
				"version": 1
			}
		}
	}
}