{
	"data": {
		"bytecode": {
			"linkReferences": {},
			"object": "6080604052662386f26fc1000060015566b1a2bc2ec5000060025562278d006003556276a700600455600a600555348015603857600080fd5b50336000806101000a81548173ffffffffffffffffffffffffffffffffffffffff021916908373ffffffffffffffffffffffffffffffffffffffff1602179055506112c7806100886000396000f3fe6080604052600436106100c25760003560e01c806360a85ef51161007f5780637e9a7f2f116100595780637e9a7f2f146102165780638da5cb5b14610241578063b6aeecf11461026c578063cdad47be14610297576100c2565b806360a85ef5146101a45780636e2e9c18146101e15780636e3079811461020c576100c2565b8063209c9523146100c757806324600fc3146100f2578063311af42c146101095780634320a87f1461012057806349c7e6391461015d578063572ed5ad14610179575b600080fd5b3480156100d357600080fd5b506100dc6102c2565b6040516100e99190610c3b565b60405180910390f35b3480156100fe57600080fd5b506101076102c8565b005b34801561011557600080fd5b5061011e61046f565b005b34801561012c57600080fd5b5061014760048036038101906101429190610cb9565b610568565b6040516101549190610d5d565b60405180910390f35b61017760048036038101906101729190610d9d565b610588565b005b34801561018557600080fd5b5061018e6107e8565b60405161019b9190610c3b565b60405180910390f35b3480156101b057600080fd5b506101cb60048036038101906101c69190610cb9565b6107ee565b6040516101d89190610c3b565b60405180910390f35b3480156101ed57600080fd5b506101f6610806565b6040516102039190610de5565b60405180910390f35b610214610850565b005b34801561022257600080fd5b5061022b610bec565b6040516102389190610c3b565b60405180910390f35b34801561024d57600080fd5b50610256610bf2565b6040516102639190610e0f565b60405180910390f35b34801561027857600080fd5b50610281610c16565b60405161028e9190610c3b565b60405180910390f35b3480156102a357600080fd5b506102ac610c1c565b6040516102b99190610c3b565b60405180910390f35b60025481565b60008054906101000a900473ffffffffffffffffffffffffffffffffffffffff1673ffffffffffffffffffffffffffffffffffffffff163373ffffffffffffffffffffffffffffffffffffffff1614610356576040517f08c379a000000000000000000000000000000000000000000000000000000000815260040161034d90610ead565b60405180910390fd5b60004790506000811161039e576040517f08c379a000000000000000000000000000000000000000000000000000000000815260040161039590610f19565b60405180910390fd5b60008060009054906101000a900473ffffffffffffffffffffffffffffffffffffffff1673ffffffffffffffffffffffffffffffffffffffff16826040516103e590610f6a565b60006040518083038185875af1925050503d8060008114610422576040519150601f19603f3d011682016040523d82523d6000602084013e610427565b606091505b505090508061046b576040517f08c379a000000000000000000000000000000000000000000000000000000000815260040161046290610fcb565b60405180910390fd5b5050565b600042600660003373ffffffffffffffffffffffffffffffffffffffff1673ffffffffffffffffffffffffffffffffffffffff16815260200190815260200160002054116104be57600061050a565b42600660003373ffffffffffffffffffffffffffffffffffffffff1673ffffffffffffffffffffffffffffffffffffffff16815260200190815260200160002054610509919061101a565b5b90506203f4808111610565573373ffffffffffffffffffffffffffffffffffffffff167f2b8a90e8196fed5a9a7bc85fc29928e0d14fff6f07b2d5c6c26b28d4011a6d928260405161055c9190610c3b565b60405180910390a25b50565b60076020528060005260406000206000915054906101000a900460ff1681565b600080600181111561059d5761059c610ce6565b5b8260018111156105b0576105af610ce6565b5b146105bd576002546105c1565b6001545b905060008060018111156105d8576105d7610ce6565b5b8360018111156105eb576105ea610ce6565b5b146105f8576004546105fc565b6003545b9050813414610640576040517f08c379a00000000000000000000000000000000000000000000000000000000081526004016106379061109a565b60405180910390fd5b600042600660003373ffffffffffffffffffffffffffffffffffffffff1673ffffffffffffffffffffffffffffffffffffffff168152602001908152602001600020541161069957814261069491906110ba565b6106e5565b81600660003373ffffffffffffffffffffffffffffffffffffffff1673ffffffffffffffffffffffffffffffffffffffff168152602001908152602001600020546106e491906110ba565b5b905080600660003373ffffffffffffffffffffffffffffffffffffffff1673ffffffffffffffffffffffffffffffffffffffff1681526020019081526020016000208190555083600760003373ffffffffffffffffffffffffffffffffffffffff1673ffffffffffffffffffffffffffffffffffffffff16815260200190815260200160002060006101000a81548160ff0219169083600181111561078d5761078c610ce6565b5b02179055503373ffffffffffffffffffffffffffffffffffffffff167f06059ce9e97ca3eb8aa8f26fb51cd5bec5fae8e8198add1a7a16b03efc459f7482866040516107da9291906110ee565b60405180910390a250505050565b60035481565b60066020528060005260406000206000915090505481565b6000600660003373ffffffffffffffffffffffffffffffffffffffff1673ffffffffffffffffffffffffffffffffffffffff16815260200190815260200160002054421115905090565b6000600660003373ffffffffffffffffffffffffffffffffffffffff1673ffffffffffffffffffffffffffffffffffffffff16815260200190815260200160002054116108d2576040517f08c379a00000000000000000000000000000000000000000000000000000000081526004016108c990611163565b60405180910390fd5b600042600660003373ffffffffffffffffffffffffffffffffffffffff1673ffffffffffffffffffffffffffffffffffffffff168152602001908152602001600020541161092157600061096d565b42600660003373ffffffffffffffffffffffffffffffffffffffff1673ffffffffffffffffffffffffffffffffffffffff1681526020019081526020016000205461096c919061101a565b5b9050600080600181111561098457610983610ce6565b5b600760003373ffffffffffffffffffffffffffffffffffffffff1673ffffffffffffffffffffffffffffffffffffffff16815260200190815260200160002060009054906101000a900460ff1660018111156109e3576109e2610ce6565b5b146109f0576002546109f4565b6001545b90506000806001811115610a0b57610a0a610ce6565b5b600760003373ffffffffffffffffffffffffffffffffffffffff1673ffffffffffffffffffffffffffffffffffffffff16815260200190815260200160002060009054906101000a900460ff166001811115610a6a57610a69610ce6565b5b14610a7757600454610a7b565b6003545b90506000831115610ab4576000606460055484610a989190611183565b610aa291906111f4565b90508083610ab0919061101a565b9250505b813414610af6576040517f08c379a0000000000000000000000000000000000000000000000000000000008152600401610aed90611271565b60405180910390fd5b60008142610b0491906110ba565b905080600660003373ffffffffffffffffffffffffffffffffffffffff1673ffffffffffffffffffffffffffffffffffffffff168152602001908152602001600020819055503373ffffffffffffffffffffffffffffffffffffffff167f06059ce9e97ca3eb8aa8f26fb51cd5bec5fae8e8198add1a7a16b03efc459f7482600760003373ffffffffffffffffffffffffffffffffffffffff1673ffffffffffffffffffffffffffffffffffffffff16815260200190815260200160002060009054906101000a900460ff16604051610bde9291906110ee565b60405180910390a250505050565b60045481565b60008054906101000a900473ffffffffffffffffffffffffffffffffffffffff1681565b60015481565b60055481565b6000819050919050565b610c3581610c22565b82525050565b6000602082019050610c506000830184610c2c565b92915050565b600080fd5b600073ffffffffffffffffffffffffffffffffffffffff82169050919050565b6000610c8682610c5b565b9050919050565b610c9681610c7b565b8114610ca157600080fd5b50565b600081359050610cb381610c8d565b92915050565b600060208284031215610ccf57610cce610c56565b5b6000610cdd84828501610ca4565b91505092915050565b7f4e487b7100000000000000000000000000000000000000000000000000000000600052602160045260246000fd5b60028110610d2657610d25610ce6565b5b50565b6000819050610d3782610d15565b919050565b6000610d4782610d29565b9050919050565b610d5781610d3c565b82525050565b6000602082019050610d726000830184610d4e565b92915050565b60028110610d8557600080fd5b50565b600081359050610d9781610d78565b92915050565b600060208284031215610db357610db2610c56565b5b6000610dc184828501610d88565b91505092915050565b60008115159050919050565b610ddf81610dca565b82525050565b6000602082019050610dfa6000830184610dd6565b92915050565b610e0981610c7b565b82525050565b6000602082019050610e246000830184610e00565b92915050565b600082825260208201905092915050565b7f4f6e6c79206f776e65722063616e2063616c6c20746869732066756e6374696f60008201527f6e00000000000000000000000000000000000000000000000000000000000000602082015250565b6000610e97602183610e2a565b9150610ea282610e3b565b604082019050919050565b60006020820190508181036000830152610ec681610e8a565b9050919050565b7f4e6f2062616c616e636520746f20776974686472617700000000000000000000600082015250565b6000610f03601683610e2a565b9150610f0e82610ecd565b602082019050919050565b60006020820190508181036000830152610f3281610ef6565b9050919050565b600081905092915050565b50565b6000610f54600083610f39565b9150610f5f82610f44565b600082019050919050565b6000610f7582610f47565b9150819050919050565b7f5769746864726177616c206661696c6564000000000000000000000000000000600082015250565b6000610fb5601183610e2a565b9150610fc082610f7f565b602082019050919050565b60006020820190508181036000830152610fe481610fa8565b9050919050565b7f4e487b7100000000000000000000000000000000000000000000000000000000600052601160045260246000fd5b600061102582610c22565b915061103083610c22565b925082820390508181111561104857611047610feb565b5b92915050565b7f457861637420737562736372697074696f6e2066656520726571756972656400600082015250565b6000611084601f83610e2a565b915061108f8261104e565b602082019050919050565b600060208201905081810360008301526110b381611077565b9050919050565b60006110c582610c22565b91506110d083610c22565b92508282019050808211156110e8576110e7610feb565b5b92915050565b60006040820190506111036000830185610c2c565b6111106020830184610d4e565b9392505050565b7f4e6f2061637469766520737562736372697074696f6e20666f756e6400000000600082015250565b600061114d601c83610e2a565b915061115882611117565b602082019050919050565b6000602082019050818103600083015261117c81611140565b9050919050565b600061118e82610c22565b915061119983610c22565b92508282026111a781610c22565b915082820484148315176111be576111bd610feb565b5b5092915050565b7f4e487b7100000000000000000000000000000000000000000000000000000000600052601260045260246000fd5b60006111ff82610c22565b915061120a83610c22565b92508261121a576112196111c5565b5b828204905092915050565b7f45786163742072656e6577616c20666565207265717569726564000000000000600082015250565b600061125b601a83610e2a565b915061126682611225565b602082019050919050565b6000602082019050818103600083015261128a8161124e565b905091905056fea26469706673582212207abf5807eccb9bd62491c8f3b8e2c4a054c70ca0990f896416ffcb53fc1064a564736f6c634300081a0033",
			"opcodes": "PUSH1 0x80 PUSH1 0x40 MSTORE PUSH7 0x2386F26FC10000 PUSH1 0x1 SSTORE PUSH7 0xB1A2BC2EC50000 PUSH1 0x2 SSTORE PUSH3 0x278D00 PUSH1 0x3 SSTORE PUSH3 0x76A700 PUSH1 0x4 SSTORE PUSH1 0xA PUSH1 0x5 SSTORE CALLVALUE DUP1 ISZERO PUSH1 0x38 JUMPI PUSH1 0x0 DUP1 REVERT JUMPDEST POP CALLER PUSH1 0x0 DUP1 PUSH2 0x100 EXP DUP2 SLOAD DUP2 PUSH20 0xFFFFFFFFFFFFFFFFFFFFFFFFFFFFFFFFFFFFFFFF MUL NOT AND SWAP1 DUP4 PUSH20 0xFFFFFFFFFFFFFFFFFFFFFFFFFFFFFFFFFFFFFFFF AND MUL OR SWAP1 SSTORE POP PUSH2 0x12C7 DUP1 PUSH2 0x88 PUSH1 0x0 CODECOPY PUSH1 0x0 RETURN INVALID PUSH1 0x80 PUSH1 0x40 MSTORE PUSH1 0x4 CALLDATASIZE LT PUSH2 0xC2 JUMPI PUSH1 0x0 CALLDATALOAD PUSH1 0xE0 SHR DUP1 PUSH4 0x60A85EF5 GT PUSH2 0x7F JUMPI DUP1 PUSH4 0x7E9A7F2F GT PUSH2 0x59 JUMPI DUP1 PUSH4 0x7E9A7F2F EQ PUSH2 0x216 JUMPI DUP1 PUSH4 0x8DA5CB5B EQ PUSH2 0x241 JUMPI DUP1 PUSH4 0xB6AEECF1 EQ PUSH2 0x26C JUMPI DUP1 PUSH4 0xCDAD47BE EQ PUSH2 0x297 JUMPI PUSH2 0xC2 JUMP JUMPDEST DUP1 PUSH4 0x60A85EF5 EQ PUSH2 0x1A4 JUMPI DUP1 PUSH4 0x6E2E9C18 EQ PUSH2 0x1E1 JUMPI DUP1 PUSH4 0x6E307981 EQ PUSH2 0x20C JUMPI PUSH2 0xC2 JUMP JUMPDEST DUP1 PUSH4 0x209C9523 EQ PUSH2 0xC7 JUMPI DUP1 PUSH4 0x24600FC3 EQ PUSH2 0xF2 JUMPI DUP1 PUSH4 0x311AF42C EQ PUSH2 0x109 JUMPI DUP1 PUSH4 0x4320A87F EQ PUSH2 0x120 JUMPI DUP1 PUSH4 0x49C7E639 EQ PUSH2 0x15D JUMPI DUP1 PUSH4 0x572ED5AD EQ PUSH2 0x179 JUMPI JUMPDEST PUSH1 0x0 DUP1 REVERT JUMPDEST CALLVALUE DUP1 ISZERO PUSH2 0xD3 JUMPI PUSH1 0x0 DUP1 REVERT JUMPDEST POP PUSH2 0xDC PUSH2 0x2C2 JUMP JUMPDEST PUSH1 0x40 MLOAD PUSH2 0xE9 SWAP2 SWAP1 PUSH2 0xC3B JUMP JUMPDEST PUSH1 0x40 MLOAD DUP1 SWAP2 SUB SWAP1 RETURN JUMPDEST CALLVALUE DUP1 ISZERO PUSH2 0xFE JUMPI PUSH1 0x0 DUP1 REVERT JUMPDEST POP PUSH2 0x107 PUSH2 0x2C8 JUMP JUMPDEST STOP JUMPDEST CALLVALUE DUP1 ISZERO PUSH2 0x115 JUMPI PUSH1 0x0 DUP1 REVERT JUMPDEST POP PUSH2 0x11E PUSH2 0x46F JUMP JUMPDEST STOP JUMPDEST CALLVALUE DUP1 ISZERO PUSH2 0x12C JUMPI PUSH1 0x0 DUP1 REVERT JUMPDEST POP PUSH2 0x147 PUSH1 0x4 DUP1 CALLDATASIZE SUB DUP2 ADD SWAP1 PUSH2 0x142 SWAP2 SWAP1 PUSH2 0xCB9 JUMP JUMPDEST PUSH2 0x568 JUMP JUMPDEST PUSH1 0x40 MLOAD PUSH2 0x154 SWAP2 SWAP1 PUSH2 0xD5D JUMP JUMPDEST PUSH1 0x40 MLOAD DUP1 SWAP2 SUB SWAP1 RETURN JUMPDEST PUSH2 0x177 PUSH1 0x4 DUP1 CALLDATASIZE SUB DUP2 ADD SWAP1 PUSH2 0x172 SWAP2 SWAP1 PUSH2 0xD9D JUMP JUMPDEST PUSH2 0x588 JUMP JUMPDEST STOP JUMPDEST CALLVALUE DUP1 ISZERO PUSH2 0x185 JUMPI PUSH1 0x0 DUP1 REVERT JUMPDEST POP PUSH2 0x18E PUSH2 0x7E8 JUMP JUMPDEST PUSH1 0x40 MLOAD PUSH2 0x19B SWAP2 SWAP1 PUSH2 0xC3B JUMP JUMPDEST PUSH1 0x40 MLOAD DUP1 SWAP2 SUB SWAP1 RETURN JUMPDEST CALLVALUE DUP1 ISZERO PUSH2 0x1B0 JUMPI PUSH1 0x0 DUP1 REVERT JUMPDEST POP PUSH2 0x1CB PUSH1 0x4 DUP1 CALLDATASIZE SUB DUP2 ADD SWAP1 PUSH2 0x1C6 SWAP2 SWAP1 PUSH2 0xCB9 JUMP JUMPDEST PUSH2 0x7EE JUMP JUMPDEST PUSH1 0x40 MLOAD PUSH2 0x1D8 SWAP2 SWAP1 PUSH2 0xC3B JUMP JUMPDEST PUSH1 0x40 MLOAD DUP1 SWAP2 SUB SWAP1 RETURN JUMPDEST CALLVALUE DUP1 ISZERO PUSH2 0x1ED JUMPI PUSH1 0x0 DUP1 REVERT JUMPDEST POP PUSH2 0x1F6 PUSH2 0x806 JUMP JUMPDEST PUSH1 0x40 MLOAD PUSH2 0x203 SWAP2 SWAP1 PUSH2 0xDE5 JUMP JUMPDEST PUSH1 0x40 MLOAD DUP1 SWAP2 SUB SWAP1 RETURN JUMPDEST PUSH2 0x214 PUSH2 0x850 JUMP JUMPDEST STOP JUMPDEST CALLVALUE DUP1 ISZERO PUSH2 0x222 JUMPI PUSH1 0x0 DUP1 REVERT JUMPDEST POP PUSH2 0x22B PUSH2 0xBEC JUMP JUMPDEST PUSH1 0x40 MLOAD PUSH2 0x238 SWAP2 SWAP1 PUSH2 0xC3B JUMP JUMPDEST PUSH1 0x40 MLOAD DUP1 SWAP2 SUB SWAP1 RETURN JUMPDEST CALLVALUE DUP1 ISZERO PUSH2 0x24D JUMPI PUSH1 0x0 DUP1 REVERT JUMPDEST POP PUSH2 0x256 PUSH2 0xBF2 JUMP JUMPDEST PUSH1 0x40 MLOAD PUSH2 0x263 SWAP2 SWAP1 PUSH2 0xE0F JUMP JUMPDEST PUSH1 0x40 MLOAD DUP1 SWAP2 SUB SWAP1 RETURN JUMPDEST CALLVALUE DUP1 ISZERO PUSH2 0x278 JUMPI PUSH1 0x0 DUP1 REVERT JUMPDEST POP PUSH2 0x281 PUSH2 0xC16 JUMP JUMPDEST PUSH1 0x40 MLOAD PUSH2 0x28E SWAP2 SWAP1 PUSH2 0xC3B JUMP JUMPDEST PUSH1 0x40 MLOAD DUP1 SWAP2 SUB SWAP1 RETURN JUMPDEST CALLVALUE DUP1 ISZERO PUSH2 0x2A3 JUMPI PUSH1 0x0 DUP1 REVERT JUMPDEST POP PUSH2 0x2AC PUSH2 0xC1C JUMP JUMPDEST PUSH1 0x40 MLOAD PUSH2 0x2B9 SWAP2 SWAP1 PUSH2 0xC3B JUMP JUMPDEST PUSH1 0x40 MLOAD DUP1 SWAP2 SUB SWAP1 RETURN JUMPDEST PUSH1 0x2 SLOAD DUP2 JUMP JUMPDEST PUSH1 0x0 DUP1 SLOAD SWAP1 PUSH2 0x100 EXP SWAP1 DIV PUSH20 0xFFFFFFFFFFFFFFFFFFFFFFFFFFFFFFFFFFFFFFFF AND PUSH20 0xFFFFFFFFFFFFFFFFFFFFFFFFFFFFFFFFFFFFFFFF AND CALLER PUSH20 0xFFFFFFFFFFFFFFFFFFFFFFFFFFFFFFFFFFFFFFFF AND EQ PUSH2 0x356 JUMPI PUSH1 0x40 MLOAD PUSH32 0x8C379A000000000000000000000000000000000000000000000000000000000 DUP2 MSTORE PUSH1 0x4 ADD PUSH2 0x34D SWAP1 PUSH2 0xEAD JUMP JUMPDEST PUSH1 0x40 MLOAD DUP1 SWAP2 SUB SWAP1 REVERT JUMPDEST PUSH1 0x0 SELFBALANCE SWAP1 POP PUSH1 0x0 DUP2 GT PUSH2 0x39E JUMPI PUSH1 0x40 MLOAD PUSH32 0x8C379A000000000000000000000000000000000000000000000000000000000 DUP2 MSTORE PUSH1 0x4 ADD PUSH2 0x395 SWAP1 PUSH2 0xF19 JUMP JUMPDEST PUSH1 0x40 MLOAD DUP1 SWAP2 SUB SWAP1 REVERT JUMPDEST PUSH1 0x0 DUP1 PUSH1 0x0 SWAP1 SLOAD SWAP1 PUSH2 0x100 EXP SWAP1 DIV PUSH20 0xFFFFFFFFFFFFFFFFFFFFFFFFFFFFFFFFFFFFFFFF AND PUSH20 0xFFFFFFFFFFFFFFFFFFFFFFFFFFFFFFFFFFFFFFFF AND DUP3 PUSH1 0x40 MLOAD PUSH2 0x3E5 SWAP1 PUSH2 0xF6A JUMP JUMPDEST PUSH1 0x0 PUSH1 0x40 MLOAD DUP1 DUP4 SUB DUP2 DUP6 DUP8 GAS CALL SWAP3 POP POP POP RETURNDATASIZE DUP1 PUSH1 0x0 DUP2 EQ PUSH2 0x422 JUMPI PUSH1 0x40 MLOAD SWAP2 POP PUSH1 0x1F NOT PUSH1 0x3F RETURNDATASIZE ADD AND DUP3 ADD PUSH1 0x40 MSTORE RETURNDATASIZE DUP3 MSTORE RETURNDATASIZE PUSH1 0x0 PUSH1 0x20 DUP5 ADD RETURNDATACOPY PUSH2 0x427 JUMP JUMPDEST PUSH1 0x60 SWAP2 POP JUMPDEST POP POP SWAP1 POP DUP1 PUSH2 0x46B JUMPI PUSH1 0x40 MLOAD PUSH32 0x8C379A000000000000000000000000000000000000000000000000000000000 DUP2 MSTORE PUSH1 0x4 ADD PUSH2 0x462 SWAP1 PUSH2 0xFCB JUMP JUMPDEST PUSH1 0x40 MLOAD DUP1 SWAP2 SUB SWAP1 REVERT JUMPDEST POP POP JUMP JUMPDEST PUSH1 0x0 TIMESTAMP PUSH1 0x6 PUSH1 0x0 CALLER PUSH20 0xFFFFFFFFFFFFFFFFFFFFFFFFFFFFFFFFFFFFFFFF AND PUSH20 0xFFFFFFFFFFFFFFFFFFFFFFFFFFFFFFFFFFFFFFFF AND DUP2 MSTORE PUSH1 0x20 ADD SWAP1 DUP2 MSTORE PUSH1 0x20 ADD PUSH1 0x0 KECCAK256 SLOAD GT PUSH2 0x4BE JUMPI PUSH1 0x0 PUSH2 0x50A JUMP JUMPDEST TIMESTAMP PUSH1 0x6 PUSH1 0x0 CALLER PUSH20 0xFFFFFFFFFFFFFFFFFFFFFFFFFFFFFFFFFFFFFFFF AND PUSH20 0xFFFFFFFFFFFFFFFFFFFFFFFFFFFFFFFFFFFFFFFF AND DUP2 MSTORE PUSH1 0x20 ADD SWAP1 DUP2 MSTORE PUSH1 0x20 ADD PUSH1 0x0 KECCAK256 SLOAD PUSH2 0x509 SWAP2 SWAP1 PUSH2 0x101A JUMP JUMPDEST JUMPDEST SWAP1 POP PUSH3 0x3F480 DUP2 GT PUSH2 0x565 JUMPI CALLER PUSH20 0xFFFFFFFFFFFFFFFFFFFFFFFFFFFFFFFFFFFFFFFF AND PUSH32 0x2B8A90E8196FED5A9A7BC85FC29928E0D14FFF6F07B2D5C6C26B28D4011A6D92 DUP3 PUSH1 0x40 MLOAD PUSH2 0x55C SWAP2 SWAP1 PUSH2 0xC3B JUMP JUMPDEST PUSH1 0x40 MLOAD DUP1 SWAP2 SUB SWAP1 LOG2 JUMPDEST POP JUMP JUMPDEST PUSH1 0x7 PUSH1 0x20 MSTORE DUP1 PUSH1 0x0 MSTORE PUSH1 0x40 PUSH1 0x0 KECCAK256 PUSH1 0x0 SWAP2 POP SLOAD SWAP1 PUSH2 0x100 EXP SWAP1 DIV PUSH1 0xFF AND DUP2 JUMP JUMPDEST PUSH1 0x0 DUP1 PUSH1 0x1 DUP2 GT ISZERO PUSH2 0x59D JUMPI PUSH2 0x59C PUSH2 0xCE6 JUMP JUMPDEST JUMPDEST DUP3 PUSH1 0x1 DUP2 GT ISZERO PUSH2 0x5B0 JUMPI PUSH2 0x5AF PUSH2 0xCE6 JUMP JUMPDEST JUMPDEST EQ PUSH2 0x5BD JUMPI PUSH1 0x2 SLOAD PUSH2 0x5C1 JUMP JUMPDEST PUSH1 0x1 SLOAD JUMPDEST SWAP1 POP PUSH1 0x0 DUP1 PUSH1 0x1 DUP2 GT ISZERO PUSH2 0x5D8 JUMPI PUSH2 0x5D7 PUSH2 0xCE6 JUMP JUMPDEST JUMPDEST DUP4 PUSH1 0x1 DUP2 GT ISZERO PUSH2 0x5EB JUMPI PUSH2 0x5EA PUSH2 0xCE6 JUMP JUMPDEST JUMPDEST EQ PUSH2 0x5F8 JUMPI PUSH1 0x4 SLOAD PUSH2 0x5FC JUMP JUMPDEST PUSH1 0x3 SLOAD JUMPDEST SWAP1 POP DUP2 CALLVALUE EQ PUSH2 0x640 JUMPI PUSH1 0x40 MLOAD PUSH32 0x8C379A000000000000000000000000000000000000000000000000000000000 DUP2 MSTORE PUSH1 0x4 ADD PUSH2 0x637 SWAP1 PUSH2 0x109A JUMP JUMPDEST PUSH1 0x40 MLOAD DUP1 SWAP2 SUB SWAP1 REVERT JUMPDEST PUSH1 0x0 TIMESTAMP PUSH1 0x6 PUSH1 0x0 CALLER PUSH20 0xFFFFFFFFFFFFFFFFFFFFFFFFFFFFFFFFFFFFFFFF AND PUSH20 0xFFFFFFFFFFFFFFFFFFFFFFFFFFFFFFFFFFFFFFFF AND DUP2 MSTORE PUSH1 0x20 ADD SWAP1 DUP2 MSTORE PUSH1 0x20 ADD PUSH1 0x0 KECCAK256 SLOAD GT PUSH2 0x699 JUMPI DUP2 TIMESTAMP PUSH2 0x694 SWAP2 SWAP1 PUSH2 0x10BA JUMP JUMPDEST PUSH2 0x6E5 JUMP JUMPDEST DUP2 PUSH1 0x6 PUSH1 0x0 CALLER PUSH20 0xFFFFFFFFFFFFFFFFFFFFFFFFFFFFFFFFFFFFFFFF AND PUSH20 0xFFFFFFFFFFFFFFFFFFFFFFFFFFFFFFFFFFFFFFFF AND DUP2 MSTORE PUSH1 0x20 ADD SWAP1 DUP2 MSTORE PUSH1 0x20 ADD PUSH1 0x0 KECCAK256 SLOAD PUSH2 0x6E4 SWAP2 SWAP1 PUSH2 0x10BA JUMP JUMPDEST JUMPDEST SWAP1 POP DUP1 PUSH1 0x6 PUSH1 0x0 CALLER PUSH20 0xFFFFFFFFFFFFFFFFFFFFFFFFFFFFFFFFFFFFFFFF AND PUSH20 0xFFFFFFFFFFFFFFFFFFFFFFFFFFFFFFFFFFFFFFFF AND DUP2 MSTORE PUSH1 0x20 ADD SWAP1 DUP2 MSTORE PUSH1 0x20 ADD PUSH1 0x0 KECCAK256 DUP2 SWAP1 SSTORE POP DUP4 PUSH1 0x7 PUSH1 0x0 CALLER PUSH20 0xFFFFFFFFFFFFFFFFFFFFFFFFFFFFFFFFFFFFFFFF AND PUSH20 0xFFFFFFFFFFFFFFFFFFFFFFFFFFFFFFFFFFFFFFFF AND DUP2 MSTORE PUSH1 0x20 ADD SWAP1 DUP2 MSTORE PUSH1 0x20 ADD PUSH1 0x0 KECCAK256 PUSH1 0x0 PUSH2 0x100 EXP DUP2 SLOAD DUP2 PUSH1 0xFF MUL NOT AND SWAP1 DUP4 PUSH1 0x1 DUP2 GT ISZERO PUSH2 0x78D JUMPI PUSH2 0x78C PUSH2 0xCE6 JUMP JUMPDEST JUMPDEST MUL OR SWAP1 SSTORE POP CALLER PUSH20 0xFFFFFFFFFFFFFFFFFFFFFFFFFFFFFFFFFFFFFFFF AND PUSH32 0x6059CE9E97CA3EB8AA8F26FB51CD5BEC5FAE8E8198ADD1A7A16B03EFC459F74 DUP3 DUP7 PUSH1 0x40 MLOAD PUSH2 0x7DA SWAP3 SWAP2 SWAP1 PUSH2 0x10EE JUMP JUMPDEST PUSH1 0x40 MLOAD DUP1 SWAP2 SUB SWAP1 LOG2 POP POP POP POP JUMP JUMPDEST PUSH1 0x3 SLOAD DUP2 JUMP JUMPDEST PUSH1 0x6 PUSH1 0x20 MSTORE DUP1 PUSH1 0x0 MSTORE PUSH1 0x40 PUSH1 0x0 KECCAK256 PUSH1 0x0 SWAP2 POP SWAP1 POP SLOAD DUP2 JUMP JUMPDEST PUSH1 0x0 PUSH1 0x6 PUSH1 0x0 CALLER PUSH20 0xFFFFFFFFFFFFFFFFFFFFFFFFFFFFFFFFFFFFFFFF AND PUSH20 0xFFFFFFFFFFFFFFFFFFFFFFFFFFFFFFFFFFFFFFFF AND DUP2 MSTORE PUSH1 0x20 ADD SWAP1 DUP2 MSTORE PUSH1 0x20 ADD PUSH1 0x0 KECCAK256 SLOAD TIMESTAMP GT ISZERO SWAP1 POP SWAP1 JUMP JUMPDEST PUSH1 0x0 PUSH1 0x6 PUSH1 0x0 CALLER PUSH20 0xFFFFFFFFFFFFFFFFFFFFFFFFFFFFFFFFFFFFFFFF AND PUSH20 0xFFFFFFFFFFFFFFFFFFFFFFFFFFFFFFFFFFFFFFFF AND DUP2 MSTORE PUSH1 0x20 ADD SWAP1 DUP2 MSTORE PUSH1 0x20 ADD PUSH1 0x0 KECCAK256 SLOAD GT PUSH2 0x8D2 JUMPI PUSH1 0x40 MLOAD PUSH32 0x8C379A000000000000000000000000000000000000000000000000000000000 DUP2 MSTORE PUSH1 0x4 ADD PUSH2 0x8C9 SWAP1 PUSH2 0x1163 JUMP JUMPDEST PUSH1 0x40 MLOAD DUP1 SWAP2 SUB SWAP1 REVERT JUMPDEST PUSH1 0x0 TIMESTAMP PUSH1 0x6 PUSH1 0x0 CALLER PUSH20 0xFFFFFFFFFFFFFFFFFFFFFFFFFFFFFFFFFFFFFFFF AND PUSH20 0xFFFFFFFFFFFFFFFFFFFFFFFFFFFFFFFFFFFFFFFF AND DUP2 MSTORE PUSH1 0x20 ADD SWAP1 DUP2 MSTORE PUSH1 0x20 ADD PUSH1 0x0 KECCAK256 SLOAD GT PUSH2 0x921 JUMPI PUSH1 0x0 PUSH2 0x96D JUMP JUMPDEST TIMESTAMP PUSH1 0x6 PUSH1 0x0 CALLER PUSH20 0xFFFFFFFFFFFFFFFFFFFFFFFFFFFFFFFFFFFFFFFF AND PUSH20 0xFFFFFFFFFFFFFFFFFFFFFFFFFFFFFFFFFFFFFFFF AND DUP2 MSTORE PUSH1 0x20 ADD SWAP1 DUP2 MSTORE PUSH1 0x20 ADD PUSH1 0x0 KECCAK256 SLOAD PUSH2 0x96C SWAP2 SWAP1 PUSH2 0x101A JUMP JUMPDEST JUMPDEST SWAP1 POP PUSH1 0x0 DUP1 PUSH1 0x1 DUP2 GT ISZERO PUSH2 0x984 JUMPI PUSH2 0x983 PUSH2 0xCE6 JUMP JUMPDEST JUMPDEST PUSH1 0x7 PUSH1 0x0 CALLER PUSH20 0xFFFFFFFFFFFFFFFFFFFFFFFFFFFFFFFFFFFFFFFF AND PUSH20 0xFFFFFFFFFFFFFFFFFFFFFFFFFFFFFFFFFFFFFFFF AND DUP2 MSTORE PUSH1 0x20 ADD SWAP1 DUP2 MSTORE PUSH1 0x20 ADD PUSH1 0x0 KECCAK256 PUSH1 0x0 SWAP1 SLOAD SWAP1 PUSH2 0x100 EXP SWAP1 DIV PUSH1 0xFF AND PUSH1 0x1 DUP2 GT ISZERO PUSH2 0x9E3 JUMPI PUSH2 0x9E2 PUSH2 0xCE6 JUMP JUMPDEST JUMPDEST EQ PUSH2 0x9F0 JUMPI PUSH1 0x2 SLOAD PUSH2 0x9F4 JUMP JUMPDEST PUSH1 0x1 SLOAD JUMPDEST SWAP1 POP PUSH1 0x0 DUP1 PUSH1 0x1 DUP2 GT ISZERO PUSH2 0xA0B JUMPI PUSH2 0xA0A PUSH2 0xCE6 JUMP JUMPDEST JUMPDEST PUSH1 0x7 PUSH1 0x0 CALLER PUSH20 0xFFFFFFFFFFFFFFFFFFFFFFFFFFFFFFFFFFFFFFFF AND PUSH20 0xFFFFFFFFFFFFFFFFFFFFFFFFFFFFFFFFFFFFFFFF AND DUP2 MSTORE PUSH1 0x20 ADD SWAP1 DUP2 MSTORE PUSH1 0x20 ADD PUSH1 0x0 KECCAK256 PUSH1 0x0 SWAP1 SLOAD SWAP1 PUSH2 0x100 EXP SWAP1 DIV PUSH1 0xFF AND PUSH1 0x1 DUP2 GT ISZERO PUSH2 0xA6A JUMPI PUSH2 0xA69 PUSH2 0xCE6 JUMP JUMPDEST JUMPDEST EQ PUSH2 0xA77 JUMPI PUSH1 0x4 SLOAD PUSH2 0xA7B JUMP JUMPDEST PUSH1 0x3 SLOAD JUMPDEST SWAP1 POP PUSH1 0x0 DUP4 GT ISZERO PUSH2 0xAB4 JUMPI PUSH1 0x0 PUSH1 0x64 PUSH1 0x5 SLOAD DUP5 PUSH2 0xA98 SWAP2 SWAP1 PUSH2 0x1183 JUMP JUMPDEST PUSH2 0xAA2 SWAP2 SWAP1 PUSH2 0x11F4 JUMP JUMPDEST SWAP1 POP DUP1 DUP4 PUSH2 0xAB0 SWAP2 SWAP1 PUSH2 0x101A JUMP JUMPDEST SWAP3 POP POP JUMPDEST DUP2 CALLVALUE EQ PUSH2 0xAF6 JUMPI PUSH1 0x40 MLOAD PUSH32 0x8C379A000000000000000000000000000000000000000000000000000000000 DUP2 MSTORE PUSH1 0x4 ADD PUSH2 0xAED SWAP1 PUSH2 0x1271 JUMP JUMPDEST PUSH1 0x40 MLOAD DUP1 SWAP2 SUB SWAP1 REVERT JUMPDEST PUSH1 0x0 DUP2 TIMESTAMP PUSH2 0xB04 SWAP2 SWAP1 PUSH2 0x10BA JUMP JUMPDEST SWAP1 POP DUP1 PUSH1 0x6 PUSH1 0x0 CALLER PUSH20 0xFFFFFFFFFFFFFFFFFFFFFFFFFFFFFFFFFFFFFFFF AND PUSH20 0xFFFFFFFFFFFFFFFFFFFFFFFFFFFFFFFFFFFFFFFF AND DUP2 MSTORE PUSH1 0x20 ADD SWAP1 DUP2 MSTORE PUSH1 0x20 ADD PUSH1 0x0 KECCAK256 DUP2 SWAP1 SSTORE POP CALLER PUSH20 0xFFFFFFFFFFFFFFFFFFFFFFFFFFFFFFFFFFFFFFFF AND PUSH32 0x6059CE9E97CA3EB8AA8F26FB51CD5BEC5FAE8E8198ADD1A7A16B03EFC459F74 DUP3 PUSH1 0x7 PUSH1 0x0 CALLER PUSH20 0xFFFFFFFFFFFFFFFFFFFFFFFFFFFFFFFFFFFFFFFF AND PUSH20 0xFFFFFFFFFFFFFFFFFFFFFFFFFFFFFFFFFFFFFFFF AND DUP2 MSTORE PUSH1 0x20 ADD SWAP1 DUP2 MSTORE PUSH1 0x20 ADD PUSH1 0x0 KECCAK256 PUSH1 0x0 SWAP1 SLOAD SWAP1 PUSH2 0x100 EXP SWAP1 DIV PUSH1 0xFF AND PUSH1 0x40 MLOAD PUSH2 0xBDE SWAP3 SWAP2 SWAP1 PUSH2 0x10EE JUMP JUMPDEST PUSH1 0x40 MLOAD DUP1 SWAP2 SUB SWAP1 LOG2 POP POP POP POP JUMP JUMPDEST PUSH1 0x4 SLOAD DUP2 JUMP JUMPDEST PUSH1 0x0 DUP1 SLOAD SWAP1 PUSH2 0x100 EXP SWAP1 DIV PUSH20 0xFFFFFFFFFFFFFFFFFFFFFFFFFFFFFFFFFFFFFFFF AND DUP2 JUMP JUMPDEST PUSH1 0x1 SLOAD DUP2 JUMP JUMPDEST PUSH1 0x5 SLOAD DUP2 JUMP JUMPDEST PUSH1 0x0 DUP2 SWAP1 POP SWAP2 SWAP1 POP JUMP JUMPDEST PUSH2 0xC35 DUP2 PUSH2 0xC22 JUMP JUMPDEST DUP3 MSTORE POP POP JUMP JUMPDEST PUSH1 0x0 PUSH1 0x20 DUP3 ADD SWAP1 POP PUSH2 0xC50 PUSH1 0x0 DUP4 ADD DUP5 PUSH2 0xC2C JUMP JUMPDEST SWAP3 SWAP2 POP POP JUMP JUMPDEST PUSH1 0x0 DUP1 REVERT JUMPDEST PUSH1 0x0 PUSH20 0xFFFFFFFFFFFFFFFFFFFFFFFFFFFFFFFFFFFFFFFF DUP3 AND SWAP1 POP SWAP2 SWAP1 POP JUMP JUMPDEST PUSH1 0x0 PUSH2 0xC86 DUP3 PUSH2 0xC5B JUMP JUMPDEST SWAP1 POP SWAP2 SWAP1 POP JUMP JUMPDEST PUSH2 0xC96 DUP2 PUSH2 0xC7B JUMP JUMPDEST DUP2 EQ PUSH2 0xCA1 JUMPI PUSH1 0x0 DUP1 REVERT JUMPDEST POP JUMP JUMPDEST PUSH1 0x0 DUP2 CALLDATALOAD SWAP1 POP PUSH2 0xCB3 DUP2 PUSH2 0xC8D JUMP JUMPDEST SWAP3 SWAP2 POP POP JUMP JUMPDEST PUSH1 0x0 PUSH1 0x20 DUP3 DUP5 SUB SLT ISZERO PUSH2 0xCCF JUMPI PUSH2 0xCCE PUSH2 0xC56 JUMP JUMPDEST JUMPDEST PUSH1 0x0 PUSH2 0xCDD DUP5 DUP3 DUP6 ADD PUSH2 0xCA4 JUMP JUMPDEST SWAP2 POP POP SWAP3 SWAP2 POP POP JUMP JUMPDEST PUSH32 0x4E487B7100000000000000000000000000000000000000000000000000000000 PUSH1 0x0 MSTORE PUSH1 0x21 PUSH1 0x4 MSTORE PUSH1 0x24 PUSH1 0x0 REVERT JUMPDEST PUSH1 0x2 DUP2 LT PUSH2 0xD26 JUMPI PUSH2 0xD25 PUSH2 0xCE6 JUMP JUMPDEST JUMPDEST POP JUMP JUMPDEST PUSH1 0x0 DUP2 SWAP1 POP PUSH2 0xD37 DUP3 PUSH2 0xD15 JUMP JUMPDEST SWAP2 SWAP1 POP JUMP JUMPDEST PUSH1 0x0 PUSH2 0xD47 DUP3 PUSH2 0xD29 JUMP JUMPDEST SWAP1 POP SWAP2 SWAP1 POP JUMP JUMPDEST PUSH2 0xD57 DUP2 PUSH2 0xD3C JUMP JUMPDEST DUP3 MSTORE POP POP JUMP JUMPDEST PUSH1 0x0 PUSH1 0x20 DUP3 ADD SWAP1 POP PUSH2 0xD72 PUSH1 0x0 DUP4 ADD DUP5 PUSH2 0xD4E JUMP JUMPDEST SWAP3 SWAP2 POP POP JUMP JUMPDEST PUSH1 0x2 DUP2 LT PUSH2 0xD85 JUMPI PUSH1 0x0 DUP1 REVERT JUMPDEST POP JUMP JUMPDEST PUSH1 0x0 DUP2 CALLDATALOAD SWAP1 POP PUSH2 0xD97 DUP2 PUSH2 0xD78 JUMP JUMPDEST SWAP3 SWAP2 POP POP JUMP JUMPDEST PUSH1 0x0 PUSH1 0x20 DUP3 DUP5 SUB SLT ISZERO PUSH2 0xDB3 JUMPI PUSH2 0xDB2 PUSH2 0xC56 JUMP JUMPDEST JUMPDEST PUSH1 0x0 PUSH2 0xDC1 DUP5 DUP3 DUP6 ADD PUSH2 0xD88 JUMP JUMPDEST SWAP2 POP POP SWAP3 SWAP2 POP POP JUMP JUMPDEST PUSH1 0x0 DUP2 ISZERO ISZERO SWAP1 POP SWAP2 SWAP1 POP JUMP JUMPDEST PUSH2 0xDDF DUP2 PUSH2 0xDCA JUMP JUMPDEST DUP3 MSTORE POP POP JUMP JUMPDEST PUSH1 0x0 PUSH1 0x20 DUP3 ADD SWAP1 POP PUSH2 0xDFA PUSH1 0x0 DUP4 ADD DUP5 PUSH2 0xDD6 JUMP JUMPDEST SWAP3 SWAP2 POP POP JUMP JUMPDEST PUSH2 0xE09 DUP2 PUSH2 0xC7B JUMP JUMPDEST DUP3 MSTORE POP POP JUMP JUMPDEST PUSH1 0x0 PUSH1 0x20 DUP3 ADD SWAP1 POP PUSH2 0xE24 PUSH1 0x0 DUP4 ADD DUP5 PUSH2 0xE00 JUMP JUMPDEST SWAP3 SWAP2 POP POP JUMP JUMPDEST PUSH1 0x0 DUP3 DUP3 MSTORE PUSH1 0x20 DUP3 ADD SWAP1 POP SWAP3 SWAP2 POP POP JUMP JUMPDEST PUSH32 0x4F6E6C79206F776E65722063616E2063616C6C20746869732066756E6374696F PUSH1 0x0 DUP3 ADD MSTORE PUSH32 0x6E00000000000000000000000000000000000000000000000000000000000000 PUSH1 0x20 DUP3 ADD MSTORE POP JUMP JUMPDEST PUSH1 0x0 PUSH2 0xE97 PUSH1 0x21 DUP4 PUSH2 0xE2A JUMP JUMPDEST SWAP2 POP PUSH2 0xEA2 DUP3 PUSH2 0xE3B JUMP JUMPDEST PUSH1 0x40 DUP3 ADD SWAP1 POP SWAP2 SWAP1 POP JUMP JUMPDEST PUSH1 0x0 PUSH1 0x20 DUP3 ADD SWAP1 POP DUP2 DUP2 SUB PUSH1 0x0 DUP4 ADD MSTORE PUSH2 0xEC6 DUP2 PUSH2 0xE8A JUMP JUMPDEST SWAP1 POP SWAP2 SWAP1 POP JUMP JUMPDEST PUSH32 0x4E6F2062616C616E636520746F20776974686472617700000000000000000000 PUSH1 0x0 DUP3 ADD MSTORE POP JUMP JUMPDEST PUSH1 0x0 PUSH2 0xF03 PUSH1 0x16 DUP4 PUSH2 0xE2A JUMP JUMPDEST SWAP2 POP PUSH2 0xF0E DUP3 PUSH2 0xECD JUMP JUMPDEST PUSH1 0x20 DUP3 ADD SWAP1 POP SWAP2 SWAP1 POP JUMP JUMPDEST PUSH1 0x0 PUSH1 0x20 DUP3 ADD SWAP1 POP DUP2 DUP2 SUB PUSH1 0x0 DUP4 ADD MSTORE PUSH2 0xF32 DUP2 PUSH2 0xEF6 JUMP JUMPDEST SWAP1 POP SWAP2 SWAP1 POP JUMP JUMPDEST PUSH1 0x0 DUP2 SWAP1 POP SWAP3 SWAP2 POP POP JUMP JUMPDEST POP JUMP JUMPDEST PUSH1 0x0 PUSH2 0xF54 PUSH1 0x0 DUP4 PUSH2 0xF39 JUMP JUMPDEST SWAP2 POP PUSH2 0xF5F DUP3 PUSH2 0xF44 JUMP JUMPDEST PUSH1 0x0 DUP3 ADD SWAP1 POP SWAP2 SWAP1 POP JUMP JUMPDEST PUSH1 0x0 PUSH2 0xF75 DUP3 PUSH2 0xF47 JUMP JUMPDEST SWAP2 POP DUP2 SWAP1 POP SWAP2 SWAP1 POP JUMP JUMPDEST PUSH32 0x5769746864726177616C206661696C6564000000000000000000000000000000 PUSH1 0x0 DUP3 ADD MSTORE POP JUMP JUMPDEST PUSH1 0x0 PUSH2 0xFB5 PUSH1 0x11 DUP4 PUSH2 0xE2A JUMP JUMPDEST SWAP2 POP PUSH2 0xFC0 DUP3 PUSH2 0xF7F JUMP JUMPDEST PUSH1 0x20 DUP3 ADD SWAP1 POP SWAP2 SWAP1 POP JUMP JUMPDEST PUSH1 0x0 PUSH1 0x20 DUP3 ADD SWAP1 POP DUP2 DUP2 SUB PUSH1 0x0 DUP4 ADD MSTORE PUSH2 0xFE4 DUP2 PUSH2 0xFA8 JUMP JUMPDEST SWAP1 POP SWAP2 SWAP1 POP JUMP JUMPDEST PUSH32 0x4E487B7100000000000000000000000000000000000000000000000000000000 PUSH1 0x0 MSTORE PUSH1 0x11 PUSH1 0x4 MSTORE PUSH1 0x24 PUSH1 0x0 REVERT JUMPDEST PUSH1 0x0 PUSH2 0x1025 DUP3 PUSH2 0xC22 JUMP JUMPDEST SWAP2 POP PUSH2 0x1030 DUP4 PUSH2 0xC22 JUMP JUMPDEST SWAP3 POP DUP3 DUP3 SUB SWAP1 POP DUP2 DUP2 GT ISZERO PUSH2 0x1048 JUMPI PUSH2 0x1047 PUSH2 0xFEB JUMP JUMPDEST JUMPDEST SWAP3 SWAP2 POP POP JUMP JUMPDEST PUSH32 0x457861637420737562736372697074696F6E2066656520726571756972656400 PUSH1 0x0 DUP3 ADD MSTORE POP JUMP JUMPDEST PUSH1 0x0 PUSH2 0x1084 PUSH1 0x1F DUP4 PUSH2 0xE2A JUMP JUMPDEST SWAP2 POP PUSH2 0x108F DUP3 PUSH2 0x104E JUMP JUMPDEST PUSH1 0x20 DUP3 ADD SWAP1 POP SWAP2 SWAP1 POP JUMP JUMPDEST PUSH1 0x0 PUSH1 0x20 DUP3 ADD SWAP1 POP DUP2 DUP2 SUB PUSH1 0x0 DUP4 ADD MSTORE PUSH2 0x10B3 DUP2 PUSH2 0x1077 JUMP JUMPDEST SWAP1 POP SWAP2 SWAP1 POP JUMP JUMPDEST PUSH1 0x0 PUSH2 0x10C5 DUP3 PUSH2 0xC22 JUMP JUMPDEST SWAP2 POP PUSH2 0x10D0 DUP4 PUSH2 0xC22 JUMP JUMPDEST SWAP3 POP DUP3 DUP3 ADD SWAP1 POP DUP1 DUP3 GT ISZERO PUSH2 0x10E8 JUMPI PUSH2 0x10E7 PUSH2 0xFEB JUMP JUMPDEST JUMPDEST SWAP3 SWAP2 POP POP JUMP JUMPDEST PUSH1 0x0 PUSH1 0x40 DUP3 ADD SWAP1 POP PUSH2 0x1103 PUSH1 0x0 DUP4 ADD DUP6 PUSH2 0xC2C JUMP JUMPDEST PUSH2 0x1110 PUSH1 0x20 DUP4 ADD DUP5 PUSH2 0xD4E JUMP JUMPDEST SWAP4 SWAP3 POP POP POP JUMP JUMPDEST PUSH32 0x4E6F2061637469766520737562736372697074696F6E20666F756E6400000000 PUSH1 0x0 DUP3 ADD MSTORE POP JUMP JUMPDEST PUSH1 0x0 PUSH2 0x114D PUSH1 0x1C DUP4 PUSH2 0xE2A JUMP JUMPDEST SWAP2 POP PUSH2 0x1158 DUP3 PUSH2 0x1117 JUMP JUMPDEST PUSH1 0x20 DUP3 ADD SWAP1 POP SWAP2 SWAP1 POP JUMP JUMPDEST PUSH1 0x0 PUSH1 0x20 DUP3 ADD SWAP1 POP DUP2 DUP2 SUB PUSH1 0x0 DUP4 ADD MSTORE PUSH2 0x117C DUP2 PUSH2 0x1140 JUMP JUMPDEST SWAP1 POP SWAP2 SWAP1 POP JUMP JUMPDEST PUSH1 0x0 PUSH2 0x118E DUP3 PUSH2 0xC22 JUMP JUMPDEST SWAP2 POP PUSH2 0x1199 DUP4 PUSH2 0xC22 JUMP JUMPDEST SWAP3 POP DUP3 DUP3 MUL PUSH2 0x11A7 DUP2 PUSH2 0xC22 JUMP JUMPDEST SWAP2 POP DUP3 DUP3 DIV DUP5 EQ DUP4 ISZERO OR PUSH2 0x11BE JUMPI PUSH2 0x11BD PUSH2 0xFEB JUMP JUMPDEST JUMPDEST POP SWAP3 SWAP2 POP POP JUMP JUMPDEST PUSH32 0x4E487B7100000000000000000000000000000000000000000000000000000000 PUSH1 0x0 MSTORE PUSH1 0x12 PUSH1 0x4 MSTORE PUSH1 0x24 PUSH1 0x0 REVERT JUMPDEST PUSH1 0x0 PUSH2 0x11FF DUP3 PUSH2 0xC22 JUMP JUMPDEST SWAP2 POP PUSH2 0x120A DUP4 PUSH2 0xC22 JUMP JUMPDEST SWAP3 POP DUP3 PUSH2 0x121A JUMPI PUSH2 0x1219 PUSH2 0x11C5 JUMP JUMPDEST JUMPDEST DUP3 DUP3 DIV SWAP1 POP SWAP3 SWAP2 POP POP JUMP JUMPDEST PUSH32 0x45786163742072656E6577616C20666565207265717569726564000000000000 PUSH1 0x0 DUP3 ADD MSTORE POP JUMP JUMPDEST PUSH1 0x0 PUSH2 0x125B PUSH1 0x1A DUP4 PUSH2 0xE2A JUMP JUMPDEST SWAP2 POP PUSH2 0x1266 DUP3 PUSH2 0x1225 JUMP JUMPDEST PUSH1 0x20 DUP3 ADD SWAP1 POP SWAP2 SWAP1 POP JUMP JUMPDEST PUSH1 0x0 PUSH1 0x20 DUP3 ADD SWAP1 POP DUP2 DUP2 SUB PUSH1 0x0 DUP4 ADD MSTORE PUSH2 0x128A DUP2 PUSH2 0x124E JUMP JUMPDEST SWAP1 POP SWAP2 SWAP1 POP JUMP INVALID LOG2 PUSH5 0x6970667358 0x22 SLT KECCAK256 PUSH27 0xBF5807ECCB9BD62491C8F3B8E2C4A054C70CA0990F896416FFCB53 0xFC LT PUSH5 0xA564736F6C PUSH4 0x4300081A STOP CALLER "
		},
		"gasEstimates": {
			"creation": {
				"codeDepositCost": "961400",
				"executionCost": "135797",
				"totalCost": "1097197"
			},
			"external": {
				"basicFee()": "2495",
				"basicInterval()": "2540",
				"checkNearExpiration()": "infinite",
				"checkSubscription()": "2585",
				"earlyRenewalDiscount()": "2517",
				"owner()": "2555",
				"premiumFee()": "2430",
				"premiumInterval()": "2451",
				"renewSubscription()": "infinite",
				"subscribe(uint8)": "infinite",
				"subscriberTier(address)": "3001",
				"subscriptionExpiry(address)": "2837",
				"withdrawFunds()": "infinite"
			}
		},
		"methodIdentifiers": {
			"basicFee()": "b6aeecf1",
			"basicInterval()": "572ed5ad",
			"checkNearExpiration()": "311af42c",
			"checkSubscription()": "6e2e9c18",
			"earlyRenewalDiscount()": "cdad47be",
			"owner()": "8da5cb5b",
			"premiumFee()": "209c9523",
			"premiumInterval()": "7e9a7f2f",
			"renewSubscription()": "6e307981",
			"subscribe(uint8)": "49c7e639",
			"subscriberTier(address)": "4320a87f",
			"subscriptionExpiry(address)": "60a85ef5",
			"withdrawFunds()": "24600fc3"
		}
	},
	"abi": [
		{
			"inputs": [],
			"stateMutability": "nonpayable",
			"type": "constructor"
		},
		{
			"anonymous": false,
			"inputs": [
				{
					"indexed": true,
					"internalType": "address",
					"name": "subscriber",
					"type": "address"
				},
				{
					"indexed": false,
					"internalType": "uint256",
					"name": "timeRemaining",
					"type": "uint256"
				}
			],
			"name": "NearExpiration",
			"type": "event"
		},
		{
			"anonymous": false,
			"inputs": [
				{
					"indexed": true,
					"internalType": "address",
					"name": "subscriber",
					"type": "address"
				},
				{
					"indexed": false,
					"internalType": "uint256",
					"name": "expiryTimestamp",
					"type": "uint256"
				},
				{
					"indexed": false,
					"internalType": "enum SubscriptionService.Tier",
					"name": "tier",
					"type": "uint8"
				}
			],
			"name": "SubscriptionRenewed",
			"type": "event"
		},
		{
			"inputs": [],
			"name": "basicFee",
			"outputs": [
				{
					"internalType": "uint256",
					"name": "",
					"type": "uint256"
				}
			],
			"stateMutability": "view",
			"type": "function"
		},
		{
			"inputs": [],
			"name": "basicInterval",
			"outputs": [
				{
					"internalType": "uint256",
					"name": "",
					"type": "uint256"
				}
			],
			"stateMutability": "view",
			"type": "function"
		},
		{
			"inputs": [],
			"name": "checkNearExpiration",
			"outputs": [],
			"stateMutability": "nonpayable",
			"type": "function"
		},
		{
			"inputs": [],
			"name": "checkSubscription",
			"outputs": [
				{
					"internalType": "bool",
					"name": "",
					"type": "bool"
				}
			],
			"stateMutability": "view",
			"type": "function"
		},
		{
			"inputs": [],
			"name": "earlyRenewalDiscount",
			"outputs": [
				{
					"internalType": "uint256",
					"name": "",
					"type": "uint256"
				}
			],
			"stateMutability": "view",
			"type": "function"
		},
		{
			"inputs": [],
			"name": "owner",
			"outputs": [
				{
					"internalType": "address",
					"name": "",
					"type": "address"
				}
			],
			"stateMutability": "view",
			"type": "function"
		},
		{
			"inputs": [],
			"name": "premiumFee",
			"outputs": [
				{
					"internalType": "uint256",
					"name": "",
					"type": "uint256"
				}
			],
			"stateMutability": "view",
			"type": "function"
		},
		{
			"inputs": [],
			"name": "premiumInterval",
			"outputs": [
				{
					"internalType": "uint256",
					"name": "",
					"type": "uint256"
				}
			],
			"stateMutability": "view",
			"type": "function"
		},
		{
			"inputs": [],
			"name": "renewSubscription",
			"outputs": [],
			"stateMutability": "payable",
			"type": "function"
		},
		{
			"inputs": [
				{
					"internalType": "enum SubscriptionService.Tier",
					"name": "tier",
					"type": "uint8"
				}
			],
			"name": "subscribe",
			"outputs": [],
			"stateMutability": "payable",
			"type": "function"
		},
		{
			"inputs": [
				{
					"internalType": "address",
					"name": "",
					"type": "address"
				}
			],
			"name": "subscriberTier",
			"outputs": [
				{
					"internalType": "enum SubscriptionService.Tier",
					"name": "",
					"type": "uint8"
				}
			],
			"stateMutability": "view",
			"type": "function"
		},
		{
			"inputs": [
				{
					"internalType": "address",
					"name": "",
					"type": "address"
				}
			],
			"name": "subscriptionExpiry",
			"outputs": [
				{
					"internalType": "uint256",
					"name": "",
					"type": "uint256"
				}
			],
			"stateMutability": "view",
			"type": "function"
		},
		{
			"inputs": [],
			"name": "withdrawFunds",
			"outputs": [],
			"stateMutability": "nonpayable",
			"type": "function"
		}
	]
}